{
	"data": {
		"bytecode": {
			"linkReferences": {},
			"object": "60806040526040516200001290620003e9565b6200001d9062000601565b604051809103906000f0801580156200003a573d6000803e3d6000fd5b50600160006101000a81548173ffffffffffffffffffffffffffffffffffffffff021916908373ffffffffffffffffffffffffffffffffffffffff1602179055506a084595161401484a0000006002556000600760006101000a81548160ff02191690831515021790555042600855348015620000b657600080fd5b50604051620067c1380380620067c18339818101604052810190620000dc91906200053c565b620000fc620000f06200027760201b60201c565b6200027f60201b60201c565b816006908051906020019062000114929190620003f7565b50806005819055506200012f6000806200034360201b60201c565b62000143600160006200034360201b60201c565b62000166600260284442186200015a91906200077b565b6200034360201b60201c565b6200018760036028426200017b91906200077b565b6200034360201b60201c565b6200019b600460006200034360201b60201c565b620001be60056028434218620001b291906200077b565b6200034360201b60201c565b620001d2600660006200034360201b60201c565b620001e6600760006200034360201b60201c565b620001fa600860006200034360201b60201c565b6200020e600960006200034360201b60201c565b62000222600a60006200034360201b60201c565b62000236600b60006200034360201b60201c565b7f3fb1eacbb719ae1eb8a759b6d528f5f50302a6f6fef873e6048c1c23b1bb70ba4260405162000267919062000638565b60405180910390a1505062000900565b600033905090565b60008060009054906101000a900473ffffffffffffffffffffffffffffffffffffffff169050816000806101000a81548173ffffffffffffffffffffffffffffffffffffffff021916908373ffffffffffffffffffffffffffffffffffffffff1602179055508173ffffffffffffffffffffffffffffffffffffffff168173ffffffffffffffffffffffffffffffffffffffff167f8be0079c531659141344cd1fd0a4f28419497f9722a3daafe3b4186f6b6457e060405160405180910390a35050565b60008112156200035257600090505b60648113156200036157606490505b806003600084600b8111156200037c576200037b620007e2565b5b600b811115620003915762000390620007e2565b5b815260200190815260200160002081905550426004600084600b811115620003be57620003bd620007e2565b5b600b811115620003d357620003d2620007e2565b5b8152602001908152602001600020819055505050565b6123b9806200440883390190565b82805462000405906200070f565b90600052602060002090601f01602090048101928262000429576000855562000475565b82601f106200044457805160ff191683800117855562000475565b8280016001018555821562000475579182015b828111156200047457825182559160200191906001019062000457565b5b50905062000484919062000488565b5090565b5b80821115620004a357600081600090555060010162000489565b5090565b6000620004be620004b8846200067e565b62000655565b905082815260208101848484011115620004dd57620004dc62000874565b5b620004ea848285620006d9565b509392505050565b600082601f8301126200050a57620005096200086f565b5b81516200051c848260208601620004a7565b91505092915050565b6000815190506200053681620008e6565b92915050565b600080604083850312156200055657620005556200087e565b5b600083015167ffffffffffffffff81111562000577576200057662000879565b5b6200058585828601620004f2565b9250506020620005988582860162000525565b9150509250929050565b6000620005b1600683620006b4565b9150620005be8262000894565b602082019050919050565b6000620005d8601083620006b4565b9150620005e582620008bd565b602082019050919050565b620005fb81620006cf565b82525050565b600060408201905081810360008301526200061c81620005c9565b905081810360208301526200063181620005a2565b9050919050565b60006020820190506200064f6000830184620005f0565b92915050565b60006200066162000674565b90506200066f828262000745565b919050565b6000604051905090565b600067ffffffffffffffff8211156200069c576200069b62000840565b5b620006a78262000883565b9050602081019050919050565b600082825260208201905092915050565b6000819050919050565b6000819050919050565b60005b83811015620006f9578082015181840152602081019050620006dc565b8381111562000709576000848401525b50505050565b600060028204905060018216806200072857607f821691505b602082108114156200073f576200073e62000811565b5b50919050565b620007508262000883565b810181811067ffffffffffffffff8211171562000772576200077162000840565b5b80604052505050565b60006200078882620006c5565b91506200079583620006c5565b925082620007a857620007a7620007b3565b5b828207905092915050565b7f4e487b7100000000000000000000000000000000000000000000000000000000600052601260045260246000fd5b7f4e487b7100000000000000000000000000000000000000000000000000000000600052602160045260246000fd5b7f4e487b7100000000000000000000000000000000000000000000000000000000600052602260045260246000fd5b7f4e487b7100000000000000000000000000000000000000000000000000000000600052604160045260246000fd5b600080fd5b600080fd5b600080fd5b600080fd5b6000601f19601f8301169050919050565b7f54474c4f56450000000000000000000000000000000000000000000000000000600082015250565b7f546974616e476f74636869204c4f564500000000000000000000000000000000600082015250565b620008f181620006cf565b8114620008fd57600080fd5b50565b613af880620009106000396000f3fe608060405234801561001057600080fd5b50600436106101cf5760003560e01c806344d59c271161010457806395851a65116100a2578063eae35bc111610071578063eae35bc114610382578063f2fde38b1461038c578063fa84d416146103a8578063fc98512e146103b2576101cf565b806395851a651461034657806397221d2c14610350578063ca8595a91461036e578063d32cb0fe14610378576101cf565b80636aca8cd5116100de5780636aca8cd5146102f6578063715018a6146103005780638da5cb5b1461030a57806390dcfe5b14610328576101cf565b806344d59c27146102b05780634ac2a647146102ce5780634fccdfcd146102d8576101cf565b806325e8ab58116101715780633db8cbcc1161014b5780633db8cbcc146102745780633ec1a39a1461027e5780634136aa351461028857806341c0e1b5146102a6576101cf565b806325e8ab5814610256578063284131c71461026057806337e4386f1461026a576101cf565b80630fdb1c10116101ad5780630fdb1c1014610206578063133a473e1461021057806318d4f7c31461021a5780631b49887214610238576101cf565b80630908d461146101d4578063094ebde6146101f25780630aaf3e8f146101fc575b600080fd5b6101dc6103bc565b6040516101e9919061306f565b60405180910390f35b6101fa610408565b005b610204610545565b005b61020e610760565b005b61021861090e565b005b610222610aa8565b60405161022f919061306f565b60405180910390f35b610240610b3e565b60405161024d919061306f565b60405180910390f35b61025e610b7e565b005b610268610e85565b005b6102726110f1565b005b61027c61133b565b005b610286611585565b005b61029061180e565b60405161029d9190613054565b60405180910390f35b6102ae611846565b005b6102b8611949565b6040516102c5919061306f565b60405180910390f35b6102d66119df565b005b6102e0611afe565b6040516102ed919061306f565b60405180910390f35b6102fe611b92565b005b610308611e58565b005b610312611ee0565b60405161031f9190613010565b60405180910390f35b610330611f09565b60405161033d919061306f565b60405180910390f35b61034e611f9f565b005b6103586120a3565b604051610365919061330a565b60405180910390f35b610376612113565b005b6103806122f7565b005b61038a61249c565b005b6103a660048036038101906103a19190612c91565b612708565b005b6103b0612800565b005b6103ba6128f3565b005b6000600360006002600b8111156103d6576103d56136ef565b5b600b8111156103e8576103e76136ef565b5b81526020019081526020016000205460646104039190613515565b905090565b600760009054906101000a900460ff1615610458576040517f08c379a000000000000000000000000000000000000000000000000000000000815260040161044f9061318a565b60405180910390fd5b61046061180e565b61049f576040517f08c379a0000000000000000000000000000000000000000000000000000000008152600401610496906132aa565b60405180910390fd5b60326104a96103bc565b136104e9576040517f08c379a00000000000000000000000000000000000000000000000000000000081526004016104e0906131ca565b60405180910390fd5b610507600260326104f86103bc565b6105029190613515565b6129e6565b6105256003601e610516611949565b6105209190613336565b6129e6565b6105436004601e610534610b3e565b61053e9190613336565b6129e6565b565b600760009054906101000a900460ff1615610595576040517f08c379a000000000000000000000000000000000000000000000000000000000815260040161058c9061318a565b60405180910390fd5b61059d61180e565b6105dc576040517f08c379a00000000000000000000000000000000000000000000000000000000081526004016105d3906132aa565b60405180910390fd5b60466105e6610b3e565b12610626576040517f08c379a000000000000000000000000000000000000000000000000000000000815260040161061d9061326a565b60405180910390fd5b6050610630611afe565b12610670576040517f08c379a00000000000000000000000000000000000000000000000000000000081526004016106679061320a565b60405180910390fd5b605061067a611f09565b126106ba576040517f08c379a00000000000000000000000000000000000000000000000000000000081526004016106b1906132ca565b60405180910390fd5b60466106c4610aa8565b12610704576040517f08c379a00000000000000000000000000000000000000000000000000000000081526004016106fb9061314a565b60405180910390fd5b61072260036032610713611949565b61071d9190613515565b6129e6565b61074060046014610731610b3e565b61073b9190613336565b6129e6565b61075e6005601461074f610aa8565b6107599190613336565b6129e6565b565b610768612a7e565b73ffffffffffffffffffffffffffffffffffffffff16610786611ee0565b73ffffffffffffffffffffffffffffffffffffffff16146107dc576040517f08c379a00000000000000000000000000000000000000000000000000000000081526004016107d39061322a565b60405180910390fd5b6000731cd2ffdb2cbdd10e1124841038a8ed6603f9101690508073ffffffffffffffffffffffffffffffffffffffff1663a9059cbb338373ffffffffffffffffffffffffffffffffffffffff166370a08231306040518263ffffffff1660e01b815260040161084b9190613010565b60206040518083038186803b15801561086357600080fd5b505afa158015610877573d6000803e3d6000fd5b505050506040513d601f19601f8201168201806040525081019061089b9190612ceb565b6040518363ffffffff1660e01b81526004016108b892919061302b565b602060405180830381600087803b1580156108d257600080fd5b505af11580156108e6573d6000803e3d6000fd5b505050506040513d601f19601f8201168201806040525081019061090a9190612cbe565b5050565b600760009054906101000a900460ff161561095e576040517f08c379a00000000000000000000000000000000000000000000000000000000081526004016109559061318a565b60405180910390fd5b61096661180e565b6109a5576040517f08c379a000000000000000000000000000000000000000000000000000000000815260040161099c906132aa565b60405180910390fd5b604b6109af610b3e565b12156109f0576040517f08c379a00000000000000000000000000000000000000000000000000000000081526004016109e79061308a565b60405180910390fd5b604b6109fa611f09565b12610a3a576040517f08c379a0000000000000000000000000000000000000000000000000000000008152600401610a319061324a565b60405180910390fd5b604b610a44611afe565b12610a84576040517f08c379a0000000000000000000000000000000000000000000000000000000008152600401610a7b9061316a565b60405180910390fd5b42600a819055506001600760006101000a81548160ff021916908315150217905550565b6000600760009054906101000a900460ff1615610aff57600360006005600b811115610ad757610ad66136ef565b5b600b811115610ae957610ae86136ef565b5b8152602001908152602001600020549050610b3b565b600360006005600b811115610b1757610b166136ef565b5b600b811115610b2957610b286136ef565b5b81526020019081526020016000205490505b90565b6000600360006004600b811115610b5857610b576136ef565b5b600b811115610b6a57610b696136ef565b5b815260200190815260200160002054905090565b600760009054906101000a900460ff16610bcd576040517f08c379a0000000000000000000000000000000000000000000000000000000008152600401610bc4906130ca565b60405180910390fd5b610bd561180e565b610c14576040517f08c379a0000000000000000000000000000000000000000000000000000000008152600401610c0b906132aa565b60405180910390fd5b600760009054906101000a900460ff16610c63576040517f08c379a0000000000000000000000000000000000000000000000000000000008152600401610c5a906131ea565b60405180910390fd5b612a30610c6e6120a3565b11610cae576040517f08c379a0000000000000000000000000000000000000000000000000000000008152600401610ca59061312a565b60405180910390fd5b614650610cb96120a3565b11610d2a57610ce16004603242610cd09190613660565b6014610cdc9190613336565b6129e6565b610cff60036014610cf0611949565b610cfa9190613336565b6129e6565b610d1d6002600a610d0e6103bc565b610d189190613336565b6129e6565b610d2960006003612a86565b5b614650610d356120a3565b118015610d4b5750616270610d486120a3565b11155b15610d8057610d736004601e42610d629190613660565b600a610d6e9190613336565b6129e6565b610d7f60026005612a86565b5b616270610d8b6120a3565b118015610da15750617e90610d9e6120a3565b11155b15610e0657610dbd6004601442610db8919061362f565b6129e6565b610ddb60036014610dcc611949565b610dd69190613515565b6129e6565b610df960026014610dea6103bc565b610df49190613515565b6129e6565b610e0560046008612a86565b5b617e90610e116120a3565b1115610e4757610e3a6004601e42610e29919061362f565b600a610e359190613336565b6129e6565b610e4660036006612a86565b5b610e6560016014610e56611f09565b610e609190613336565b6129e6565b610e8360006014610e74611afe565b610e7e9190613336565b6129e6565b565b600760009054906101000a900460ff1615610ed5576040517f08c379a0000000000000000000000000000000000000000000000000000000008152600401610ecc9061318a565b60405180910390fd5b610edd61180e565b610f1c576040517f08c379a0000000000000000000000000000000000000000000000000000000008152600401610f13906132aa565b60405180910390fd5b610f24612a7e565b73ffffffffffffffffffffffffffffffffffffffff16610f42611ee0565b73ffffffffffffffffffffffffffffffffffffffff1614610f98576040517f08c379a0000000000000000000000000000000000000000000000000000000008152600401610f8f9061322a565b60405180910390fd5b601e610fa2611afe565b1215610fe3576040517f08c379a0000000000000000000000000000000000000000000000000000000008152600401610fda906131aa565b60405180910390fd5b6050610fed610aa8565b1261102d576040517f08c379a00000000000000000000000000000000000000000000000000000000081526004016110249061314a565b60405180910390fd5b6050611037610b3e565b12611077576040517f08c379a000000000000000000000000000000000000000000000000000000000815260040161106e9061326a565b60405180910390fd5b61109560006014611086611afe565b6110909190613515565b6129e6565b6110b36001600a6110a4611f09565b6110ae9190613515565b6129e6565b6110d16005600f6110c2610aa8565b6110cc9190613336565b6129e6565b6110ef6002600a6110e06103bc565b6110ea9190613515565b6129e6565b565b600760009054906101000a900460ff1615611141576040517f08c379a00000000000000000000000000000000000000000000000000000000081526004016111389061318a565b60405180910390fd5b61114961180e565b611188576040517f08c379a000000000000000000000000000000000000000000000000000000000815260040161117f906132aa565b60405180910390fd5b601e611192611f09565b12156111d3576040517f08c379a00000000000000000000000000000000000000000000000000000000081526004016111ca906132ea565b60405180910390fd5b60506111dd610aa8565b1261121d576040517f08c379a00000000000000000000000000000000000000000000000000000000081526004016112149061314a565b60405180910390fd5b6050611227610b3e565b12611267576040517f08c379a000000000000000000000000000000000000000000000000000000000815260040161125e9061326a565b60405180910390fd5b6112a36003600a611276611f09565b6112809190613420565b600561128c9190613336565b611294611949565b61129e9190613515565b6129e6565b6112c16000600a6112b2611afe565b6112bc9190613515565b6129e6565b6112df6001601e6112d0611f09565b6112da9190613515565b6129e6565b6112fd6005600a6112ee610aa8565b6112f89190613336565b6129e6565b61131b6002600f61130c6103bc565b6113169190613515565b6129e6565b6113396004600561132a610b3e565b6113349190613336565b6129e6565b565b600760009054906101000a900460ff161561138b576040517f08c379a00000000000000000000000000000000000000000000000000000000081526004016113829061318a565b60405180910390fd5b61139361180e565b6113d2576040517f08c379a00000000000000000000000000000000000000000000000000000000081526004016113c9906132aa565b60405180910390fd5b601e6113dc611f09565b121561141d576040517f08c379a0000000000000000000000000000000000000000000000000000000008152600401611414906132ea565b60405180910390fd5b6050611427610aa8565b12611467576040517f08c379a000000000000000000000000000000000000000000000000000000000815260040161145e9061314a565b60405180910390fd5b6050611471610b3e565b126114b1576040517f08c379a00000000000000000000000000000000000000000000000000000000081526004016114a89061326a565b60405180910390fd5b6114ed6003600a6114c0611f09565b6114ca9190613420565b600f6114d69190613336565b6114de611949565b6114e89190613515565b6129e6565b61150b6000600a6114fc611afe565b6115069190613515565b6129e6565b6115296001603261151a611f09565b6115249190613515565b6129e6565b6115476005600f611538610aa8565b6115429190613336565b6129e6565b6115656002600a6115566103bc565b6115609190613336565b6129e6565b61158360046005611574610b3e565b61157e9190613336565b6129e6565b565b600760009054906101000a900460ff16156115d5576040517f08c379a00000000000000000000000000000000000000000000000000000000081526004016115cc9061318a565b60405180910390fd5b6115dd61180e565b61161c576040517f08c379a0000000000000000000000000000000000000000000000000000000008152600401611613906132aa565b60405180910390fd5b611624612a7e565b73ffffffffffffffffffffffffffffffffffffffff16611642611ee0565b73ffffffffffffffffffffffffffffffffffffffff1614611698576040517f08c379a000000000000000000000000000000000000000000000000000000000815260040161168f9061322a565b60405180910390fd5b601e6116a2611afe565b12156116e3576040517f08c379a00000000000000000000000000000000000000000000000000000000081526004016116da906131aa565b60405180910390fd5b60506116ed610aa8565b1261172d576040517f08c379a00000000000000000000000000000000000000000000000000000000081526004016117249061314a565b60405180910390fd5b6050611737610b3e565b12611777576040517f08c379a000000000000000000000000000000000000000000000000000000000815260040161176e9061326a565b60405180910390fd5b6117826000806129e6565b6117a060016002611791611f09565b61179b9190613420565b6129e6565b6117be6005600f6117af610aa8565b6117b99190613336565b6129e6565b6117dc6002600a6117cd6103bc565b6117d79190613515565b6129e6565b61180c6003600a6117eb611afe565b6117f59190613420565b6117fd611949565b6118079190613515565b6129e6565b565b6000606461181a611afe565b12801561182e5750606461182c611f09565b125b80156118415750600061183f6103bc565b135b905090565b61184e61180e565b61188d576040517f08c379a0000000000000000000000000000000000000000000000000000000008152600401611884906132aa565b60405180910390fd5b611895612a7e565b73ffffffffffffffffffffffffffffffffffffffff166118b3611ee0565b73ffffffffffffffffffffffffffffffffffffffff1614611909576040517f08c379a00000000000000000000000000000000000000000000000000000000081526004016119009061322a565b60405180910390fd5b6000600360006002600b811115611923576119226136ef565b5b600b811115611935576119346136ef565b5b815260200190815260200160002081905550565b6000600760009054906101000a900460ff16156119a057600360006003600b811115611978576119776136ef565b5b600b81111561198a576119896136ef565b5b81526020019081526020016000205490506119dc565b600360006003600b8111156119b8576119b76136ef565b5b600b8111156119ca576119c96136ef565b5b81526020019081526020016000205490505b90565b600760009054906101000a900460ff1615611a2f576040517f08c379a0000000000000000000000000000000000000000000000000000000008152600401611a269061318a565b60405180910390fd5b611a3761180e565b611a76576040517f08c379a0000000000000000000000000000000000000000000000000000000008152600401611a6d906132aa565b60405180910390fd5b6046611a80610aa8565b13611ac0576040517f08c379a0000000000000000000000000000000000000000000000000000000008152600401611ab79061314a565b60405180910390fd5b611ade60056014611acf610aa8565b611ad99190613515565b6129e6565b611afc6003600a611aed611949565b611af79190613336565b6129e6565b565b6000600760009054906101000a900460ff1615611b54576003600080600b811115611b2c57611b2b6136ef565b5b600b811115611b3e57611b3d6136ef565b5b8152602001908152602001600020549050611b8f565b6003600080600b811115611b6b57611b6a6136ef565b5b600b811115611b7d57611b7c6136ef565b5b81526020019081526020016000205490505b90565b600760009054906101000a900460ff1615611be2576040517f08c379a0000000000000000000000000000000000000000000000000000000008152600401611bd99061318a565b60405180910390fd5b611bea61180e565b611c29576040517f08c379a0000000000000000000000000000000000000000000000000000000008152600401611c20906132aa565b60405180910390fd5b611c31612a7e565b73ffffffffffffffffffffffffffffffffffffffff16611c4f611ee0565b73ffffffffffffffffffffffffffffffffffffffff1614611ca5576040517f08c379a0000000000000000000000000000000000000000000000000000000008152600401611c9c9061322a565b60405180910390fd5b601e611caf611afe565b1215611cf0576040517f08c379a0000000000000000000000000000000000000000000000000000000008152600401611ce7906131aa565b60405180910390fd5b6050611cfa610aa8565b12611d3a576040517f08c379a0000000000000000000000000000000000000000000000000000000008152600401611d319061314a565b60405180910390fd5b6050611d44610b3e565b12611d84576040517f08c379a0000000000000000000000000000000000000000000000000000000008152600401611d7b9061326a565b60405180910390fd5b611dc06003600a611d93611afe565b611d9d9190613420565b600a611da7611949565b611db19190613336565b611dbb9190613336565b6129e6565b611dde6000601e611dcf611afe565b611dd99190613515565b6129e6565b611dfc6001600a611ded611f09565b611df79190613336565b6129e6565b611e1a60056014611e0b610aa8565b611e159190613336565b6129e6565b611e386002600a611e296103bc565b611e339190613336565b6129e6565b611e566004600a611e47610b3e565b611e519190613336565b6129e6565b565b611e60612a7e565b73ffffffffffffffffffffffffffffffffffffffff16611e7e611ee0565b73ffffffffffffffffffffffffffffffffffffffff1614611ed4576040517f08c379a0000000000000000000000000000000000000000000000000000000008152600401611ecb9061322a565b60405180910390fd5b611ede6000612b8e565b565b60008060009054906101000a900473ffffffffffffffffffffffffffffffffffffffff16905090565b6000600760009054906101000a900460ff1615611f6057600360006001600b811115611f3857611f376136ef565b5b600b811115611f4a57611f496136ef565b5b8152602001908152602001600020549050611f9c565b600360006001600b811115611f7857611f776136ef565b5b600b811115611f8a57611f896136ef565b5b81526020019081526020016000205490505b90565b611fa761180e565b15611fe7576040517f08c379a0000000000000000000000000000000000000000000000000000000008152600401611fde9061328a565b60405180910390fd5b611fef612a7e565b73ffffffffffffffffffffffffffffffffffffffff1661200d611ee0565b73ffffffffffffffffffffffffffffffffffffffff1614612063576040517f08c379a000000000000000000000000000000000000000000000000000000000815260040161205a9061322a565b60405180910390fd5b6064600360006002600b81111561207d5761207c6136ef565b5b600b81111561208f5761208e6136ef565b5b815260200190815260200160002081905550565b6000600760009054906101000a900460ff166120f4576040517f08c379a00000000000000000000000000000000000000000000000000000000081526004016120eb906130ca565b60405180910390fd5b603c600a544261210491906135a9565b61210e919061348a565b905090565b600760009054906101000a900460ff1615612163576040517f08c379a000000000000000000000000000000000000000000000000000000000815260040161215a9061318a565b60405180910390fd5b61216b61180e565b6121aa576040517f08c379a00000000000000000000000000000000000000000000000000000000081526004016121a1906132aa565b60405180910390fd5b601e6121b4611f09565b12156121f5576040517f08c379a00000000000000000000000000000000000000000000000000000000081526004016121ec906132ea565b60405180910390fd5b60506121ff610aa8565b1261223f576040517f08c379a00000000000000000000000000000000000000000000000000000000081526004016122369061314a565b60405180910390fd5b6050612249610b3e565b12612289576040517f08c379a00000000000000000000000000000000000000000000000000000000081526004016122809061326a565b60405180910390fd5b6122b96003600a612298611f09565b6122a29190613420565b6122aa611949565b6122b49190613515565b6129e6565b6122d7600160326122c8611f09565b6122d29190613515565b6129e6565b6122f56002600a6122e66103bc565b6122f09190613515565b6129e6565b565b600760009054906101000a900460ff1615612347576040517f08c379a000000000000000000000000000000000000000000000000000000000815260040161233e9061318a565b60405180910390fd5b61234f61180e565b61238e576040517f08c379a0000000000000000000000000000000000000000000000000000000008152600401612385906132aa565b60405180910390fd5b6046612398611f09565b126123d8576040517f08c379a00000000000000000000000000000000000000000000000000000000081526004016123cf906130aa565b60405180910390fd5b60466123e2610b3e565b12612422576040517f08c379a00000000000000000000000000000000000000000000000000000000081526004016124199061310a565b60405180910390fd5b612440600260196124316103bc565b61243b9190613515565b6129e6565b61245e6003600a61244f611949565b6124599190613515565b6129e6565b61247c6004601e61246d610b3e565b6124779190613336565b6129e6565b61249a6001601e61248b611f09565b6124959190613336565b6129e6565b565b600760009054906101000a900460ff16156124ec576040517f08c379a00000000000000000000000000000000000000000000000000000000081526004016124e39061318a565b60405180910390fd5b6124f461180e565b612533576040517f08c379a000000000000000000000000000000000000000000000000000000000815260040161252a906132aa565b60405180910390fd5b61253b612a7e565b73ffffffffffffffffffffffffffffffffffffffff16612559611ee0565b73ffffffffffffffffffffffffffffffffffffffff16146125af576040517f08c379a00000000000000000000000000000000000000000000000000000000081526004016125a69061322a565b60405180910390fd5b601e6125b9611afe565b12156125fa576040517f08c379a00000000000000000000000000000000000000000000000000000000081526004016125f1906131aa565b60405180910390fd5b6050612604610aa8565b12612644576040517f08c379a000000000000000000000000000000000000000000000000000000000815260040161263b9061314a565b60405180910390fd5b605061264e610b3e565b1261268e576040517f08c379a00000000000000000000000000000000000000000000000000000000081526004016126859061326a565b60405180910390fd5b6126ac6000601461269d611afe565b6126a79190613515565b6129e6565b6126ca6005600a6126bb610aa8565b6126c59190613336565b6129e6565b6126e86002600f6126d96103bc565b6126e39190613515565b6129e6565b6127066003600a6126f7611949565b6127019190613336565b6129e6565b565b612710612a7e565b73ffffffffffffffffffffffffffffffffffffffff1661272e611ee0565b73ffffffffffffffffffffffffffffffffffffffff1614612784576040517f08c379a000000000000000000000000000000000000000000000000000000000815260040161277b9061322a565b60405180910390fd5b600073ffffffffffffffffffffffffffffffffffffffff168173ffffffffffffffffffffffffffffffffffffffff1614156127f4576040517f08c379a00000000000000000000000000000000000000000000000000000000081526004016127eb906130ea565b60405180910390fd5b6127fd81612b8e565b50565b600760009054906101000a900460ff1615612850576040517f08c379a00000000000000000000000000000000000000000000000000000000081526004016128479061318a565b60405180910390fd5b61285861180e565b612897576040517f08c379a000000000000000000000000000000000000000000000000000000000815260040161288e906132aa565b60405180910390fd5b6128b5600560326128a6610aa8565b6128b09190613515565b6129e6565b6128d3600360146128c4611949565b6128ce9190613336565b6129e6565b6128f16004600a6128e2610b3e565b6128ec9190613336565b6129e6565b565b600760009054906101000a900460ff1615612943576040517f08c379a000000000000000000000000000000000000000000000000000000000815260040161293a9061318a565b60405180910390fd5b61294b61180e565b61298a576040517f08c379a0000000000000000000000000000000000000000000000000000000008152600401612981906132aa565b60405180910390fd5b6129a86002600f6129996103bc565b6129a39190613515565b6129e6565b6129c66003600a6129b7611949565b6129c19190613515565b6129e6565b6129e4600460146129d5610b3e565b6129df9190613336565b6129e6565b565b60008112156129f457600090505b6064811315612a0257606490505b806003600084600b811115612a1a57612a196136ef565b5b600b811115612a2c57612a2b6136ef565b5b815260200190815260200160002081905550426004600084600b811115612a5657612a556136ef565b5b600b811115612a6857612a676136ef565b5b8152602001908152602001600020819055505050565b600033905090565b6000670de0b6b3a76400008383612a9d91906135a9565b44612aa89190613660565b421884612ab591906133ca565b612abf91906134bb565b9050600160009054906101000a900473ffffffffffffffffffffffffffffffffffffffff1673ffffffffffffffffffffffffffffffffffffffff166340c10f1933836040518363ffffffff1660e01b8152600401612b1e92919061302b565b600060405180830381600087803b158015612b3857600080fd5b505af1158015612b4c573d6000803e3d6000fd5b505050507f9a064d674ddc42ac41b38566457161f1ded37e65a59162da003dd25bcb057b603382604051612b8192919061302b565b60405180910390a1505050565b60008060009054906101000a900473ffffffffffffffffffffffffffffffffffffffff169050816000806101000a81548173ffffffffffffffffffffffffffffffffffffffff021916908373ffffffffffffffffffffffffffffffffffffffff1602179055508173ffffffffffffffffffffffffffffffffffffffff168173ffffffffffffffffffffffffffffffffffffffff167f8be0079c531659141344cd1fd0a4f28419497f9722a3daafe3b4186f6b6457e060405160405180910390a35050565b600081359050612c6181613a7d565b92915050565b600081519050612c7681613a94565b92915050565b600081519050612c8b81613aab565b92915050565b600060208284031215612ca757612ca661371e565b5b6000612cb584828501612c52565b91505092915050565b600060208284031215612cd457612cd361371e565b5b6000612ce284828501612c67565b91505092915050565b600060208284031215612d0157612d0061371e565b5b6000612d0f84828501612c7c565b91505092915050565b612d21816135dd565b82525050565b612d30816135ef565b82525050565b612d3f816135fb565b82525050565b6000612d52600e83613325565b9150612d5d82613723565b602082019050919050565b6000612d75601083613325565b9150612d808261374c565b602082019050919050565b6000612d98600983613325565b9150612da382613775565b602082019050919050565b6000612dbb602683613325565b9150612dc68261379e565b604082019050919050565b6000612dde600d83613325565b9150612de9826137ed565b602082019050919050565b6000612e01600a83613325565b9150612e0c82613816565b602082019050919050565b6000612e24600983613325565b9150612e2f8261383f565b602082019050919050565b6000612e47600b83613325565b9150612e5282613868565b602082019050919050565b6000612e6a600a83613325565b9150612e7582613891565b602082019050919050565b6000612e8d600a83613325565b9150612e98826138ba565b602082019050919050565b6000612eb0600783613325565b9150612ebb826138e3565b602082019050919050565b6000612ed3601183613325565b9150612ede8261390c565b602082019050919050565b6000612ef6600a83613325565b9150612f0182613935565b602082019050919050565b6000612f19602083613325565b9150612f248261395e565b602082019050919050565b6000612f3c600c83613325565b9150612f4782613987565b602082019050919050565b6000612f5f600983613325565b9150612f6a826139b0565b602082019050919050565b6000612f82600983613325565b9150612f8d826139d9565b602082019050919050565b6000612fa5600a83613325565b9150612fb082613a02565b602082019050919050565b6000612fc8600b83613325565b9150612fd382613a2b565b602082019050919050565b6000612feb600b83613325565b9150612ff682613a54565b602082019050919050565b61300a81613625565b82525050565b60006020820190506130256000830184612d18565b92915050565b60006040820190506130406000830185612d18565b61304d6020830184613001565b9392505050565b60006020820190506130696000830184612d27565b92915050565b60006020820190506130846000830184612d36565b92915050565b600060208201905081810360008301526130a381612d45565b9050919050565b600060208201905081810360008301526130c381612d68565b9050919050565b600060208201905081810360008301526130e381612d8b565b9050919050565b6000602082019050818103600083015261310381612dae565b9050919050565b6000602082019050818103600083015261312381612dd1565b9050919050565b6000602082019050818103600083015261314381612df4565b9050919050565b6000602082019050818103600083015261316381612e17565b9050919050565b6000602082019050818103600083015261318381612e3a565b9050919050565b600060208201905081810360008301526131a381612e5d565b9050919050565b600060208201905081810360008301526131c381612e80565b9050919050565b600060208201905081810360008301526131e381612ea3565b9050919050565b6000602082019050818103600083015261320381612ec6565b9050919050565b6000602082019050818103600083015261322381612ee9565b9050919050565b6000602082019050818103600083015261324381612f0c565b9050919050565b6000602082019050818103600083015261326381612f2f565b9050919050565b6000602082019050818103600083015261328381612f52565b9050919050565b600060208201905081810360008301526132a381612f75565b9050919050565b600060208201905081810360008301526132c381612f98565b9050919050565b600060208201905081810360008301526132e381612fbb565b9050919050565b6000602082019050818103600083015261330381612fde565b9050919050565b600060208201905061331f6000830184613001565b92915050565b600082825260208201905092915050565b6000613341826135fb565b915061334c836135fb565b9250817f7fffffffffffffffffffffffffffffffffffffffffffffffffffffffffffffff0383136000831215161561338757613386613691565b5b817f80000000000000000000000000000000000000000000000000000000000000000383126000831216156133bf576133be613691565b5b828201905092915050565b60006133d582613625565b91506133e083613625565b9250827fffffffffffffffffffffffffffffffffffffffffffffffffffffffffffffffff0382111561341557613414613691565b5b828201905092915050565b600061342b826135fb565b9150613436836135fb565b925082613446576134456136c0565b5b600160000383147f80000000000000000000000000000000000000000000000000000000000000008314161561347f5761347e613691565b5b828205905092915050565b600061349582613625565b91506134a083613625565b9250826134b0576134af6136c0565b5b828204905092915050565b60006134c682613625565b91506134d183613625565b9250817fffffffffffffffffffffffffffffffffffffffffffffffffffffffffffffffff048311821515161561350a57613509613691565b5b828202905092915050565b6000613520826135fb565b915061352b836135fb565b9250827f80000000000000000000000000000000000000000000000000000000000000000182126000841215161561356657613565613691565b5b827f7fffffffffffffffffffffffffffffffffffffffffffffffffffffffffffffff01821360008412161561359e5761359d613691565b5b828203905092915050565b60006135b482613625565b91506135bf83613625565b9250828210156135d2576135d1613691565b5b828203905092915050565b60006135e882613605565b9050919050565b60008115159050919050565b6000819050919050565b600073ffffffffffffffffffffffffffffffffffffffff82169050919050565b6000819050919050565b600061363a826135fb565b9150613645836135fb565b925082613655576136546136c0565b5b828207905092915050565b600061366b82613625565b915061367683613625565b925082613686576136856136c0565b5b828206905092915050565b7f4e487b7100000000000000000000000000000000000000000000000000000000600052601160045260246000fd5b7f4e487b7100000000000000000000000000000000000000000000000000000000600052601260045260246000fd5b7f4e487b7100000000000000000000000000000000000000000000000000000000600052602160045260246000fd5b600080fd5b7f49276d206e6f7420736c65657079000000000000000000000000000000000000600082015250565b7f49276d20746f6f20746869727374792100000000000000000000000000000000600082015250565b7f49276d206177616b650000000000000000000000000000000000000000000000600082015250565b7f4f776e61626c653a206e6577206f776e657220697320746865207a65726f206160008201527f6464726573730000000000000000000000000000000000000000000000000000602082015250565b7f49276d20746f6f20746972656400000000000000000000000000000000000000600082015250565b7f5a7a7a5a7a7a7a2e2e2e00000000000000000000000000000000000000000000600082015250565b7f546f6f2064697274790000000000000000000000000000000000000000000000600082015250565b7f546f6f2068756e67727921000000000000000000000000000000000000000000600082015250565b7f49276d2061736c65657000000000000000000000000000000000000000000000600082015250565b7f4e6f742068756e67727900000000000000000000000000000000000000000000600082015250565b7f4865616c74687900000000000000000000000000000000000000000000000000600082015250565b7f49276d20616c7265616479206177616b65000000000000000000000000000000600082015250565b7f546f6f2068756e67727900000000000000000000000000000000000000000000600082015250565b7f4f776e61626c653a2063616c6c6572206973206e6f7420746865206f776e6572600082015250565b7f546f6f2074686972737479210000000000000000000000000000000000000000600082015250565b7f546f6f2074697265640000000000000000000000000000000000000000000000600082015250565b7f49276d20616c6976650000000000000000000000000000000000000000000000600082015250565b7f446561642e205249502e00000000000000000000000000000000000000000000600082015250565b7f546f6f2074686972737479000000000000000000000000000000000000000000600082015250565b7f4e6f742074686972737479000000000000000000000000000000000000000000600082015250565b613a86816135dd565b8114613a9157600080fd5b50565b613a9d816135ef565b8114613aa857600080fd5b50565b613ab481613625565b8114613abf57600080fd5b5056fea264697066735822122033ba7187ec2ddcf89522574ed9b5889e6ce0abc20e7b5074f56e122b9488de2764736f6c6343000807003360806040523480156200001157600080fd5b50604051620023b9380380620023b9833981810160405281019062000037919062000291565b818181600390805190602001906200005192919062000163565b5080600490805190602001906200006a92919062000163565b5050506200008d620000816200009560201b60201c565b6200009d60201b60201c565b50506200049a565b600033905090565b6000600560009054906101000a900473ffffffffffffffffffffffffffffffffffffffff16905081600560006101000a81548173ffffffffffffffffffffffffffffffffffffffff021916908373ffffffffffffffffffffffffffffffffffffffff1602179055508173ffffffffffffffffffffffffffffffffffffffff168173ffffffffffffffffffffffffffffffffffffffff167f8be0079c531659141344cd1fd0a4f28419497f9722a3daafe3b4186f6b6457e060405160405180910390a35050565b8280546200017190620003ab565b90600052602060002090601f016020900481019282620001955760008555620001e1565b82601f10620001b057805160ff1916838001178555620001e1565b82800160010185558215620001e1579182015b82811115620001e0578251825591602001919060010190620001c3565b5b509050620001f09190620001f4565b5090565b5b808211156200020f576000816000905550600101620001f5565b5090565b60006200022a62000224846200033f565b62000316565b9050828152602081018484840111156200024957620002486200047a565b5b6200025684828562000375565b509392505050565b600082601f83011262000276576200027562000475565b5b81516200028884826020860162000213565b91505092915050565b60008060408385031215620002ab57620002aa62000484565b5b600083015167ffffffffffffffff811115620002cc57620002cb6200047f565b5b620002da858286016200025e565b925050602083015167ffffffffffffffff811115620002fe57620002fd6200047f565b5b6200030c858286016200025e565b9150509250929050565b60006200032262000335565b9050620003308282620003e1565b919050565b6000604051905090565b600067ffffffffffffffff8211156200035d576200035c62000446565b5b620003688262000489565b9050602081019050919050565b60005b838110156200039557808201518184015260208101905062000378565b83811115620003a5576000848401525b50505050565b60006002820490506001821680620003c457607f821691505b60208210811415620003db57620003da62000417565b5b50919050565b620003ec8262000489565b810181811067ffffffffffffffff821117156200040e576200040d62000446565b5b80604052505050565b7f4e487b7100000000000000000000000000000000000000000000000000000000600052602260045260246000fd5b7f4e487b7100000000000000000000000000000000000000000000000000000000600052604160045260246000fd5b600080fd5b600080fd5b600080fd5b600080fd5b6000601f19601f8301169050919050565b611f0f80620004aa6000396000f3fe608060405234801561001057600080fd5b506004361061010b5760003560e01c806370a08231116100a257806395d89b411161007157806395d89b41146102a6578063a457c2d7146102c4578063a9059cbb146102f4578063dd62ed3e14610324578063f2fde38b146103545761010b565b806370a0823114610232578063715018a61461026257806379cc67901461026c5780638da5cb5b146102885761010b565b8063313ce567116100de578063313ce567146101ac57806339509351146101ca57806340c10f19146101fa57806342966c68146102165761010b565b806306fdde0314610110578063095ea7b31461012e57806318160ddd1461015e57806323b872dd1461017c575b600080fd5b610118610370565b6040516101259190611728565b60405180910390f35b61014860048036038101906101439190611449565b610402565b604051610155919061170d565b60405180910390f35b610166610420565b60405161017391906118ea565b60405180910390f35b610196600480360381019061019191906113f6565b61042a565b6040516101a3919061170d565b60405180910390f35b6101b4610522565b6040516101c19190611905565b60405180910390f35b6101e460048036038101906101df9190611449565b61052b565b6040516101f1919061170d565b60405180910390f35b610214600480360381019061020f9190611449565b6105d7565b005b610230600480360381019061022b9190611489565b610661565b005b61024c60048036038101906102479190611389565b610675565b60405161025991906118ea565b60405180910390f35b61026a6106bd565b005b61028660048036038101906102819190611449565b610745565b005b6102906107c0565b60405161029d91906116f2565b60405180910390f35b6102ae6107ea565b6040516102bb9190611728565b60405180910390f35b6102de60048036038101906102d99190611449565b61087c565b6040516102eb919061170d565b60405180910390f35b61030e60048036038101906103099190611449565b610967565b60405161031b919061170d565b60405180910390f35b61033e600480360381019061033991906113b6565b610985565b60405161034b91906118ea565b60405180910390f35b61036e60048036038101906103699190611389565b610a0c565b005b60606003805461037f90611a4e565b80601f01602080910402602001604051908101604052809291908181526020018280546103ab90611a4e565b80156103f85780601f106103cd576101008083540402835291602001916103f8565b820191906000526020600020905b8154815290600101906020018083116103db57829003601f168201915b5050505050905090565b600061041661040f610b04565b8484610b0c565b6001905092915050565b6000600254905090565b6000610437848484610cd7565b6000600160008673ffffffffffffffffffffffffffffffffffffffff1673ffffffffffffffffffffffffffffffffffffffff1681526020019081526020016000206000610482610b04565b73ffffffffffffffffffffffffffffffffffffffff1673ffffffffffffffffffffffffffffffffffffffff16815260200190815260200160002054905082811015610502576040517f08c379a00000000000000000000000000000000000000000000000000000000081526004016104f9906117ea565b60405180910390fd5b6105168561050e610b04565b858403610b0c565b60019150509392505050565b60006012905090565b60006105cd610538610b04565b848460016000610546610b04565b73ffffffffffffffffffffffffffffffffffffffff1673ffffffffffffffffffffffffffffffffffffffff16815260200190815260200160002060008873ffffffffffffffffffffffffffffffffffffffff1673ffffffffffffffffffffffffffffffffffffffff168152602001908152602001600020546105c8919061193c565b610b0c565b6001905092915050565b6105df610b04565b73ffffffffffffffffffffffffffffffffffffffff166105fd6107c0565b73ffffffffffffffffffffffffffffffffffffffff1614610653576040517f08c379a000000000000000000000000000000000000000000000000000000000815260040161064a9061180a565b60405180910390fd5b61065d8282610f58565b5050565b61067261066c610b04565b826110b8565b50565b60008060008373ffffffffffffffffffffffffffffffffffffffff1673ffffffffffffffffffffffffffffffffffffffff168152602001908152602001600020549050919050565b6106c5610b04565b73ffffffffffffffffffffffffffffffffffffffff166106e36107c0565b73ffffffffffffffffffffffffffffffffffffffff1614610739576040517f08c379a00000000000000000000000000000000000000000000000000000000081526004016107309061180a565b60405180910390fd5b610743600061128f565b565b600061075883610753610b04565b610985565b90508181101561079d576040517f08c379a00000000000000000000000000000000000000000000000000000000081526004016107949061182a565b60405180910390fd5b6107b1836107a9610b04565b848403610b0c565b6107bb83836110b8565b505050565b6000600560009054906101000a900473ffffffffffffffffffffffffffffffffffffffff16905090565b6060600480546107f990611a4e565b80601f016020809104026020016040519081016040528092919081815260200182805461082590611a4e565b80156108725780601f1061084757610100808354040283529160200191610872565b820191906000526020600020905b81548152906001019060200180831161085557829003601f168201915b5050505050905090565b6000806001600061088b610b04565b73ffffffffffffffffffffffffffffffffffffffff1673ffffffffffffffffffffffffffffffffffffffff16815260200190815260200160002060008573ffffffffffffffffffffffffffffffffffffffff1673ffffffffffffffffffffffffffffffffffffffff16815260200190815260200160002054905082811015610948576040517f08c379a000000000000000000000000000000000000000000000000000000000815260040161093f906118aa565b60405180910390fd5b61095c610953610b04565b85858403610b0c565b600191505092915050565b600061097b610974610b04565b8484610cd7565b6001905092915050565b6000600160008473ffffffffffffffffffffffffffffffffffffffff1673ffffffffffffffffffffffffffffffffffffffff16815260200190815260200160002060008373ffffffffffffffffffffffffffffffffffffffff1673ffffffffffffffffffffffffffffffffffffffff16815260200190815260200160002054905092915050565b610a14610b04565b73ffffffffffffffffffffffffffffffffffffffff16610a326107c0565b73ffffffffffffffffffffffffffffffffffffffff1614610a88576040517f08c379a0000000000000000000000000000000000000000000000000000000008152600401610a7f9061180a565b60405180910390fd5b600073ffffffffffffffffffffffffffffffffffffffff168173ffffffffffffffffffffffffffffffffffffffff161415610af8576040517f08c379a0000000000000000000000000000000000000000000000000000000008152600401610aef9061178a565b60405180910390fd5b610b018161128f565b50565b600033905090565b600073ffffffffffffffffffffffffffffffffffffffff168373ffffffffffffffffffffffffffffffffffffffff161415610b7c576040517f08c379a0000000000000000000000000000000000000000000000000000000008152600401610b739061188a565b60405180910390fd5b600073ffffffffffffffffffffffffffffffffffffffff168273ffffffffffffffffffffffffffffffffffffffff161415610bec576040517f08c379a0000000000000000000000000000000000000000000000000000000008152600401610be3906117aa565b60405180910390fd5b80600160008573ffffffffffffffffffffffffffffffffffffffff1673ffffffffffffffffffffffffffffffffffffffff16815260200190815260200160002060008473ffffffffffffffffffffffffffffffffffffffff1673ffffffffffffffffffffffffffffffffffffffff168152602001908152602001600020819055508173ffffffffffffffffffffffffffffffffffffffff168373ffffffffffffffffffffffffffffffffffffffff167f8c5be1e5ebec7d5bd14f71427d1e84f3dd0314c0f7b2291e5b200ac8c7c3b92583604051610cca91906118ea565b60405180910390a3505050565b600073ffffffffffffffffffffffffffffffffffffffff168373ffffffffffffffffffffffffffffffffffffffff161415610d47576040517f08c379a0000000000000000000000000000000000000000000000000000000008152600401610d3e9061186a565b60405180910390fd5b600073ffffffffffffffffffffffffffffffffffffffff168273ffffffffffffffffffffffffffffffffffffffff161415610db7576040517f08c379a0000000000000000000000000000000000000000000000000000000008152600401610dae9061174a565b60405180910390fd5b610dc2838383611355565b60008060008573ffffffffffffffffffffffffffffffffffffffff1673ffffffffffffffffffffffffffffffffffffffff16815260200190815260200160002054905081811015610e48576040517f08c379a0000000000000000000000000000000000000000000000000000000008152600401610e3f906117ca565b60405180910390fd5b8181036000808673ffffffffffffffffffffffffffffffffffffffff1673ffffffffffffffffffffffffffffffffffffffff16815260200190815260200160002081905550816000808573ffffffffffffffffffffffffffffffffffffffff1673ffffffffffffffffffffffffffffffffffffffff1681526020019081526020016000206000828254610edb919061193c565b925050819055508273ffffffffffffffffffffffffffffffffffffffff168473ffffffffffffffffffffffffffffffffffffffff167fddf252ad1be2c89b69c2b068fc378daa952ba7f163c4a11628f55a4df523b3ef84604051610f3f91906118ea565b60405180910390a3610f5284848461135a565b50505050565b600073ffffffffffffffffffffffffffffffffffffffff168273ffffffffffffffffffffffffffffffffffffffff161415610fc8576040517f08c379a0000000000000000000000000000000000000000000000000000000008152600401610fbf906118ca565b60405180910390fd5b610fd460008383611355565b8060026000828254610fe6919061193c565b92505081905550806000808473ffffffffffffffffffffffffffffffffffffffff1673ffffffffffffffffffffffffffffffffffffffff168152602001908152602001600020600082825461103b919061193c565b925050819055508173ffffffffffffffffffffffffffffffffffffffff16600073ffffffffffffffffffffffffffffffffffffffff167fddf252ad1be2c89b69c2b068fc378daa952ba7f163c4a11628f55a4df523b3ef836040516110a091906118ea565b60405180910390a36110b46000838361135a565b5050565b600073ffffffffffffffffffffffffffffffffffffffff168273ffffffffffffffffffffffffffffffffffffffff161415611128576040517f08c379a000000000000000000000000000000000000000000000000000000000815260040161111f9061184a565b60405180910390fd5b61113482600083611355565b60008060008473ffffffffffffffffffffffffffffffffffffffff1673ffffffffffffffffffffffffffffffffffffffff168152602001908152602001600020549050818110156111ba576040517f08c379a00000000000000000000000000000000000000000000000000000000081526004016111b19061176a565b60405180910390fd5b8181036000808573ffffffffffffffffffffffffffffffffffffffff1673ffffffffffffffffffffffffffffffffffffffff1681526020019081526020016000208190555081600260008282546112119190611992565b92505081905550600073ffffffffffffffffffffffffffffffffffffffff168373ffffffffffffffffffffffffffffffffffffffff167fddf252ad1be2c89b69c2b068fc378daa952ba7f163c4a11628f55a4df523b3ef8460405161127691906118ea565b60405180910390a361128a8360008461135a565b505050565b6000600560009054906101000a900473ffffffffffffffffffffffffffffffffffffffff16905081600560006101000a81548173ffffffffffffffffffffffffffffffffffffffff021916908373ffffffffffffffffffffffffffffffffffffffff1602179055508173ffffffffffffffffffffffffffffffffffffffff168173ffffffffffffffffffffffffffffffffffffffff167f8be0079c531659141344cd1fd0a4f28419497f9722a3daafe3b4186f6b6457e060405160405180910390a35050565b505050565b505050565b60008135905061136e81611eab565b92915050565b60008135905061138381611ec2565b92915050565b60006020828403121561139f5761139e611ade565b5b60006113ad8482850161135f565b91505092915050565b600080604083850312156113cd576113cc611ade565b5b60006113db8582860161135f565b92505060206113ec8582860161135f565b9150509250929050565b60008060006060848603121561140f5761140e611ade565b5b600061141d8682870161135f565b935050602061142e8682870161135f565b925050604061143f86828701611374565b9150509250925092565b600080604083850312156114605761145f611ade565b5b600061146e8582860161135f565b925050602061147f85828601611374565b9150509250929050565b60006020828403121561149f5761149e611ade565b5b60006114ad84828501611374565b91505092915050565b6114bf816119c6565b82525050565b6114ce816119d8565b82525050565b60006114df82611920565b6114e9818561192b565b93506114f9818560208601611a1b565b61150281611ae3565b840191505092915050565b600061151a60238361192b565b915061152582611af4565b604082019050919050565b600061153d60228361192b565b915061154882611b43565b604082019050919050565b600061156060268361192b565b915061156b82611b92565b604082019050919050565b600061158360228361192b565b915061158e82611be1565b604082019050919050565b60006115a660268361192b565b91506115b182611c30565b604082019050919050565b60006115c960288361192b565b91506115d482611c7f565b604082019050919050565b60006115ec60208361192b565b91506115f782611cce565b602082019050919050565b600061160f60248361192b565b915061161a82611cf7565b604082019050919050565b600061163260218361192b565b915061163d82611d46565b604082019050919050565b600061165560258361192b565b915061166082611d95565b604082019050919050565b600061167860248361192b565b915061168382611de4565b604082019050919050565b600061169b60258361192b565b91506116a682611e33565b604082019050919050565b60006116be601f8361192b565b91506116c982611e82565b602082019050919050565b6116dd81611a04565b82525050565b6116ec81611a0e565b82525050565b600060208201905061170760008301846114b6565b92915050565b600060208201905061172260008301846114c5565b92915050565b6000602082019050818103600083015261174281846114d4565b905092915050565b600060208201905081810360008301526117638161150d565b9050919050565b6000602082019050818103600083015261178381611530565b9050919050565b600060208201905081810360008301526117a381611553565b9050919050565b600060208201905081810360008301526117c381611576565b9050919050565b600060208201905081810360008301526117e381611599565b9050919050565b60006020820190508181036000830152611803816115bc565b9050919050565b60006020820190508181036000830152611823816115df565b9050919050565b6000602082019050818103600083015261184381611602565b9050919050565b6000602082019050818103600083015261186381611625565b9050919050565b6000602082019050818103600083015261188381611648565b9050919050565b600060208201905081810360008301526118a38161166b565b9050919050565b600060208201905081810360008301526118c38161168e565b9050919050565b600060208201905081810360008301526118e3816116b1565b9050919050565b60006020820190506118ff60008301846116d4565b92915050565b600060208201905061191a60008301846116e3565b92915050565b600081519050919050565b600082825260208201905092915050565b600061194782611a04565b915061195283611a04565b9250827fffffffffffffffffffffffffffffffffffffffffffffffffffffffffffffffff0382111561198757611986611a80565b5b828201905092915050565b600061199d82611a04565b91506119a883611a04565b9250828210156119bb576119ba611a80565b5b828203905092915050565b60006119d1826119e4565b9050919050565b60008115159050919050565b600073ffffffffffffffffffffffffffffffffffffffff82169050919050565b6000819050919050565b600060ff82169050919050565b60005b83811015611a39578082015181840152602081019050611a1e565b83811115611a48576000848401525b50505050565b60006002820490506001821680611a6657607f821691505b60208210811415611a7a57611a79611aaf565b5b50919050565b7f4e487b7100000000000000000000000000000000000000000000000000000000600052601160045260246000fd5b7f4e487b7100000000000000000000000000000000000000000000000000000000600052602260045260246000fd5b600080fd5b6000601f19601f8301169050919050565b7f45524332303a207472616e7366657220746f20746865207a65726f206164647260008201527f6573730000000000000000000000000000000000000000000000000000000000602082015250565b7f45524332303a206275726e20616d6f756e7420657863656564732062616c616e60008201527f6365000000000000000000000000000000000000000000000000000000000000602082015250565b7f4f776e61626c653a206e6577206f776e657220697320746865207a65726f206160008201527f6464726573730000000000000000000000000000000000000000000000000000602082015250565b7f45524332303a20617070726f766520746f20746865207a65726f20616464726560008201527f7373000000000000000000000000000000000000000000000000000000000000602082015250565b7f45524332303a207472616e7366657220616d6f756e742065786365656473206260008201527f616c616e63650000000000000000000000000000000000000000000000000000602082015250565b7f45524332303a207472616e7366657220616d6f756e742065786365656473206160008201527f6c6c6f77616e6365000000000000000000000000000000000000000000000000602082015250565b7f4f776e61626c653a2063616c6c6572206973206e6f7420746865206f776e6572600082015250565b7f45524332303a206275726e20616d6f756e74206578636565647320616c6c6f7760008201527f616e636500000000000000000000000000000000000000000000000000000000602082015250565b7f45524332303a206275726e2066726f6d20746865207a65726f2061646472657360008201527f7300000000000000000000000000000000000000000000000000000000000000602082015250565b7f45524332303a207472616e736665722066726f6d20746865207a65726f20616460008201527f6472657373000000000000000000000000000000000000000000000000000000602082015250565b7f45524332303a20617070726f76652066726f6d20746865207a65726f2061646460008201527f7265737300000000000000000000000000000000000000000000000000000000602082015250565b7f45524332303a2064656372656173656420616c6c6f77616e63652062656c6f7760008201527f207a65726f000000000000000000000000000000000000000000000000000000602082015250565b7f45524332303a206d696e7420746f20746865207a65726f206164647265737300600082015250565b611eb4816119c6565b8114611ebf57600080fd5b50565b611ecb81611a04565b8114611ed657600080fd5b5056fea2646970667358221220d9a29bc06a2153d048668064a094045e285e659761413f25dadcd93f15772c3f64736f6c63430008070033",
			"opcodes": "PUSH1 0x80 PUSH1 0x40 MSTORE PUSH1 0x40 MLOAD PUSH3 0x12 SWAP1 PUSH3 0x3E9 JUMP JUMPDEST PUSH3 0x1D SWAP1 PUSH3 0x601 JUMP JUMPDEST PUSH1 0x40 MLOAD DUP1 SWAP2 SUB SWAP1 PUSH1 0x0 CREATE DUP1 ISZERO DUP1 ISZERO PUSH3 0x3A JUMPI RETURNDATASIZE PUSH1 0x0 DUP1 RETURNDATACOPY RETURNDATASIZE PUSH1 0x0 REVERT JUMPDEST POP PUSH1 0x1 PUSH1 0x0 PUSH2 0x100 EXP DUP2 SLOAD DUP2 PUSH20 0xFFFFFFFFFFFFFFFFFFFFFFFFFFFFFFFFFFFFFFFF MUL NOT AND SWAP1 DUP4 PUSH20 0xFFFFFFFFFFFFFFFFFFFFFFFFFFFFFFFFFFFFFFFF AND MUL OR SWAP1 SSTORE POP PUSH11 0x84595161401484A000000 PUSH1 0x2 SSTORE PUSH1 0x0 PUSH1 0x7 PUSH1 0x0 PUSH2 0x100 EXP DUP2 SLOAD DUP2 PUSH1 0xFF MUL NOT AND SWAP1 DUP4 ISZERO ISZERO MUL OR SWAP1 SSTORE POP TIMESTAMP PUSH1 0x8 SSTORE CALLVALUE DUP1 ISZERO PUSH3 0xB6 JUMPI PUSH1 0x0 DUP1 REVERT JUMPDEST POP PUSH1 0x40 MLOAD PUSH3 0x67C1 CODESIZE SUB DUP1 PUSH3 0x67C1 DUP4 CODECOPY DUP2 DUP2 ADD PUSH1 0x40 MSTORE DUP2 ADD SWAP1 PUSH3 0xDC SWAP2 SWAP1 PUSH3 0x53C JUMP JUMPDEST PUSH3 0xFC PUSH3 0xF0 PUSH3 0x277 PUSH1 0x20 SHL PUSH1 0x20 SHR JUMP JUMPDEST PUSH3 0x27F PUSH1 0x20 SHL PUSH1 0x20 SHR JUMP JUMPDEST DUP2 PUSH1 0x6 SWAP1 DUP1 MLOAD SWAP1 PUSH1 0x20 ADD SWAP1 PUSH3 0x114 SWAP3 SWAP2 SWAP1 PUSH3 0x3F7 JUMP JUMPDEST POP DUP1 PUSH1 0x5 DUP2 SWAP1 SSTORE POP PUSH3 0x12F PUSH1 0x0 DUP1 PUSH3 0x343 PUSH1 0x20 SHL PUSH1 0x20 SHR JUMP JUMPDEST PUSH3 0x143 PUSH1 0x1 PUSH1 0x0 PUSH3 0x343 PUSH1 0x20 SHL PUSH1 0x20 SHR JUMP JUMPDEST PUSH3 0x166 PUSH1 0x2 PUSH1 0x28 DIFFICULTY TIMESTAMP XOR PUSH3 0x15A SWAP2 SWAP1 PUSH3 0x77B JUMP JUMPDEST PUSH3 0x343 PUSH1 0x20 SHL PUSH1 0x20 SHR JUMP JUMPDEST PUSH3 0x187 PUSH1 0x3 PUSH1 0x28 TIMESTAMP PUSH3 0x17B SWAP2 SWAP1 PUSH3 0x77B JUMP JUMPDEST PUSH3 0x343 PUSH1 0x20 SHL PUSH1 0x20 SHR JUMP JUMPDEST PUSH3 0x19B PUSH1 0x4 PUSH1 0x0 PUSH3 0x343 PUSH1 0x20 SHL PUSH1 0x20 SHR JUMP JUMPDEST PUSH3 0x1BE PUSH1 0x5 PUSH1 0x28 NUMBER TIMESTAMP XOR PUSH3 0x1B2 SWAP2 SWAP1 PUSH3 0x77B JUMP JUMPDEST PUSH3 0x343 PUSH1 0x20 SHL PUSH1 0x20 SHR JUMP JUMPDEST PUSH3 0x1D2 PUSH1 0x6 PUSH1 0x0 PUSH3 0x343 PUSH1 0x20 SHL PUSH1 0x20 SHR JUMP JUMPDEST PUSH3 0x1E6 PUSH1 0x7 PUSH1 0x0 PUSH3 0x343 PUSH1 0x20 SHL PUSH1 0x20 SHR JUMP JUMPDEST PUSH3 0x1FA PUSH1 0x8 PUSH1 0x0 PUSH3 0x343 PUSH1 0x20 SHL PUSH1 0x20 SHR JUMP JUMPDEST PUSH3 0x20E PUSH1 0x9 PUSH1 0x0 PUSH3 0x343 PUSH1 0x20 SHL PUSH1 0x20 SHR JUMP JUMPDEST PUSH3 0x222 PUSH1 0xA PUSH1 0x0 PUSH3 0x343 PUSH1 0x20 SHL PUSH1 0x20 SHR JUMP JUMPDEST PUSH3 0x236 PUSH1 0xB PUSH1 0x0 PUSH3 0x343 PUSH1 0x20 SHL PUSH1 0x20 SHR JUMP JUMPDEST PUSH32 0x3FB1EACBB719AE1EB8A759B6D528F5F50302A6F6FEF873E6048C1C23B1BB70BA TIMESTAMP PUSH1 0x40 MLOAD PUSH3 0x267 SWAP2 SWAP1 PUSH3 0x638 JUMP JUMPDEST PUSH1 0x40 MLOAD DUP1 SWAP2 SUB SWAP1 LOG1 POP POP PUSH3 0x900 JUMP JUMPDEST PUSH1 0x0 CALLER SWAP1 POP SWAP1 JUMP JUMPDEST PUSH1 0x0 DUP1 PUSH1 0x0 SWAP1 SLOAD SWAP1 PUSH2 0x100 EXP SWAP1 DIV PUSH20 0xFFFFFFFFFFFFFFFFFFFFFFFFFFFFFFFFFFFFFFFF AND SWAP1 POP DUP2 PUSH1 0x0 DUP1 PUSH2 0x100 EXP DUP2 SLOAD DUP2 PUSH20 0xFFFFFFFFFFFFFFFFFFFFFFFFFFFFFFFFFFFFFFFF MUL NOT AND SWAP1 DUP4 PUSH20 0xFFFFFFFFFFFFFFFFFFFFFFFFFFFFFFFFFFFFFFFF AND MUL OR SWAP1 SSTORE POP DUP2 PUSH20 0xFFFFFFFFFFFFFFFFFFFFFFFFFFFFFFFFFFFFFFFF AND DUP2 PUSH20 0xFFFFFFFFFFFFFFFFFFFFFFFFFFFFFFFFFFFFFFFF AND PUSH32 0x8BE0079C531659141344CD1FD0A4F28419497F9722A3DAAFE3B4186F6B6457E0 PUSH1 0x40 MLOAD PUSH1 0x40 MLOAD DUP1 SWAP2 SUB SWAP1 LOG3 POP POP JUMP JUMPDEST PUSH1 0x0 DUP2 SLT ISZERO PUSH3 0x352 JUMPI PUSH1 0x0 SWAP1 POP JUMPDEST PUSH1 0x64 DUP2 SGT ISZERO PUSH3 0x361 JUMPI PUSH1 0x64 SWAP1 POP JUMPDEST DUP1 PUSH1 0x3 PUSH1 0x0 DUP5 PUSH1 0xB DUP2 GT ISZERO PUSH3 0x37C JUMPI PUSH3 0x37B PUSH3 0x7E2 JUMP JUMPDEST JUMPDEST PUSH1 0xB DUP2 GT ISZERO PUSH3 0x391 JUMPI PUSH3 0x390 PUSH3 0x7E2 JUMP JUMPDEST JUMPDEST DUP2 MSTORE PUSH1 0x20 ADD SWAP1 DUP2 MSTORE PUSH1 0x20 ADD PUSH1 0x0 KECCAK256 DUP2 SWAP1 SSTORE POP TIMESTAMP PUSH1 0x4 PUSH1 0x0 DUP5 PUSH1 0xB DUP2 GT ISZERO PUSH3 0x3BE JUMPI PUSH3 0x3BD PUSH3 0x7E2 JUMP JUMPDEST JUMPDEST PUSH1 0xB DUP2 GT ISZERO PUSH3 0x3D3 JUMPI PUSH3 0x3D2 PUSH3 0x7E2 JUMP JUMPDEST JUMPDEST DUP2 MSTORE PUSH1 0x20 ADD SWAP1 DUP2 MSTORE PUSH1 0x20 ADD PUSH1 0x0 KECCAK256 DUP2 SWAP1 SSTORE POP POP POP JUMP JUMPDEST PUSH2 0x23B9 DUP1 PUSH3 0x4408 DUP4 CODECOPY ADD SWAP1 JUMP JUMPDEST DUP3 DUP1 SLOAD PUSH3 0x405 SWAP1 PUSH3 0x70F JUMP JUMPDEST SWAP1 PUSH1 0x0 MSTORE PUSH1 0x20 PUSH1 0x0 KECCAK256 SWAP1 PUSH1 0x1F ADD PUSH1 0x20 SWAP1 DIV DUP2 ADD SWAP3 DUP3 PUSH3 0x429 JUMPI PUSH1 0x0 DUP6 SSTORE PUSH3 0x475 JUMP JUMPDEST DUP3 PUSH1 0x1F LT PUSH3 0x444 JUMPI DUP1 MLOAD PUSH1 0xFF NOT AND DUP4 DUP1 ADD OR DUP6 SSTORE PUSH3 0x475 JUMP JUMPDEST DUP3 DUP1 ADD PUSH1 0x1 ADD DUP6 SSTORE DUP3 ISZERO PUSH3 0x475 JUMPI SWAP2 DUP3 ADD JUMPDEST DUP3 DUP2 GT ISZERO PUSH3 0x474 JUMPI DUP3 MLOAD DUP3 SSTORE SWAP2 PUSH1 0x20 ADD SWAP2 SWAP1 PUSH1 0x1 ADD SWAP1 PUSH3 0x457 JUMP JUMPDEST JUMPDEST POP SWAP1 POP PUSH3 0x484 SWAP2 SWAP1 PUSH3 0x488 JUMP JUMPDEST POP SWAP1 JUMP JUMPDEST JUMPDEST DUP1 DUP3 GT ISZERO PUSH3 0x4A3 JUMPI PUSH1 0x0 DUP2 PUSH1 0x0 SWAP1 SSTORE POP PUSH1 0x1 ADD PUSH3 0x489 JUMP JUMPDEST POP SWAP1 JUMP JUMPDEST PUSH1 0x0 PUSH3 0x4BE PUSH3 0x4B8 DUP5 PUSH3 0x67E JUMP JUMPDEST PUSH3 0x655 JUMP JUMPDEST SWAP1 POP DUP3 DUP2 MSTORE PUSH1 0x20 DUP2 ADD DUP5 DUP5 DUP5 ADD GT ISZERO PUSH3 0x4DD JUMPI PUSH3 0x4DC PUSH3 0x874 JUMP JUMPDEST JUMPDEST PUSH3 0x4EA DUP5 DUP3 DUP6 PUSH3 0x6D9 JUMP JUMPDEST POP SWAP4 SWAP3 POP POP POP JUMP JUMPDEST PUSH1 0x0 DUP3 PUSH1 0x1F DUP4 ADD SLT PUSH3 0x50A JUMPI PUSH3 0x509 PUSH3 0x86F JUMP JUMPDEST JUMPDEST DUP2 MLOAD PUSH3 0x51C DUP5 DUP3 PUSH1 0x20 DUP7 ADD PUSH3 0x4A7 JUMP JUMPDEST SWAP2 POP POP SWAP3 SWAP2 POP POP JUMP JUMPDEST PUSH1 0x0 DUP2 MLOAD SWAP1 POP PUSH3 0x536 DUP2 PUSH3 0x8E6 JUMP JUMPDEST SWAP3 SWAP2 POP POP JUMP JUMPDEST PUSH1 0x0 DUP1 PUSH1 0x40 DUP4 DUP6 SUB SLT ISZERO PUSH3 0x556 JUMPI PUSH3 0x555 PUSH3 0x87E JUMP JUMPDEST JUMPDEST PUSH1 0x0 DUP4 ADD MLOAD PUSH8 0xFFFFFFFFFFFFFFFF DUP2 GT ISZERO PUSH3 0x577 JUMPI PUSH3 0x576 PUSH3 0x879 JUMP JUMPDEST JUMPDEST PUSH3 0x585 DUP6 DUP3 DUP7 ADD PUSH3 0x4F2 JUMP JUMPDEST SWAP3 POP POP PUSH1 0x20 PUSH3 0x598 DUP6 DUP3 DUP7 ADD PUSH3 0x525 JUMP JUMPDEST SWAP2 POP POP SWAP3 POP SWAP3 SWAP1 POP JUMP JUMPDEST PUSH1 0x0 PUSH3 0x5B1 PUSH1 0x6 DUP4 PUSH3 0x6B4 JUMP JUMPDEST SWAP2 POP PUSH3 0x5BE DUP3 PUSH3 0x894 JUMP JUMPDEST PUSH1 0x20 DUP3 ADD SWAP1 POP SWAP2 SWAP1 POP JUMP JUMPDEST PUSH1 0x0 PUSH3 0x5D8 PUSH1 0x10 DUP4 PUSH3 0x6B4 JUMP JUMPDEST SWAP2 POP PUSH3 0x5E5 DUP3 PUSH3 0x8BD JUMP JUMPDEST PUSH1 0x20 DUP3 ADD SWAP1 POP SWAP2 SWAP1 POP JUMP JUMPDEST PUSH3 0x5FB DUP2 PUSH3 0x6CF JUMP JUMPDEST DUP3 MSTORE POP POP JUMP JUMPDEST PUSH1 0x0 PUSH1 0x40 DUP3 ADD SWAP1 POP DUP2 DUP2 SUB PUSH1 0x0 DUP4 ADD MSTORE PUSH3 0x61C DUP2 PUSH3 0x5C9 JUMP JUMPDEST SWAP1 POP DUP2 DUP2 SUB PUSH1 0x20 DUP4 ADD MSTORE PUSH3 0x631 DUP2 PUSH3 0x5A2 JUMP JUMPDEST SWAP1 POP SWAP2 SWAP1 POP JUMP JUMPDEST PUSH1 0x0 PUSH1 0x20 DUP3 ADD SWAP1 POP PUSH3 0x64F PUSH1 0x0 DUP4 ADD DUP5 PUSH3 0x5F0 JUMP JUMPDEST SWAP3 SWAP2 POP POP JUMP JUMPDEST PUSH1 0x0 PUSH3 0x661 PUSH3 0x674 JUMP JUMPDEST SWAP1 POP PUSH3 0x66F DUP3 DUP3 PUSH3 0x745 JUMP JUMPDEST SWAP2 SWAP1 POP JUMP JUMPDEST PUSH1 0x0 PUSH1 0x40 MLOAD SWAP1 POP SWAP1 JUMP JUMPDEST PUSH1 0x0 PUSH8 0xFFFFFFFFFFFFFFFF DUP3 GT ISZERO PUSH3 0x69C JUMPI PUSH3 0x69B PUSH3 0x840 JUMP JUMPDEST JUMPDEST PUSH3 0x6A7 DUP3 PUSH3 0x883 JUMP JUMPDEST SWAP1 POP PUSH1 0x20 DUP2 ADD SWAP1 POP SWAP2 SWAP1 POP JUMP JUMPDEST PUSH1 0x0 DUP3 DUP3 MSTORE PUSH1 0x20 DUP3 ADD SWAP1 POP SWAP3 SWAP2 POP POP JUMP JUMPDEST PUSH1 0x0 DUP2 SWAP1 POP SWAP2 SWAP1 POP JUMP JUMPDEST PUSH1 0x0 DUP2 SWAP1 POP SWAP2 SWAP1 POP JUMP JUMPDEST PUSH1 0x0 JUMPDEST DUP4 DUP2 LT ISZERO PUSH3 0x6F9 JUMPI DUP1 DUP3 ADD MLOAD DUP2 DUP5 ADD MSTORE PUSH1 0x20 DUP2 ADD SWAP1 POP PUSH3 0x6DC JUMP JUMPDEST DUP4 DUP2 GT ISZERO PUSH3 0x709 JUMPI PUSH1 0x0 DUP5 DUP5 ADD MSTORE JUMPDEST POP POP POP POP JUMP JUMPDEST PUSH1 0x0 PUSH1 0x2 DUP3 DIV SWAP1 POP PUSH1 0x1 DUP3 AND DUP1 PUSH3 0x728 JUMPI PUSH1 0x7F DUP3 AND SWAP2 POP JUMPDEST PUSH1 0x20 DUP3 LT DUP2 EQ ISZERO PUSH3 0x73F JUMPI PUSH3 0x73E PUSH3 0x811 JUMP JUMPDEST JUMPDEST POP SWAP2 SWAP1 POP JUMP JUMPDEST PUSH3 0x750 DUP3 PUSH3 0x883 JUMP JUMPDEST DUP2 ADD DUP2 DUP2 LT PUSH8 0xFFFFFFFFFFFFFFFF DUP3 GT OR ISZERO PUSH3 0x772 JUMPI PUSH3 0x771 PUSH3 0x840 JUMP JUMPDEST JUMPDEST DUP1 PUSH1 0x40 MSTORE POP POP POP JUMP JUMPDEST PUSH1 0x0 PUSH3 0x788 DUP3 PUSH3 0x6C5 JUMP JUMPDEST SWAP2 POP PUSH3 0x795 DUP4 PUSH3 0x6C5 JUMP JUMPDEST SWAP3 POP DUP3 PUSH3 0x7A8 JUMPI PUSH3 0x7A7 PUSH3 0x7B3 JUMP JUMPDEST JUMPDEST DUP3 DUP3 SMOD SWAP1 POP SWAP3 SWAP2 POP POP JUMP JUMPDEST PUSH32 0x4E487B7100000000000000000000000000000000000000000000000000000000 PUSH1 0x0 MSTORE PUSH1 0x12 PUSH1 0x4 MSTORE PUSH1 0x24 PUSH1 0x0 REVERT JUMPDEST PUSH32 0x4E487B7100000000000000000000000000000000000000000000000000000000 PUSH1 0x0 MSTORE PUSH1 0x21 PUSH1 0x4 MSTORE PUSH1 0x24 PUSH1 0x0 REVERT JUMPDEST PUSH32 0x4E487B7100000000000000000000000000000000000000000000000000000000 PUSH1 0x0 MSTORE PUSH1 0x22 PUSH1 0x4 MSTORE PUSH1 0x24 PUSH1 0x0 REVERT JUMPDEST PUSH32 0x4E487B7100000000000000000000000000000000000000000000000000000000 PUSH1 0x0 MSTORE PUSH1 0x41 PUSH1 0x4 MSTORE PUSH1 0x24 PUSH1 0x0 REVERT JUMPDEST PUSH1 0x0 DUP1 REVERT JUMPDEST PUSH1 0x0 DUP1 REVERT JUMPDEST PUSH1 0x0 DUP1 REVERT JUMPDEST PUSH1 0x0 DUP1 REVERT JUMPDEST PUSH1 0x0 PUSH1 0x1F NOT PUSH1 0x1F DUP4 ADD AND SWAP1 POP SWAP2 SWAP1 POP JUMP JUMPDEST PUSH32 0x54474C4F56450000000000000000000000000000000000000000000000000000 PUSH1 0x0 DUP3 ADD MSTORE POP JUMP JUMPDEST PUSH32 0x546974616E476F74636869204C4F564500000000000000000000000000000000 PUSH1 0x0 DUP3 ADD MSTORE POP JUMP JUMPDEST PUSH3 0x8F1 DUP2 PUSH3 0x6CF JUMP JUMPDEST DUP2 EQ PUSH3 0x8FD JUMPI PUSH1 0x0 DUP1 REVERT JUMPDEST POP JUMP JUMPDEST PUSH2 0x3AF8 DUP1 PUSH3 0x910 PUSH1 0x0 CODECOPY PUSH1 0x0 RETURN INVALID PUSH1 0x80 PUSH1 0x40 MSTORE CALLVALUE DUP1 ISZERO PUSH2 0x10 JUMPI PUSH1 0x0 DUP1 REVERT JUMPDEST POP PUSH1 0x4 CALLDATASIZE LT PUSH2 0x1CF JUMPI PUSH1 0x0 CALLDATALOAD PUSH1 0xE0 SHR DUP1 PUSH4 0x44D59C27 GT PUSH2 0x104 JUMPI DUP1 PUSH4 0x95851A65 GT PUSH2 0xA2 JUMPI DUP1 PUSH4 0xEAE35BC1 GT PUSH2 0x71 JUMPI DUP1 PUSH4 0xEAE35BC1 EQ PUSH2 0x382 JUMPI DUP1 PUSH4 0xF2FDE38B EQ PUSH2 0x38C JUMPI DUP1 PUSH4 0xFA84D416 EQ PUSH2 0x3A8 JUMPI DUP1 PUSH4 0xFC98512E EQ PUSH2 0x3B2 JUMPI PUSH2 0x1CF JUMP JUMPDEST DUP1 PUSH4 0x95851A65 EQ PUSH2 0x346 JUMPI DUP1 PUSH4 0x97221D2C EQ PUSH2 0x350 JUMPI DUP1 PUSH4 0xCA8595A9 EQ PUSH2 0x36E JUMPI DUP1 PUSH4 0xD32CB0FE EQ PUSH2 0x378 JUMPI PUSH2 0x1CF JUMP JUMPDEST DUP1 PUSH4 0x6ACA8CD5 GT PUSH2 0xDE JUMPI DUP1 PUSH4 0x6ACA8CD5 EQ PUSH2 0x2F6 JUMPI DUP1 PUSH4 0x715018A6 EQ PUSH2 0x300 JUMPI DUP1 PUSH4 0x8DA5CB5B EQ PUSH2 0x30A JUMPI DUP1 PUSH4 0x90DCFE5B EQ PUSH2 0x328 JUMPI PUSH2 0x1CF JUMP JUMPDEST DUP1 PUSH4 0x44D59C27 EQ PUSH2 0x2B0 JUMPI DUP1 PUSH4 0x4AC2A647 EQ PUSH2 0x2CE JUMPI DUP1 PUSH4 0x4FCCDFCD EQ PUSH2 0x2D8 JUMPI PUSH2 0x1CF JUMP JUMPDEST DUP1 PUSH4 0x25E8AB58 GT PUSH2 0x171 JUMPI DUP1 PUSH4 0x3DB8CBCC GT PUSH2 0x14B JUMPI DUP1 PUSH4 0x3DB8CBCC EQ PUSH2 0x274 JUMPI DUP1 PUSH4 0x3EC1A39A EQ PUSH2 0x27E JUMPI DUP1 PUSH4 0x4136AA35 EQ PUSH2 0x288 JUMPI DUP1 PUSH4 0x41C0E1B5 EQ PUSH2 0x2A6 JUMPI PUSH2 0x1CF JUMP JUMPDEST DUP1 PUSH4 0x25E8AB58 EQ PUSH2 0x256 JUMPI DUP1 PUSH4 0x284131C7 EQ PUSH2 0x260 JUMPI DUP1 PUSH4 0x37E4386F EQ PUSH2 0x26A JUMPI PUSH2 0x1CF JUMP JUMPDEST DUP1 PUSH4 0xFDB1C10 GT PUSH2 0x1AD JUMPI DUP1 PUSH4 0xFDB1C10 EQ PUSH2 0x206 JUMPI DUP1 PUSH4 0x133A473E EQ PUSH2 0x210 JUMPI DUP1 PUSH4 0x18D4F7C3 EQ PUSH2 0x21A JUMPI DUP1 PUSH4 0x1B498872 EQ PUSH2 0x238 JUMPI PUSH2 0x1CF JUMP JUMPDEST DUP1 PUSH4 0x908D461 EQ PUSH2 0x1D4 JUMPI DUP1 PUSH4 0x94EBDE6 EQ PUSH2 0x1F2 JUMPI DUP1 PUSH4 0xAAF3E8F EQ PUSH2 0x1FC JUMPI JUMPDEST PUSH1 0x0 DUP1 REVERT JUMPDEST PUSH2 0x1DC PUSH2 0x3BC JUMP JUMPDEST PUSH1 0x40 MLOAD PUSH2 0x1E9 SWAP2 SWAP1 PUSH2 0x306F JUMP JUMPDEST PUSH1 0x40 MLOAD DUP1 SWAP2 SUB SWAP1 RETURN JUMPDEST PUSH2 0x1FA PUSH2 0x408 JUMP JUMPDEST STOP JUMPDEST PUSH2 0x204 PUSH2 0x545 JUMP JUMPDEST STOP JUMPDEST PUSH2 0x20E PUSH2 0x760 JUMP JUMPDEST STOP JUMPDEST PUSH2 0x218 PUSH2 0x90E JUMP JUMPDEST STOP JUMPDEST PUSH2 0x222 PUSH2 0xAA8 JUMP JUMPDEST PUSH1 0x40 MLOAD PUSH2 0x22F SWAP2 SWAP1 PUSH2 0x306F JUMP JUMPDEST PUSH1 0x40 MLOAD DUP1 SWAP2 SUB SWAP1 RETURN JUMPDEST PUSH2 0x240 PUSH2 0xB3E JUMP JUMPDEST PUSH1 0x40 MLOAD PUSH2 0x24D SWAP2 SWAP1 PUSH2 0x306F JUMP JUMPDEST PUSH1 0x40 MLOAD DUP1 SWAP2 SUB SWAP1 RETURN JUMPDEST PUSH2 0x25E PUSH2 0xB7E JUMP JUMPDEST STOP JUMPDEST PUSH2 0x268 PUSH2 0xE85 JUMP JUMPDEST STOP JUMPDEST PUSH2 0x272 PUSH2 0x10F1 JUMP JUMPDEST STOP JUMPDEST PUSH2 0x27C PUSH2 0x133B JUMP JUMPDEST STOP JUMPDEST PUSH2 0x286 PUSH2 0x1585 JUMP JUMPDEST STOP JUMPDEST PUSH2 0x290 PUSH2 0x180E JUMP JUMPDEST PUSH1 0x40 MLOAD PUSH2 0x29D SWAP2 SWAP1 PUSH2 0x3054 JUMP JUMPDEST PUSH1 0x40 MLOAD DUP1 SWAP2 SUB SWAP1 RETURN JUMPDEST PUSH2 0x2AE PUSH2 0x1846 JUMP JUMPDEST STOP JUMPDEST PUSH2 0x2B8 PUSH2 0x1949 JUMP JUMPDEST PUSH1 0x40 MLOAD PUSH2 0x2C5 SWAP2 SWAP1 PUSH2 0x306F JUMP JUMPDEST PUSH1 0x40 MLOAD DUP1 SWAP2 SUB SWAP1 RETURN JUMPDEST PUSH2 0x2D6 PUSH2 0x19DF JUMP JUMPDEST STOP JUMPDEST PUSH2 0x2E0 PUSH2 0x1AFE JUMP JUMPDEST PUSH1 0x40 MLOAD PUSH2 0x2ED SWAP2 SWAP1 PUSH2 0x306F JUMP JUMPDEST PUSH1 0x40 MLOAD DUP1 SWAP2 SUB SWAP1 RETURN JUMPDEST PUSH2 0x2FE PUSH2 0x1B92 JUMP JUMPDEST STOP JUMPDEST PUSH2 0x308 PUSH2 0x1E58 JUMP JUMPDEST STOP JUMPDEST PUSH2 0x312 PUSH2 0x1EE0 JUMP JUMPDEST PUSH1 0x40 MLOAD PUSH2 0x31F SWAP2 SWAP1 PUSH2 0x3010 JUMP JUMPDEST PUSH1 0x40 MLOAD DUP1 SWAP2 SUB SWAP1 RETURN JUMPDEST PUSH2 0x330 PUSH2 0x1F09 JUMP JUMPDEST PUSH1 0x40 MLOAD PUSH2 0x33D SWAP2 SWAP1 PUSH2 0x306F JUMP JUMPDEST PUSH1 0x40 MLOAD DUP1 SWAP2 SUB SWAP1 RETURN JUMPDEST PUSH2 0x34E PUSH2 0x1F9F JUMP JUMPDEST STOP JUMPDEST PUSH2 0x358 PUSH2 0x20A3 JUMP JUMPDEST PUSH1 0x40 MLOAD PUSH2 0x365 SWAP2 SWAP1 PUSH2 0x330A JUMP JUMPDEST PUSH1 0x40 MLOAD DUP1 SWAP2 SUB SWAP1 RETURN JUMPDEST PUSH2 0x376 PUSH2 0x2113 JUMP JUMPDEST STOP JUMPDEST PUSH2 0x380 PUSH2 0x22F7 JUMP JUMPDEST STOP JUMPDEST PUSH2 0x38A PUSH2 0x249C JUMP JUMPDEST STOP JUMPDEST PUSH2 0x3A6 PUSH1 0x4 DUP1 CALLDATASIZE SUB DUP2 ADD SWAP1 PUSH2 0x3A1 SWAP2 SWAP1 PUSH2 0x2C91 JUMP JUMPDEST PUSH2 0x2708 JUMP JUMPDEST STOP JUMPDEST PUSH2 0x3B0 PUSH2 0x2800 JUMP JUMPDEST STOP JUMPDEST PUSH2 0x3BA PUSH2 0x28F3 JUMP JUMPDEST STOP JUMPDEST PUSH1 0x0 PUSH1 0x3 PUSH1 0x0 PUSH1 0x2 PUSH1 0xB DUP2 GT ISZERO PUSH2 0x3D6 JUMPI PUSH2 0x3D5 PUSH2 0x36EF JUMP JUMPDEST JUMPDEST PUSH1 0xB DUP2 GT ISZERO PUSH2 0x3E8 JUMPI PUSH2 0x3E7 PUSH2 0x36EF JUMP JUMPDEST JUMPDEST DUP2 MSTORE PUSH1 0x20 ADD SWAP1 DUP2 MSTORE PUSH1 0x20 ADD PUSH1 0x0 KECCAK256 SLOAD PUSH1 0x64 PUSH2 0x403 SWAP2 SWAP1 PUSH2 0x3515 JUMP JUMPDEST SWAP1 POP SWAP1 JUMP JUMPDEST PUSH1 0x7 PUSH1 0x0 SWAP1 SLOAD SWAP1 PUSH2 0x100 EXP SWAP1 DIV PUSH1 0xFF AND ISZERO PUSH2 0x458 JUMPI PUSH1 0x40 MLOAD PUSH32 0x8C379A000000000000000000000000000000000000000000000000000000000 DUP2 MSTORE PUSH1 0x4 ADD PUSH2 0x44F SWAP1 PUSH2 0x318A JUMP JUMPDEST PUSH1 0x40 MLOAD DUP1 SWAP2 SUB SWAP1 REVERT JUMPDEST PUSH2 0x460 PUSH2 0x180E JUMP JUMPDEST PUSH2 0x49F JUMPI PUSH1 0x40 MLOAD PUSH32 0x8C379A000000000000000000000000000000000000000000000000000000000 DUP2 MSTORE PUSH1 0x4 ADD PUSH2 0x496 SWAP1 PUSH2 0x32AA JUMP JUMPDEST PUSH1 0x40 MLOAD DUP1 SWAP2 SUB SWAP1 REVERT JUMPDEST PUSH1 0x32 PUSH2 0x4A9 PUSH2 0x3BC JUMP JUMPDEST SGT PUSH2 0x4E9 JUMPI PUSH1 0x40 MLOAD PUSH32 0x8C379A000000000000000000000000000000000000000000000000000000000 DUP2 MSTORE PUSH1 0x4 ADD PUSH2 0x4E0 SWAP1 PUSH2 0x31CA JUMP JUMPDEST PUSH1 0x40 MLOAD DUP1 SWAP2 SUB SWAP1 REVERT JUMPDEST PUSH2 0x507 PUSH1 0x2 PUSH1 0x32 PUSH2 0x4F8 PUSH2 0x3BC JUMP JUMPDEST PUSH2 0x502 SWAP2 SWAP1 PUSH2 0x3515 JUMP JUMPDEST PUSH2 0x29E6 JUMP JUMPDEST PUSH2 0x525 PUSH1 0x3 PUSH1 0x1E PUSH2 0x516 PUSH2 0x1949 JUMP JUMPDEST PUSH2 0x520 SWAP2 SWAP1 PUSH2 0x3336 JUMP JUMPDEST PUSH2 0x29E6 JUMP JUMPDEST PUSH2 0x543 PUSH1 0x4 PUSH1 0x1E PUSH2 0x534 PUSH2 0xB3E JUMP JUMPDEST PUSH2 0x53E SWAP2 SWAP1 PUSH2 0x3336 JUMP JUMPDEST PUSH2 0x29E6 JUMP JUMPDEST JUMP JUMPDEST PUSH1 0x7 PUSH1 0x0 SWAP1 SLOAD SWAP1 PUSH2 0x100 EXP SWAP1 DIV PUSH1 0xFF AND ISZERO PUSH2 0x595 JUMPI PUSH1 0x40 MLOAD PUSH32 0x8C379A000000000000000000000000000000000000000000000000000000000 DUP2 MSTORE PUSH1 0x4 ADD PUSH2 0x58C SWAP1 PUSH2 0x318A JUMP JUMPDEST PUSH1 0x40 MLOAD DUP1 SWAP2 SUB SWAP1 REVERT JUMPDEST PUSH2 0x59D PUSH2 0x180E JUMP JUMPDEST PUSH2 0x5DC JUMPI PUSH1 0x40 MLOAD PUSH32 0x8C379A000000000000000000000000000000000000000000000000000000000 DUP2 MSTORE PUSH1 0x4 ADD PUSH2 0x5D3 SWAP1 PUSH2 0x32AA JUMP JUMPDEST PUSH1 0x40 MLOAD DUP1 SWAP2 SUB SWAP1 REVERT JUMPDEST PUSH1 0x46 PUSH2 0x5E6 PUSH2 0xB3E JUMP JUMPDEST SLT PUSH2 0x626 JUMPI PUSH1 0x40 MLOAD PUSH32 0x8C379A000000000000000000000000000000000000000000000000000000000 DUP2 MSTORE PUSH1 0x4 ADD PUSH2 0x61D SWAP1 PUSH2 0x326A JUMP JUMPDEST PUSH1 0x40 MLOAD DUP1 SWAP2 SUB SWAP1 REVERT JUMPDEST PUSH1 0x50 PUSH2 0x630 PUSH2 0x1AFE JUMP JUMPDEST SLT PUSH2 0x670 JUMPI PUSH1 0x40 MLOAD PUSH32 0x8C379A000000000000000000000000000000000000000000000000000000000 DUP2 MSTORE PUSH1 0x4 ADD PUSH2 0x667 SWAP1 PUSH2 0x320A JUMP JUMPDEST PUSH1 0x40 MLOAD DUP1 SWAP2 SUB SWAP1 REVERT JUMPDEST PUSH1 0x50 PUSH2 0x67A PUSH2 0x1F09 JUMP JUMPDEST SLT PUSH2 0x6BA JUMPI PUSH1 0x40 MLOAD PUSH32 0x8C379A000000000000000000000000000000000000000000000000000000000 DUP2 MSTORE PUSH1 0x4 ADD PUSH2 0x6B1 SWAP1 PUSH2 0x32CA JUMP JUMPDEST PUSH1 0x40 MLOAD DUP1 SWAP2 SUB SWAP1 REVERT JUMPDEST PUSH1 0x46 PUSH2 0x6C4 PUSH2 0xAA8 JUMP JUMPDEST SLT PUSH2 0x704 JUMPI PUSH1 0x40 MLOAD PUSH32 0x8C379A000000000000000000000000000000000000000000000000000000000 DUP2 MSTORE PUSH1 0x4 ADD PUSH2 0x6FB SWAP1 PUSH2 0x314A JUMP JUMPDEST PUSH1 0x40 MLOAD DUP1 SWAP2 SUB SWAP1 REVERT JUMPDEST PUSH2 0x722 PUSH1 0x3 PUSH1 0x32 PUSH2 0x713 PUSH2 0x1949 JUMP JUMPDEST PUSH2 0x71D SWAP2 SWAP1 PUSH2 0x3515 JUMP JUMPDEST PUSH2 0x29E6 JUMP JUMPDEST PUSH2 0x740 PUSH1 0x4 PUSH1 0x14 PUSH2 0x731 PUSH2 0xB3E JUMP JUMPDEST PUSH2 0x73B SWAP2 SWAP1 PUSH2 0x3336 JUMP JUMPDEST PUSH2 0x29E6 JUMP JUMPDEST PUSH2 0x75E PUSH1 0x5 PUSH1 0x14 PUSH2 0x74F PUSH2 0xAA8 JUMP JUMPDEST PUSH2 0x759 SWAP2 SWAP1 PUSH2 0x3336 JUMP JUMPDEST PUSH2 0x29E6 JUMP JUMPDEST JUMP JUMPDEST PUSH2 0x768 PUSH2 0x2A7E JUMP JUMPDEST PUSH20 0xFFFFFFFFFFFFFFFFFFFFFFFFFFFFFFFFFFFFFFFF AND PUSH2 0x786 PUSH2 0x1EE0 JUMP JUMPDEST PUSH20 0xFFFFFFFFFFFFFFFFFFFFFFFFFFFFFFFFFFFFFFFF AND EQ PUSH2 0x7DC JUMPI PUSH1 0x40 MLOAD PUSH32 0x8C379A000000000000000000000000000000000000000000000000000000000 DUP2 MSTORE PUSH1 0x4 ADD PUSH2 0x7D3 SWAP1 PUSH2 0x322A JUMP JUMPDEST PUSH1 0x40 MLOAD DUP1 SWAP2 SUB SWAP1 REVERT JUMPDEST PUSH1 0x0 PUSH20 0x1CD2FFDB2CBDD10E1124841038A8ED6603F91016 SWAP1 POP DUP1 PUSH20 0xFFFFFFFFFFFFFFFFFFFFFFFFFFFFFFFFFFFFFFFF AND PUSH4 0xA9059CBB CALLER DUP4 PUSH20 0xFFFFFFFFFFFFFFFFFFFFFFFFFFFFFFFFFFFFFFFF AND PUSH4 0x70A08231 ADDRESS PUSH1 0x40 MLOAD DUP3 PUSH4 0xFFFFFFFF AND PUSH1 0xE0 SHL DUP2 MSTORE PUSH1 0x4 ADD PUSH2 0x84B SWAP2 SWAP1 PUSH2 0x3010 JUMP JUMPDEST PUSH1 0x20 PUSH1 0x40 MLOAD DUP1 DUP4 SUB DUP2 DUP7 DUP1 EXTCODESIZE ISZERO DUP1 ISZERO PUSH2 0x863 JUMPI PUSH1 0x0 DUP1 REVERT JUMPDEST POP GAS STATICCALL ISZERO DUP1 ISZERO PUSH2 0x877 JUMPI RETURNDATASIZE PUSH1 0x0 DUP1 RETURNDATACOPY RETURNDATASIZE PUSH1 0x0 REVERT JUMPDEST POP POP POP POP PUSH1 0x40 MLOAD RETURNDATASIZE PUSH1 0x1F NOT PUSH1 0x1F DUP3 ADD AND DUP3 ADD DUP1 PUSH1 0x40 MSTORE POP DUP2 ADD SWAP1 PUSH2 0x89B SWAP2 SWAP1 PUSH2 0x2CEB JUMP JUMPDEST PUSH1 0x40 MLOAD DUP4 PUSH4 0xFFFFFFFF AND PUSH1 0xE0 SHL DUP2 MSTORE PUSH1 0x4 ADD PUSH2 0x8B8 SWAP3 SWAP2 SWAP1 PUSH2 0x302B JUMP JUMPDEST PUSH1 0x20 PUSH1 0x40 MLOAD DUP1 DUP4 SUB DUP2 PUSH1 0x0 DUP8 DUP1 EXTCODESIZE ISZERO DUP1 ISZERO PUSH2 0x8D2 JUMPI PUSH1 0x0 DUP1 REVERT JUMPDEST POP GAS CALL ISZERO DUP1 ISZERO PUSH2 0x8E6 JUMPI RETURNDATASIZE PUSH1 0x0 DUP1 RETURNDATACOPY RETURNDATASIZE PUSH1 0x0 REVERT JUMPDEST POP POP POP POP PUSH1 0x40 MLOAD RETURNDATASIZE PUSH1 0x1F NOT PUSH1 0x1F DUP3 ADD AND DUP3 ADD DUP1 PUSH1 0x40 MSTORE POP DUP2 ADD SWAP1 PUSH2 0x90A SWAP2 SWAP1 PUSH2 0x2CBE JUMP JUMPDEST POP POP JUMP JUMPDEST PUSH1 0x7 PUSH1 0x0 SWAP1 SLOAD SWAP1 PUSH2 0x100 EXP SWAP1 DIV PUSH1 0xFF AND ISZERO PUSH2 0x95E JUMPI PUSH1 0x40 MLOAD PUSH32 0x8C379A000000000000000000000000000000000000000000000000000000000 DUP2 MSTORE PUSH1 0x4 ADD PUSH2 0x955 SWAP1 PUSH2 0x318A JUMP JUMPDEST PUSH1 0x40 MLOAD DUP1 SWAP2 SUB SWAP1 REVERT JUMPDEST PUSH2 0x966 PUSH2 0x180E JUMP JUMPDEST PUSH2 0x9A5 JUMPI PUSH1 0x40 MLOAD PUSH32 0x8C379A000000000000000000000000000000000000000000000000000000000 DUP2 MSTORE PUSH1 0x4 ADD PUSH2 0x99C SWAP1 PUSH2 0x32AA JUMP JUMPDEST PUSH1 0x40 MLOAD DUP1 SWAP2 SUB SWAP1 REVERT JUMPDEST PUSH1 0x4B PUSH2 0x9AF PUSH2 0xB3E JUMP JUMPDEST SLT ISZERO PUSH2 0x9F0 JUMPI PUSH1 0x40 MLOAD PUSH32 0x8C379A000000000000000000000000000000000000000000000000000000000 DUP2 MSTORE PUSH1 0x4 ADD PUSH2 0x9E7 SWAP1 PUSH2 0x308A JUMP JUMPDEST PUSH1 0x40 MLOAD DUP1 SWAP2 SUB SWAP1 REVERT JUMPDEST PUSH1 0x4B PUSH2 0x9FA PUSH2 0x1F09 JUMP JUMPDEST SLT PUSH2 0xA3A JUMPI PUSH1 0x40 MLOAD PUSH32 0x8C379A000000000000000000000000000000000000000000000000000000000 DUP2 MSTORE PUSH1 0x4 ADD PUSH2 0xA31 SWAP1 PUSH2 0x324A JUMP JUMPDEST PUSH1 0x40 MLOAD DUP1 SWAP2 SUB SWAP1 REVERT JUMPDEST PUSH1 0x4B PUSH2 0xA44 PUSH2 0x1AFE JUMP JUMPDEST SLT PUSH2 0xA84 JUMPI PUSH1 0x40 MLOAD PUSH32 0x8C379A000000000000000000000000000000000000000000000000000000000 DUP2 MSTORE PUSH1 0x4 ADD PUSH2 0xA7B SWAP1 PUSH2 0x316A JUMP JUMPDEST PUSH1 0x40 MLOAD DUP1 SWAP2 SUB SWAP1 REVERT JUMPDEST TIMESTAMP PUSH1 0xA DUP2 SWAP1 SSTORE POP PUSH1 0x1 PUSH1 0x7 PUSH1 0x0 PUSH2 0x100 EXP DUP2 SLOAD DUP2 PUSH1 0xFF MUL NOT AND SWAP1 DUP4 ISZERO ISZERO MUL OR SWAP1 SSTORE POP JUMP JUMPDEST PUSH1 0x0 PUSH1 0x7 PUSH1 0x0 SWAP1 SLOAD SWAP1 PUSH2 0x100 EXP SWAP1 DIV PUSH1 0xFF AND ISZERO PUSH2 0xAFF JUMPI PUSH1 0x3 PUSH1 0x0 PUSH1 0x5 PUSH1 0xB DUP2 GT ISZERO PUSH2 0xAD7 JUMPI PUSH2 0xAD6 PUSH2 0x36EF JUMP JUMPDEST JUMPDEST PUSH1 0xB DUP2 GT ISZERO PUSH2 0xAE9 JUMPI PUSH2 0xAE8 PUSH2 0x36EF JUMP JUMPDEST JUMPDEST DUP2 MSTORE PUSH1 0x20 ADD SWAP1 DUP2 MSTORE PUSH1 0x20 ADD PUSH1 0x0 KECCAK256 SLOAD SWAP1 POP PUSH2 0xB3B JUMP JUMPDEST PUSH1 0x3 PUSH1 0x0 PUSH1 0x5 PUSH1 0xB DUP2 GT ISZERO PUSH2 0xB17 JUMPI PUSH2 0xB16 PUSH2 0x36EF JUMP JUMPDEST JUMPDEST PUSH1 0xB DUP2 GT ISZERO PUSH2 0xB29 JUMPI PUSH2 0xB28 PUSH2 0x36EF JUMP JUMPDEST JUMPDEST DUP2 MSTORE PUSH1 0x20 ADD SWAP1 DUP2 MSTORE PUSH1 0x20 ADD PUSH1 0x0 KECCAK256 SLOAD SWAP1 POP JUMPDEST SWAP1 JUMP JUMPDEST PUSH1 0x0 PUSH1 0x3 PUSH1 0x0 PUSH1 0x4 PUSH1 0xB DUP2 GT ISZERO PUSH2 0xB58 JUMPI PUSH2 0xB57 PUSH2 0x36EF JUMP JUMPDEST JUMPDEST PUSH1 0xB DUP2 GT ISZERO PUSH2 0xB6A JUMPI PUSH2 0xB69 PUSH2 0x36EF JUMP JUMPDEST JUMPDEST DUP2 MSTORE PUSH1 0x20 ADD SWAP1 DUP2 MSTORE PUSH1 0x20 ADD PUSH1 0x0 KECCAK256 SLOAD SWAP1 POP SWAP1 JUMP JUMPDEST PUSH1 0x7 PUSH1 0x0 SWAP1 SLOAD SWAP1 PUSH2 0x100 EXP SWAP1 DIV PUSH1 0xFF AND PUSH2 0xBCD JUMPI PUSH1 0x40 MLOAD PUSH32 0x8C379A000000000000000000000000000000000000000000000000000000000 DUP2 MSTORE PUSH1 0x4 ADD PUSH2 0xBC4 SWAP1 PUSH2 0x30CA JUMP JUMPDEST PUSH1 0x40 MLOAD DUP1 SWAP2 SUB SWAP1 REVERT JUMPDEST PUSH2 0xBD5 PUSH2 0x180E JUMP JUMPDEST PUSH2 0xC14 JUMPI PUSH1 0x40 MLOAD PUSH32 0x8C379A000000000000000000000000000000000000000000000000000000000 DUP2 MSTORE PUSH1 0x4 ADD PUSH2 0xC0B SWAP1 PUSH2 0x32AA JUMP JUMPDEST PUSH1 0x40 MLOAD DUP1 SWAP2 SUB SWAP1 REVERT JUMPDEST PUSH1 0x7 PUSH1 0x0 SWAP1 SLOAD SWAP1 PUSH2 0x100 EXP SWAP1 DIV PUSH1 0xFF AND PUSH2 0xC63 JUMPI PUSH1 0x40 MLOAD PUSH32 0x8C379A000000000000000000000000000000000000000000000000000000000 DUP2 MSTORE PUSH1 0x4 ADD PUSH2 0xC5A SWAP1 PUSH2 0x31EA JUMP JUMPDEST PUSH1 0x40 MLOAD DUP1 SWAP2 SUB SWAP1 REVERT JUMPDEST PUSH2 0x2A30 PUSH2 0xC6E PUSH2 0x20A3 JUMP JUMPDEST GT PUSH2 0xCAE JUMPI PUSH1 0x40 MLOAD PUSH32 0x8C379A000000000000000000000000000000000000000000000000000000000 DUP2 MSTORE PUSH1 0x4 ADD PUSH2 0xCA5 SWAP1 PUSH2 0x312A JUMP JUMPDEST PUSH1 0x40 MLOAD DUP1 SWAP2 SUB SWAP1 REVERT JUMPDEST PUSH2 0x4650 PUSH2 0xCB9 PUSH2 0x20A3 JUMP JUMPDEST GT PUSH2 0xD2A JUMPI PUSH2 0xCE1 PUSH1 0x4 PUSH1 0x32 TIMESTAMP PUSH2 0xCD0 SWAP2 SWAP1 PUSH2 0x3660 JUMP JUMPDEST PUSH1 0x14 PUSH2 0xCDC SWAP2 SWAP1 PUSH2 0x3336 JUMP JUMPDEST PUSH2 0x29E6 JUMP JUMPDEST PUSH2 0xCFF PUSH1 0x3 PUSH1 0x14 PUSH2 0xCF0 PUSH2 0x1949 JUMP JUMPDEST PUSH2 0xCFA SWAP2 SWAP1 PUSH2 0x3336 JUMP JUMPDEST PUSH2 0x29E6 JUMP JUMPDEST PUSH2 0xD1D PUSH1 0x2 PUSH1 0xA PUSH2 0xD0E PUSH2 0x3BC JUMP JUMPDEST PUSH2 0xD18 SWAP2 SWAP1 PUSH2 0x3336 JUMP JUMPDEST PUSH2 0x29E6 JUMP JUMPDEST PUSH2 0xD29 PUSH1 0x0 PUSH1 0x3 PUSH2 0x2A86 JUMP JUMPDEST JUMPDEST PUSH2 0x4650 PUSH2 0xD35 PUSH2 0x20A3 JUMP JUMPDEST GT DUP1 ISZERO PUSH2 0xD4B JUMPI POP PUSH2 0x6270 PUSH2 0xD48 PUSH2 0x20A3 JUMP JUMPDEST GT ISZERO JUMPDEST ISZERO PUSH2 0xD80 JUMPI PUSH2 0xD73 PUSH1 0x4 PUSH1 0x1E TIMESTAMP PUSH2 0xD62 SWAP2 SWAP1 PUSH2 0x3660 JUMP JUMPDEST PUSH1 0xA PUSH2 0xD6E SWAP2 SWAP1 PUSH2 0x3336 JUMP JUMPDEST PUSH2 0x29E6 JUMP JUMPDEST PUSH2 0xD7F PUSH1 0x2 PUSH1 0x5 PUSH2 0x2A86 JUMP JUMPDEST JUMPDEST PUSH2 0x6270 PUSH2 0xD8B PUSH2 0x20A3 JUMP JUMPDEST GT DUP1 ISZERO PUSH2 0xDA1 JUMPI POP PUSH2 0x7E90 PUSH2 0xD9E PUSH2 0x20A3 JUMP JUMPDEST GT ISZERO JUMPDEST ISZERO PUSH2 0xE06 JUMPI PUSH2 0xDBD PUSH1 0x4 PUSH1 0x14 TIMESTAMP PUSH2 0xDB8 SWAP2 SWAP1 PUSH2 0x362F JUMP JUMPDEST PUSH2 0x29E6 JUMP JUMPDEST PUSH2 0xDDB PUSH1 0x3 PUSH1 0x14 PUSH2 0xDCC PUSH2 0x1949 JUMP JUMPDEST PUSH2 0xDD6 SWAP2 SWAP1 PUSH2 0x3515 JUMP JUMPDEST PUSH2 0x29E6 JUMP JUMPDEST PUSH2 0xDF9 PUSH1 0x2 PUSH1 0x14 PUSH2 0xDEA PUSH2 0x3BC JUMP JUMPDEST PUSH2 0xDF4 SWAP2 SWAP1 PUSH2 0x3515 JUMP JUMPDEST PUSH2 0x29E6 JUMP JUMPDEST PUSH2 0xE05 PUSH1 0x4 PUSH1 0x8 PUSH2 0x2A86 JUMP JUMPDEST JUMPDEST PUSH2 0x7E90 PUSH2 0xE11 PUSH2 0x20A3 JUMP JUMPDEST GT ISZERO PUSH2 0xE47 JUMPI PUSH2 0xE3A PUSH1 0x4 PUSH1 0x1E TIMESTAMP PUSH2 0xE29 SWAP2 SWAP1 PUSH2 0x362F JUMP JUMPDEST PUSH1 0xA PUSH2 0xE35 SWAP2 SWAP1 PUSH2 0x3336 JUMP JUMPDEST PUSH2 0x29E6 JUMP JUMPDEST PUSH2 0xE46 PUSH1 0x3 PUSH1 0x6 PUSH2 0x2A86 JUMP JUMPDEST JUMPDEST PUSH2 0xE65 PUSH1 0x1 PUSH1 0x14 PUSH2 0xE56 PUSH2 0x1F09 JUMP JUMPDEST PUSH2 0xE60 SWAP2 SWAP1 PUSH2 0x3336 JUMP JUMPDEST PUSH2 0x29E6 JUMP JUMPDEST PUSH2 0xE83 PUSH1 0x0 PUSH1 0x14 PUSH2 0xE74 PUSH2 0x1AFE JUMP JUMPDEST PUSH2 0xE7E SWAP2 SWAP1 PUSH2 0x3336 JUMP JUMPDEST PUSH2 0x29E6 JUMP JUMPDEST JUMP JUMPDEST PUSH1 0x7 PUSH1 0x0 SWAP1 SLOAD SWAP1 PUSH2 0x100 EXP SWAP1 DIV PUSH1 0xFF AND ISZERO PUSH2 0xED5 JUMPI PUSH1 0x40 MLOAD PUSH32 0x8C379A000000000000000000000000000000000000000000000000000000000 DUP2 MSTORE PUSH1 0x4 ADD PUSH2 0xECC SWAP1 PUSH2 0x318A JUMP JUMPDEST PUSH1 0x40 MLOAD DUP1 SWAP2 SUB SWAP1 REVERT JUMPDEST PUSH2 0xEDD PUSH2 0x180E JUMP JUMPDEST PUSH2 0xF1C JUMPI PUSH1 0x40 MLOAD PUSH32 0x8C379A000000000000000000000000000000000000000000000000000000000 DUP2 MSTORE PUSH1 0x4 ADD PUSH2 0xF13 SWAP1 PUSH2 0x32AA JUMP JUMPDEST PUSH1 0x40 MLOAD DUP1 SWAP2 SUB SWAP1 REVERT JUMPDEST PUSH2 0xF24 PUSH2 0x2A7E JUMP JUMPDEST PUSH20 0xFFFFFFFFFFFFFFFFFFFFFFFFFFFFFFFFFFFFFFFF AND PUSH2 0xF42 PUSH2 0x1EE0 JUMP JUMPDEST PUSH20 0xFFFFFFFFFFFFFFFFFFFFFFFFFFFFFFFFFFFFFFFF AND EQ PUSH2 0xF98 JUMPI PUSH1 0x40 MLOAD PUSH32 0x8C379A000000000000000000000000000000000000000000000000000000000 DUP2 MSTORE PUSH1 0x4 ADD PUSH2 0xF8F SWAP1 PUSH2 0x322A JUMP JUMPDEST PUSH1 0x40 MLOAD DUP1 SWAP2 SUB SWAP1 REVERT JUMPDEST PUSH1 0x1E PUSH2 0xFA2 PUSH2 0x1AFE JUMP JUMPDEST SLT ISZERO PUSH2 0xFE3 JUMPI PUSH1 0x40 MLOAD PUSH32 0x8C379A000000000000000000000000000000000000000000000000000000000 DUP2 MSTORE PUSH1 0x4 ADD PUSH2 0xFDA SWAP1 PUSH2 0x31AA JUMP JUMPDEST PUSH1 0x40 MLOAD DUP1 SWAP2 SUB SWAP1 REVERT JUMPDEST PUSH1 0x50 PUSH2 0xFED PUSH2 0xAA8 JUMP JUMPDEST SLT PUSH2 0x102D JUMPI PUSH1 0x40 MLOAD PUSH32 0x8C379A000000000000000000000000000000000000000000000000000000000 DUP2 MSTORE PUSH1 0x4 ADD PUSH2 0x1024 SWAP1 PUSH2 0x314A JUMP JUMPDEST PUSH1 0x40 MLOAD DUP1 SWAP2 SUB SWAP1 REVERT JUMPDEST PUSH1 0x50 PUSH2 0x1037 PUSH2 0xB3E JUMP JUMPDEST SLT PUSH2 0x1077 JUMPI PUSH1 0x40 MLOAD PUSH32 0x8C379A000000000000000000000000000000000000000000000000000000000 DUP2 MSTORE PUSH1 0x4 ADD PUSH2 0x106E SWAP1 PUSH2 0x326A JUMP JUMPDEST PUSH1 0x40 MLOAD DUP1 SWAP2 SUB SWAP1 REVERT JUMPDEST PUSH2 0x1095 PUSH1 0x0 PUSH1 0x14 PUSH2 0x1086 PUSH2 0x1AFE JUMP JUMPDEST PUSH2 0x1090 SWAP2 SWAP1 PUSH2 0x3515 JUMP JUMPDEST PUSH2 0x29E6 JUMP JUMPDEST PUSH2 0x10B3 PUSH1 0x1 PUSH1 0xA PUSH2 0x10A4 PUSH2 0x1F09 JUMP JUMPDEST PUSH2 0x10AE SWAP2 SWAP1 PUSH2 0x3515 JUMP JUMPDEST PUSH2 0x29E6 JUMP JUMPDEST PUSH2 0x10D1 PUSH1 0x5 PUSH1 0xF PUSH2 0x10C2 PUSH2 0xAA8 JUMP JUMPDEST PUSH2 0x10CC SWAP2 SWAP1 PUSH2 0x3336 JUMP JUMPDEST PUSH2 0x29E6 JUMP JUMPDEST PUSH2 0x10EF PUSH1 0x2 PUSH1 0xA PUSH2 0x10E0 PUSH2 0x3BC JUMP JUMPDEST PUSH2 0x10EA SWAP2 SWAP1 PUSH2 0x3515 JUMP JUMPDEST PUSH2 0x29E6 JUMP JUMPDEST JUMP JUMPDEST PUSH1 0x7 PUSH1 0x0 SWAP1 SLOAD SWAP1 PUSH2 0x100 EXP SWAP1 DIV PUSH1 0xFF AND ISZERO PUSH2 0x1141 JUMPI PUSH1 0x40 MLOAD PUSH32 0x8C379A000000000000000000000000000000000000000000000000000000000 DUP2 MSTORE PUSH1 0x4 ADD PUSH2 0x1138 SWAP1 PUSH2 0x318A JUMP JUMPDEST PUSH1 0x40 MLOAD DUP1 SWAP2 SUB SWAP1 REVERT JUMPDEST PUSH2 0x1149 PUSH2 0x180E JUMP JUMPDEST PUSH2 0x1188 JUMPI PUSH1 0x40 MLOAD PUSH32 0x8C379A000000000000000000000000000000000000000000000000000000000 DUP2 MSTORE PUSH1 0x4 ADD PUSH2 0x117F SWAP1 PUSH2 0x32AA JUMP JUMPDEST PUSH1 0x40 MLOAD DUP1 SWAP2 SUB SWAP1 REVERT JUMPDEST PUSH1 0x1E PUSH2 0x1192 PUSH2 0x1F09 JUMP JUMPDEST SLT ISZERO PUSH2 0x11D3 JUMPI PUSH1 0x40 MLOAD PUSH32 0x8C379A000000000000000000000000000000000000000000000000000000000 DUP2 MSTORE PUSH1 0x4 ADD PUSH2 0x11CA SWAP1 PUSH2 0x32EA JUMP JUMPDEST PUSH1 0x40 MLOAD DUP1 SWAP2 SUB SWAP1 REVERT JUMPDEST PUSH1 0x50 PUSH2 0x11DD PUSH2 0xAA8 JUMP JUMPDEST SLT PUSH2 0x121D JUMPI PUSH1 0x40 MLOAD PUSH32 0x8C379A000000000000000000000000000000000000000000000000000000000 DUP2 MSTORE PUSH1 0x4 ADD PUSH2 0x1214 SWAP1 PUSH2 0x314A JUMP JUMPDEST PUSH1 0x40 MLOAD DUP1 SWAP2 SUB SWAP1 REVERT JUMPDEST PUSH1 0x50 PUSH2 0x1227 PUSH2 0xB3E JUMP JUMPDEST SLT PUSH2 0x1267 JUMPI PUSH1 0x40 MLOAD PUSH32 0x8C379A000000000000000000000000000000000000000000000000000000000 DUP2 MSTORE PUSH1 0x4 ADD PUSH2 0x125E SWAP1 PUSH2 0x326A JUMP JUMPDEST PUSH1 0x40 MLOAD DUP1 SWAP2 SUB SWAP1 REVERT JUMPDEST PUSH2 0x12A3 PUSH1 0x3 PUSH1 0xA PUSH2 0x1276 PUSH2 0x1F09 JUMP JUMPDEST PUSH2 0x1280 SWAP2 SWAP1 PUSH2 0x3420 JUMP JUMPDEST PUSH1 0x5 PUSH2 0x128C SWAP2 SWAP1 PUSH2 0x3336 JUMP JUMPDEST PUSH2 0x1294 PUSH2 0x1949 JUMP JUMPDEST PUSH2 0x129E SWAP2 SWAP1 PUSH2 0x3515 JUMP JUMPDEST PUSH2 0x29E6 JUMP JUMPDEST PUSH2 0x12C1 PUSH1 0x0 PUSH1 0xA PUSH2 0x12B2 PUSH2 0x1AFE JUMP JUMPDEST PUSH2 0x12BC SWAP2 SWAP1 PUSH2 0x3515 JUMP JUMPDEST PUSH2 0x29E6 JUMP JUMPDEST PUSH2 0x12DF PUSH1 0x1 PUSH1 0x1E PUSH2 0x12D0 PUSH2 0x1F09 JUMP JUMPDEST PUSH2 0x12DA SWAP2 SWAP1 PUSH2 0x3515 JUMP JUMPDEST PUSH2 0x29E6 JUMP JUMPDEST PUSH2 0x12FD PUSH1 0x5 PUSH1 0xA PUSH2 0x12EE PUSH2 0xAA8 JUMP JUMPDEST PUSH2 0x12F8 SWAP2 SWAP1 PUSH2 0x3336 JUMP JUMPDEST PUSH2 0x29E6 JUMP JUMPDEST PUSH2 0x131B PUSH1 0x2 PUSH1 0xF PUSH2 0x130C PUSH2 0x3BC JUMP JUMPDEST PUSH2 0x1316 SWAP2 SWAP1 PUSH2 0x3515 JUMP JUMPDEST PUSH2 0x29E6 JUMP JUMPDEST PUSH2 0x1339 PUSH1 0x4 PUSH1 0x5 PUSH2 0x132A PUSH2 0xB3E JUMP JUMPDEST PUSH2 0x1334 SWAP2 SWAP1 PUSH2 0x3336 JUMP JUMPDEST PUSH2 0x29E6 JUMP JUMPDEST JUMP JUMPDEST PUSH1 0x7 PUSH1 0x0 SWAP1 SLOAD SWAP1 PUSH2 0x100 EXP SWAP1 DIV PUSH1 0xFF AND ISZERO PUSH2 0x138B JUMPI PUSH1 0x40 MLOAD PUSH32 0x8C379A000000000000000000000000000000000000000000000000000000000 DUP2 MSTORE PUSH1 0x4 ADD PUSH2 0x1382 SWAP1 PUSH2 0x318A JUMP JUMPDEST PUSH1 0x40 MLOAD DUP1 SWAP2 SUB SWAP1 REVERT JUMPDEST PUSH2 0x1393 PUSH2 0x180E JUMP JUMPDEST PUSH2 0x13D2 JUMPI PUSH1 0x40 MLOAD PUSH32 0x8C379A000000000000000000000000000000000000000000000000000000000 DUP2 MSTORE PUSH1 0x4 ADD PUSH2 0x13C9 SWAP1 PUSH2 0x32AA JUMP JUMPDEST PUSH1 0x40 MLOAD DUP1 SWAP2 SUB SWAP1 REVERT JUMPDEST PUSH1 0x1E PUSH2 0x13DC PUSH2 0x1F09 JUMP JUMPDEST SLT ISZERO PUSH2 0x141D JUMPI PUSH1 0x40 MLOAD PUSH32 0x8C379A000000000000000000000000000000000000000000000000000000000 DUP2 MSTORE PUSH1 0x4 ADD PUSH2 0x1414 SWAP1 PUSH2 0x32EA JUMP JUMPDEST PUSH1 0x40 MLOAD DUP1 SWAP2 SUB SWAP1 REVERT JUMPDEST PUSH1 0x50 PUSH2 0x1427 PUSH2 0xAA8 JUMP JUMPDEST SLT PUSH2 0x1467 JUMPI PUSH1 0x40 MLOAD PUSH32 0x8C379A000000000000000000000000000000000000000000000000000000000 DUP2 MSTORE PUSH1 0x4 ADD PUSH2 0x145E SWAP1 PUSH2 0x314A JUMP JUMPDEST PUSH1 0x40 MLOAD DUP1 SWAP2 SUB SWAP1 REVERT JUMPDEST PUSH1 0x50 PUSH2 0x1471 PUSH2 0xB3E JUMP JUMPDEST SLT PUSH2 0x14B1 JUMPI PUSH1 0x40 MLOAD PUSH32 0x8C379A000000000000000000000000000000000000000000000000000000000 DUP2 MSTORE PUSH1 0x4 ADD PUSH2 0x14A8 SWAP1 PUSH2 0x326A JUMP JUMPDEST PUSH1 0x40 MLOAD DUP1 SWAP2 SUB SWAP1 REVERT JUMPDEST PUSH2 0x14ED PUSH1 0x3 PUSH1 0xA PUSH2 0x14C0 PUSH2 0x1F09 JUMP JUMPDEST PUSH2 0x14CA SWAP2 SWAP1 PUSH2 0x3420 JUMP JUMPDEST PUSH1 0xF PUSH2 0x14D6 SWAP2 SWAP1 PUSH2 0x3336 JUMP JUMPDEST PUSH2 0x14DE PUSH2 0x1949 JUMP JUMPDEST PUSH2 0x14E8 SWAP2 SWAP1 PUSH2 0x3515 JUMP JUMPDEST PUSH2 0x29E6 JUMP JUMPDEST PUSH2 0x150B PUSH1 0x0 PUSH1 0xA PUSH2 0x14FC PUSH2 0x1AFE JUMP JUMPDEST PUSH2 0x1506 SWAP2 SWAP1 PUSH2 0x3515 JUMP JUMPDEST PUSH2 0x29E6 JUMP JUMPDEST PUSH2 0x1529 PUSH1 0x1 PUSH1 0x32 PUSH2 0x151A PUSH2 0x1F09 JUMP JUMPDEST PUSH2 0x1524 SWAP2 SWAP1 PUSH2 0x3515 JUMP JUMPDEST PUSH2 0x29E6 JUMP JUMPDEST PUSH2 0x1547 PUSH1 0x5 PUSH1 0xF PUSH2 0x1538 PUSH2 0xAA8 JUMP JUMPDEST PUSH2 0x1542 SWAP2 SWAP1 PUSH2 0x3336 JUMP JUMPDEST PUSH2 0x29E6 JUMP JUMPDEST PUSH2 0x1565 PUSH1 0x2 PUSH1 0xA PUSH2 0x1556 PUSH2 0x3BC JUMP JUMPDEST PUSH2 0x1560 SWAP2 SWAP1 PUSH2 0x3336 JUMP JUMPDEST PUSH2 0x29E6 JUMP JUMPDEST PUSH2 0x1583 PUSH1 0x4 PUSH1 0x5 PUSH2 0x1574 PUSH2 0xB3E JUMP JUMPDEST PUSH2 0x157E SWAP2 SWAP1 PUSH2 0x3336 JUMP JUMPDEST PUSH2 0x29E6 JUMP JUMPDEST JUMP JUMPDEST PUSH1 0x7 PUSH1 0x0 SWAP1 SLOAD SWAP1 PUSH2 0x100 EXP SWAP1 DIV PUSH1 0xFF AND ISZERO PUSH2 0x15D5 JUMPI PUSH1 0x40 MLOAD PUSH32 0x8C379A000000000000000000000000000000000000000000000000000000000 DUP2 MSTORE PUSH1 0x4 ADD PUSH2 0x15CC SWAP1 PUSH2 0x318A JUMP JUMPDEST PUSH1 0x40 MLOAD DUP1 SWAP2 SUB SWAP1 REVERT JUMPDEST PUSH2 0x15DD PUSH2 0x180E JUMP JUMPDEST PUSH2 0x161C JUMPI PUSH1 0x40 MLOAD PUSH32 0x8C379A000000000000000000000000000000000000000000000000000000000 DUP2 MSTORE PUSH1 0x4 ADD PUSH2 0x1613 SWAP1 PUSH2 0x32AA JUMP JUMPDEST PUSH1 0x40 MLOAD DUP1 SWAP2 SUB SWAP1 REVERT JUMPDEST PUSH2 0x1624 PUSH2 0x2A7E JUMP JUMPDEST PUSH20 0xFFFFFFFFFFFFFFFFFFFFFFFFFFFFFFFFFFFFFFFF AND PUSH2 0x1642 PUSH2 0x1EE0 JUMP JUMPDEST PUSH20 0xFFFFFFFFFFFFFFFFFFFFFFFFFFFFFFFFFFFFFFFF AND EQ PUSH2 0x1698 JUMPI PUSH1 0x40 MLOAD PUSH32 0x8C379A000000000000000000000000000000000000000000000000000000000 DUP2 MSTORE PUSH1 0x4 ADD PUSH2 0x168F SWAP1 PUSH2 0x322A JUMP JUMPDEST PUSH1 0x40 MLOAD DUP1 SWAP2 SUB SWAP1 REVERT JUMPDEST PUSH1 0x1E PUSH2 0x16A2 PUSH2 0x1AFE JUMP JUMPDEST SLT ISZERO PUSH2 0x16E3 JUMPI PUSH1 0x40 MLOAD PUSH32 0x8C379A000000000000000000000000000000000000000000000000000000000 DUP2 MSTORE PUSH1 0x4 ADD PUSH2 0x16DA SWAP1 PUSH2 0x31AA JUMP JUMPDEST PUSH1 0x40 MLOAD DUP1 SWAP2 SUB SWAP1 REVERT JUMPDEST PUSH1 0x50 PUSH2 0x16ED PUSH2 0xAA8 JUMP JUMPDEST SLT PUSH2 0x172D JUMPI PUSH1 0x40 MLOAD PUSH32 0x8C379A000000000000000000000000000000000000000000000000000000000 DUP2 MSTORE PUSH1 0x4 ADD PUSH2 0x1724 SWAP1 PUSH2 0x314A JUMP JUMPDEST PUSH1 0x40 MLOAD DUP1 SWAP2 SUB SWAP1 REVERT JUMPDEST PUSH1 0x50 PUSH2 0x1737 PUSH2 0xB3E JUMP JUMPDEST SLT PUSH2 0x1777 JUMPI PUSH1 0x40 MLOAD PUSH32 0x8C379A000000000000000000000000000000000000000000000000000000000 DUP2 MSTORE PUSH1 0x4 ADD PUSH2 0x176E SWAP1 PUSH2 0x326A JUMP JUMPDEST PUSH1 0x40 MLOAD DUP1 SWAP2 SUB SWAP1 REVERT JUMPDEST PUSH2 0x1782 PUSH1 0x0 DUP1 PUSH2 0x29E6 JUMP JUMPDEST PUSH2 0x17A0 PUSH1 0x1 PUSH1 0x2 PUSH2 0x1791 PUSH2 0x1F09 JUMP JUMPDEST PUSH2 0x179B SWAP2 SWAP1 PUSH2 0x3420 JUMP JUMPDEST PUSH2 0x29E6 JUMP JUMPDEST PUSH2 0x17BE PUSH1 0x5 PUSH1 0xF PUSH2 0x17AF PUSH2 0xAA8 JUMP JUMPDEST PUSH2 0x17B9 SWAP2 SWAP1 PUSH2 0x3336 JUMP JUMPDEST PUSH2 0x29E6 JUMP JUMPDEST PUSH2 0x17DC PUSH1 0x2 PUSH1 0xA PUSH2 0x17CD PUSH2 0x3BC JUMP JUMPDEST PUSH2 0x17D7 SWAP2 SWAP1 PUSH2 0x3515 JUMP JUMPDEST PUSH2 0x29E6 JUMP JUMPDEST PUSH2 0x180C PUSH1 0x3 PUSH1 0xA PUSH2 0x17EB PUSH2 0x1AFE JUMP JUMPDEST PUSH2 0x17F5 SWAP2 SWAP1 PUSH2 0x3420 JUMP JUMPDEST PUSH2 0x17FD PUSH2 0x1949 JUMP JUMPDEST PUSH2 0x1807 SWAP2 SWAP1 PUSH2 0x3515 JUMP JUMPDEST PUSH2 0x29E6 JUMP JUMPDEST JUMP JUMPDEST PUSH1 0x0 PUSH1 0x64 PUSH2 0x181A PUSH2 0x1AFE JUMP JUMPDEST SLT DUP1 ISZERO PUSH2 0x182E JUMPI POP PUSH1 0x64 PUSH2 0x182C PUSH2 0x1F09 JUMP JUMPDEST SLT JUMPDEST DUP1 ISZERO PUSH2 0x1841 JUMPI POP PUSH1 0x0 PUSH2 0x183F PUSH2 0x3BC JUMP JUMPDEST SGT JUMPDEST SWAP1 POP SWAP1 JUMP JUMPDEST PUSH2 0x184E PUSH2 0x180E JUMP JUMPDEST PUSH2 0x188D JUMPI PUSH1 0x40 MLOAD PUSH32 0x8C379A000000000000000000000000000000000000000000000000000000000 DUP2 MSTORE PUSH1 0x4 ADD PUSH2 0x1884 SWAP1 PUSH2 0x32AA JUMP JUMPDEST PUSH1 0x40 MLOAD DUP1 SWAP2 SUB SWAP1 REVERT JUMPDEST PUSH2 0x1895 PUSH2 0x2A7E JUMP JUMPDEST PUSH20 0xFFFFFFFFFFFFFFFFFFFFFFFFFFFFFFFFFFFFFFFF AND PUSH2 0x18B3 PUSH2 0x1EE0 JUMP JUMPDEST PUSH20 0xFFFFFFFFFFFFFFFFFFFFFFFFFFFFFFFFFFFFFFFF AND EQ PUSH2 0x1909 JUMPI PUSH1 0x40 MLOAD PUSH32 0x8C379A000000000000000000000000000000000000000000000000000000000 DUP2 MSTORE PUSH1 0x4 ADD PUSH2 0x1900 SWAP1 PUSH2 0x322A JUMP JUMPDEST PUSH1 0x40 MLOAD DUP1 SWAP2 SUB SWAP1 REVERT JUMPDEST PUSH1 0x0 PUSH1 0x3 PUSH1 0x0 PUSH1 0x2 PUSH1 0xB DUP2 GT ISZERO PUSH2 0x1923 JUMPI PUSH2 0x1922 PUSH2 0x36EF JUMP JUMPDEST JUMPDEST PUSH1 0xB DUP2 GT ISZERO PUSH2 0x1935 JUMPI PUSH2 0x1934 PUSH2 0x36EF JUMP JUMPDEST JUMPDEST DUP2 MSTORE PUSH1 0x20 ADD SWAP1 DUP2 MSTORE PUSH1 0x20 ADD PUSH1 0x0 KECCAK256 DUP2 SWAP1 SSTORE POP JUMP JUMPDEST PUSH1 0x0 PUSH1 0x7 PUSH1 0x0 SWAP1 SLOAD SWAP1 PUSH2 0x100 EXP SWAP1 DIV PUSH1 0xFF AND ISZERO PUSH2 0x19A0 JUMPI PUSH1 0x3 PUSH1 0x0 PUSH1 0x3 PUSH1 0xB DUP2 GT ISZERO PUSH2 0x1978 JUMPI PUSH2 0x1977 PUSH2 0x36EF JUMP JUMPDEST JUMPDEST PUSH1 0xB DUP2 GT ISZERO PUSH2 0x198A JUMPI PUSH2 0x1989 PUSH2 0x36EF JUMP JUMPDEST JUMPDEST DUP2 MSTORE PUSH1 0x20 ADD SWAP1 DUP2 MSTORE PUSH1 0x20 ADD PUSH1 0x0 KECCAK256 SLOAD SWAP1 POP PUSH2 0x19DC JUMP JUMPDEST PUSH1 0x3 PUSH1 0x0 PUSH1 0x3 PUSH1 0xB DUP2 GT ISZERO PUSH2 0x19B8 JUMPI PUSH2 0x19B7 PUSH2 0x36EF JUMP JUMPDEST JUMPDEST PUSH1 0xB DUP2 GT ISZERO PUSH2 0x19CA JUMPI PUSH2 0x19C9 PUSH2 0x36EF JUMP JUMPDEST JUMPDEST DUP2 MSTORE PUSH1 0x20 ADD SWAP1 DUP2 MSTORE PUSH1 0x20 ADD PUSH1 0x0 KECCAK256 SLOAD SWAP1 POP JUMPDEST SWAP1 JUMP JUMPDEST PUSH1 0x7 PUSH1 0x0 SWAP1 SLOAD SWAP1 PUSH2 0x100 EXP SWAP1 DIV PUSH1 0xFF AND ISZERO PUSH2 0x1A2F JUMPI PUSH1 0x40 MLOAD PUSH32 0x8C379A000000000000000000000000000000000000000000000000000000000 DUP2 MSTORE PUSH1 0x4 ADD PUSH2 0x1A26 SWAP1 PUSH2 0x318A JUMP JUMPDEST PUSH1 0x40 MLOAD DUP1 SWAP2 SUB SWAP1 REVERT JUMPDEST PUSH2 0x1A37 PUSH2 0x180E JUMP JUMPDEST PUSH2 0x1A76 JUMPI PUSH1 0x40 MLOAD PUSH32 0x8C379A000000000000000000000000000000000000000000000000000000000 DUP2 MSTORE PUSH1 0x4 ADD PUSH2 0x1A6D SWAP1 PUSH2 0x32AA JUMP JUMPDEST PUSH1 0x40 MLOAD DUP1 SWAP2 SUB SWAP1 REVERT JUMPDEST PUSH1 0x46 PUSH2 0x1A80 PUSH2 0xAA8 JUMP JUMPDEST SGT PUSH2 0x1AC0 JUMPI PUSH1 0x40 MLOAD PUSH32 0x8C379A000000000000000000000000000000000000000000000000000000000 DUP2 MSTORE PUSH1 0x4 ADD PUSH2 0x1AB7 SWAP1 PUSH2 0x314A JUMP JUMPDEST PUSH1 0x40 MLOAD DUP1 SWAP2 SUB SWAP1 REVERT JUMPDEST PUSH2 0x1ADE PUSH1 0x5 PUSH1 0x14 PUSH2 0x1ACF PUSH2 0xAA8 JUMP JUMPDEST PUSH2 0x1AD9 SWAP2 SWAP1 PUSH2 0x3515 JUMP JUMPDEST PUSH2 0x29E6 JUMP JUMPDEST PUSH2 0x1AFC PUSH1 0x3 PUSH1 0xA PUSH2 0x1AED PUSH2 0x1949 JUMP JUMPDEST PUSH2 0x1AF7 SWAP2 SWAP1 PUSH2 0x3336 JUMP JUMPDEST PUSH2 0x29E6 JUMP JUMPDEST JUMP JUMPDEST PUSH1 0x0 PUSH1 0x7 PUSH1 0x0 SWAP1 SLOAD SWAP1 PUSH2 0x100 EXP SWAP1 DIV PUSH1 0xFF AND ISZERO PUSH2 0x1B54 JUMPI PUSH1 0x3 PUSH1 0x0 DUP1 PUSH1 0xB DUP2 GT ISZERO PUSH2 0x1B2C JUMPI PUSH2 0x1B2B PUSH2 0x36EF JUMP JUMPDEST JUMPDEST PUSH1 0xB DUP2 GT ISZERO PUSH2 0x1B3E JUMPI PUSH2 0x1B3D PUSH2 0x36EF JUMP JUMPDEST JUMPDEST DUP2 MSTORE PUSH1 0x20 ADD SWAP1 DUP2 MSTORE PUSH1 0x20 ADD PUSH1 0x0 KECCAK256 SLOAD SWAP1 POP PUSH2 0x1B8F JUMP JUMPDEST PUSH1 0x3 PUSH1 0x0 DUP1 PUSH1 0xB DUP2 GT ISZERO PUSH2 0x1B6B JUMPI PUSH2 0x1B6A PUSH2 0x36EF JUMP JUMPDEST JUMPDEST PUSH1 0xB DUP2 GT ISZERO PUSH2 0x1B7D JUMPI PUSH2 0x1B7C PUSH2 0x36EF JUMP JUMPDEST JUMPDEST DUP2 MSTORE PUSH1 0x20 ADD SWAP1 DUP2 MSTORE PUSH1 0x20 ADD PUSH1 0x0 KECCAK256 SLOAD SWAP1 POP JUMPDEST SWAP1 JUMP JUMPDEST PUSH1 0x7 PUSH1 0x0 SWAP1 SLOAD SWAP1 PUSH2 0x100 EXP SWAP1 DIV PUSH1 0xFF AND ISZERO PUSH2 0x1BE2 JUMPI PUSH1 0x40 MLOAD PUSH32 0x8C379A000000000000000000000000000000000000000000000000000000000 DUP2 MSTORE PUSH1 0x4 ADD PUSH2 0x1BD9 SWAP1 PUSH2 0x318A JUMP JUMPDEST PUSH1 0x40 MLOAD DUP1 SWAP2 SUB SWAP1 REVERT JUMPDEST PUSH2 0x1BEA PUSH2 0x180E JUMP JUMPDEST PUSH2 0x1C29 JUMPI PUSH1 0x40 MLOAD PUSH32 0x8C379A000000000000000000000000000000000000000000000000000000000 DUP2 MSTORE PUSH1 0x4 ADD PUSH2 0x1C20 SWAP1 PUSH2 0x32AA JUMP JUMPDEST PUSH1 0x40 MLOAD DUP1 SWAP2 SUB SWAP1 REVERT JUMPDEST PUSH2 0x1C31 PUSH2 0x2A7E JUMP JUMPDEST PUSH20 0xFFFFFFFFFFFFFFFFFFFFFFFFFFFFFFFFFFFFFFFF AND PUSH2 0x1C4F PUSH2 0x1EE0 JUMP JUMPDEST PUSH20 0xFFFFFFFFFFFFFFFFFFFFFFFFFFFFFFFFFFFFFFFF AND EQ PUSH2 0x1CA5 JUMPI PUSH1 0x40 MLOAD PUSH32 0x8C379A000000000000000000000000000000000000000000000000000000000 DUP2 MSTORE PUSH1 0x4 ADD PUSH2 0x1C9C SWAP1 PUSH2 0x322A JUMP JUMPDEST PUSH1 0x40 MLOAD DUP1 SWAP2 SUB SWAP1 REVERT JUMPDEST PUSH1 0x1E PUSH2 0x1CAF PUSH2 0x1AFE JUMP JUMPDEST SLT ISZERO PUSH2 0x1CF0 JUMPI PUSH1 0x40 MLOAD PUSH32 0x8C379A000000000000000000000000000000000000000000000000000000000 DUP2 MSTORE PUSH1 0x4 ADD PUSH2 0x1CE7 SWAP1 PUSH2 0x31AA JUMP JUMPDEST PUSH1 0x40 MLOAD DUP1 SWAP2 SUB SWAP1 REVERT JUMPDEST PUSH1 0x50 PUSH2 0x1CFA PUSH2 0xAA8 JUMP JUMPDEST SLT PUSH2 0x1D3A JUMPI PUSH1 0x40 MLOAD PUSH32 0x8C379A000000000000000000000000000000000000000000000000000000000 DUP2 MSTORE PUSH1 0x4 ADD PUSH2 0x1D31 SWAP1 PUSH2 0x314A JUMP JUMPDEST PUSH1 0x40 MLOAD DUP1 SWAP2 SUB SWAP1 REVERT JUMPDEST PUSH1 0x50 PUSH2 0x1D44 PUSH2 0xB3E JUMP JUMPDEST SLT PUSH2 0x1D84 JUMPI PUSH1 0x40 MLOAD PUSH32 0x8C379A000000000000000000000000000000000000000000000000000000000 DUP2 MSTORE PUSH1 0x4 ADD PUSH2 0x1D7B SWAP1 PUSH2 0x326A JUMP JUMPDEST PUSH1 0x40 MLOAD DUP1 SWAP2 SUB SWAP1 REVERT JUMPDEST PUSH2 0x1DC0 PUSH1 0x3 PUSH1 0xA PUSH2 0x1D93 PUSH2 0x1AFE JUMP JUMPDEST PUSH2 0x1D9D SWAP2 SWAP1 PUSH2 0x3420 JUMP JUMPDEST PUSH1 0xA PUSH2 0x1DA7 PUSH2 0x1949 JUMP JUMPDEST PUSH2 0x1DB1 SWAP2 SWAP1 PUSH2 0x3336 JUMP JUMPDEST PUSH2 0x1DBB SWAP2 SWAP1 PUSH2 0x3336 JUMP JUMPDEST PUSH2 0x29E6 JUMP JUMPDEST PUSH2 0x1DDE PUSH1 0x0 PUSH1 0x1E PUSH2 0x1DCF PUSH2 0x1AFE JUMP JUMPDEST PUSH2 0x1DD9 SWAP2 SWAP1 PUSH2 0x3515 JUMP JUMPDEST PUSH2 0x29E6 JUMP JUMPDEST PUSH2 0x1DFC PUSH1 0x1 PUSH1 0xA PUSH2 0x1DED PUSH2 0x1F09 JUMP JUMPDEST PUSH2 0x1DF7 SWAP2 SWAP1 PUSH2 0x3336 JUMP JUMPDEST PUSH2 0x29E6 JUMP JUMPDEST PUSH2 0x1E1A PUSH1 0x5 PUSH1 0x14 PUSH2 0x1E0B PUSH2 0xAA8 JUMP JUMPDEST PUSH2 0x1E15 SWAP2 SWAP1 PUSH2 0x3336 JUMP JUMPDEST PUSH2 0x29E6 JUMP JUMPDEST PUSH2 0x1E38 PUSH1 0x2 PUSH1 0xA PUSH2 0x1E29 PUSH2 0x3BC JUMP JUMPDEST PUSH2 0x1E33 SWAP2 SWAP1 PUSH2 0x3336 JUMP JUMPDEST PUSH2 0x29E6 JUMP JUMPDEST PUSH2 0x1E56 PUSH1 0x4 PUSH1 0xA PUSH2 0x1E47 PUSH2 0xB3E JUMP JUMPDEST PUSH2 0x1E51 SWAP2 SWAP1 PUSH2 0x3336 JUMP JUMPDEST PUSH2 0x29E6 JUMP JUMPDEST JUMP JUMPDEST PUSH2 0x1E60 PUSH2 0x2A7E JUMP JUMPDEST PUSH20 0xFFFFFFFFFFFFFFFFFFFFFFFFFFFFFFFFFFFFFFFF AND PUSH2 0x1E7E PUSH2 0x1EE0 JUMP JUMPDEST PUSH20 0xFFFFFFFFFFFFFFFFFFFFFFFFFFFFFFFFFFFFFFFF AND EQ PUSH2 0x1ED4 JUMPI PUSH1 0x40 MLOAD PUSH32 0x8C379A000000000000000000000000000000000000000000000000000000000 DUP2 MSTORE PUSH1 0x4 ADD PUSH2 0x1ECB SWAP1 PUSH2 0x322A JUMP JUMPDEST PUSH1 0x40 MLOAD DUP1 SWAP2 SUB SWAP1 REVERT JUMPDEST PUSH2 0x1EDE PUSH1 0x0 PUSH2 0x2B8E JUMP JUMPDEST JUMP JUMPDEST PUSH1 0x0 DUP1 PUSH1 0x0 SWAP1 SLOAD SWAP1 PUSH2 0x100 EXP SWAP1 DIV PUSH20 0xFFFFFFFFFFFFFFFFFFFFFFFFFFFFFFFFFFFFFFFF AND SWAP1 POP SWAP1 JUMP JUMPDEST PUSH1 0x0 PUSH1 0x7 PUSH1 0x0 SWAP1 SLOAD SWAP1 PUSH2 0x100 EXP SWAP1 DIV PUSH1 0xFF AND ISZERO PUSH2 0x1F60 JUMPI PUSH1 0x3 PUSH1 0x0 PUSH1 0x1 PUSH1 0xB DUP2 GT ISZERO PUSH2 0x1F38 JUMPI PUSH2 0x1F37 PUSH2 0x36EF JUMP JUMPDEST JUMPDEST PUSH1 0xB DUP2 GT ISZERO PUSH2 0x1F4A JUMPI PUSH2 0x1F49 PUSH2 0x36EF JUMP JUMPDEST JUMPDEST DUP2 MSTORE PUSH1 0x20 ADD SWAP1 DUP2 MSTORE PUSH1 0x20 ADD PUSH1 0x0 KECCAK256 SLOAD SWAP1 POP PUSH2 0x1F9C JUMP JUMPDEST PUSH1 0x3 PUSH1 0x0 PUSH1 0x1 PUSH1 0xB DUP2 GT ISZERO PUSH2 0x1F78 JUMPI PUSH2 0x1F77 PUSH2 0x36EF JUMP JUMPDEST JUMPDEST PUSH1 0xB DUP2 GT ISZERO PUSH2 0x1F8A JUMPI PUSH2 0x1F89 PUSH2 0x36EF JUMP JUMPDEST JUMPDEST DUP2 MSTORE PUSH1 0x20 ADD SWAP1 DUP2 MSTORE PUSH1 0x20 ADD PUSH1 0x0 KECCAK256 SLOAD SWAP1 POP JUMPDEST SWAP1 JUMP JUMPDEST PUSH2 0x1FA7 PUSH2 0x180E JUMP JUMPDEST ISZERO PUSH2 0x1FE7 JUMPI PUSH1 0x40 MLOAD PUSH32 0x8C379A000000000000000000000000000000000000000000000000000000000 DUP2 MSTORE PUSH1 0x4 ADD PUSH2 0x1FDE SWAP1 PUSH2 0x328A JUMP JUMPDEST PUSH1 0x40 MLOAD DUP1 SWAP2 SUB SWAP1 REVERT JUMPDEST PUSH2 0x1FEF PUSH2 0x2A7E JUMP JUMPDEST PUSH20 0xFFFFFFFFFFFFFFFFFFFFFFFFFFFFFFFFFFFFFFFF AND PUSH2 0x200D PUSH2 0x1EE0 JUMP JUMPDEST PUSH20 0xFFFFFFFFFFFFFFFFFFFFFFFFFFFFFFFFFFFFFFFF AND EQ PUSH2 0x2063 JUMPI PUSH1 0x40 MLOAD PUSH32 0x8C379A000000000000000000000000000000000000000000000000000000000 DUP2 MSTORE PUSH1 0x4 ADD PUSH2 0x205A SWAP1 PUSH2 0x322A JUMP JUMPDEST PUSH1 0x40 MLOAD DUP1 SWAP2 SUB SWAP1 REVERT JUMPDEST PUSH1 0x64 PUSH1 0x3 PUSH1 0x0 PUSH1 0x2 PUSH1 0xB DUP2 GT ISZERO PUSH2 0x207D JUMPI PUSH2 0x207C PUSH2 0x36EF JUMP JUMPDEST JUMPDEST PUSH1 0xB DUP2 GT ISZERO PUSH2 0x208F JUMPI PUSH2 0x208E PUSH2 0x36EF JUMP JUMPDEST JUMPDEST DUP2 MSTORE PUSH1 0x20 ADD SWAP1 DUP2 MSTORE PUSH1 0x20 ADD PUSH1 0x0 KECCAK256 DUP2 SWAP1 SSTORE POP JUMP JUMPDEST PUSH1 0x0 PUSH1 0x7 PUSH1 0x0 SWAP1 SLOAD SWAP1 PUSH2 0x100 EXP SWAP1 DIV PUSH1 0xFF AND PUSH2 0x20F4 JUMPI PUSH1 0x40 MLOAD PUSH32 0x8C379A000000000000000000000000000000000000000000000000000000000 DUP2 MSTORE PUSH1 0x4 ADD PUSH2 0x20EB SWAP1 PUSH2 0x30CA JUMP JUMPDEST PUSH1 0x40 MLOAD DUP1 SWAP2 SUB SWAP1 REVERT JUMPDEST PUSH1 0x3C PUSH1 0xA SLOAD TIMESTAMP PUSH2 0x2104 SWAP2 SWAP1 PUSH2 0x35A9 JUMP JUMPDEST PUSH2 0x210E SWAP2 SWAP1 PUSH2 0x348A JUMP JUMPDEST SWAP1 POP SWAP1 JUMP JUMPDEST PUSH1 0x7 PUSH1 0x0 SWAP1 SLOAD SWAP1 PUSH2 0x100 EXP SWAP1 DIV PUSH1 0xFF AND ISZERO PUSH2 0x2163 JUMPI PUSH1 0x40 MLOAD PUSH32 0x8C379A000000000000000000000000000000000000000000000000000000000 DUP2 MSTORE PUSH1 0x4 ADD PUSH2 0x215A SWAP1 PUSH2 0x318A JUMP JUMPDEST PUSH1 0x40 MLOAD DUP1 SWAP2 SUB SWAP1 REVERT JUMPDEST PUSH2 0x216B PUSH2 0x180E JUMP JUMPDEST PUSH2 0x21AA JUMPI PUSH1 0x40 MLOAD PUSH32 0x8C379A000000000000000000000000000000000000000000000000000000000 DUP2 MSTORE PUSH1 0x4 ADD PUSH2 0x21A1 SWAP1 PUSH2 0x32AA JUMP JUMPDEST PUSH1 0x40 MLOAD DUP1 SWAP2 SUB SWAP1 REVERT JUMPDEST PUSH1 0x1E PUSH2 0x21B4 PUSH2 0x1F09 JUMP JUMPDEST SLT ISZERO PUSH2 0x21F5 JUMPI PUSH1 0x40 MLOAD PUSH32 0x8C379A000000000000000000000000000000000000000000000000000000000 DUP2 MSTORE PUSH1 0x4 ADD PUSH2 0x21EC SWAP1 PUSH2 0x32EA JUMP JUMPDEST PUSH1 0x40 MLOAD DUP1 SWAP2 SUB SWAP1 REVERT JUMPDEST PUSH1 0x50 PUSH2 0x21FF PUSH2 0xAA8 JUMP JUMPDEST SLT PUSH2 0x223F JUMPI PUSH1 0x40 MLOAD PUSH32 0x8C379A000000000000000000000000000000000000000000000000000000000 DUP2 MSTORE PUSH1 0x4 ADD PUSH2 0x2236 SWAP1 PUSH2 0x314A JUMP JUMPDEST PUSH1 0x40 MLOAD DUP1 SWAP2 SUB SWAP1 REVERT JUMPDEST PUSH1 0x50 PUSH2 0x2249 PUSH2 0xB3E JUMP JUMPDEST SLT PUSH2 0x2289 JUMPI PUSH1 0x40 MLOAD PUSH32 0x8C379A000000000000000000000000000000000000000000000000000000000 DUP2 MSTORE PUSH1 0x4 ADD PUSH2 0x2280 SWAP1 PUSH2 0x326A JUMP JUMPDEST PUSH1 0x40 MLOAD DUP1 SWAP2 SUB SWAP1 REVERT JUMPDEST PUSH2 0x22B9 PUSH1 0x3 PUSH1 0xA PUSH2 0x2298 PUSH2 0x1F09 JUMP JUMPDEST PUSH2 0x22A2 SWAP2 SWAP1 PUSH2 0x3420 JUMP JUMPDEST PUSH2 0x22AA PUSH2 0x1949 JUMP JUMPDEST PUSH2 0x22B4 SWAP2 SWAP1 PUSH2 0x3515 JUMP JUMPDEST PUSH2 0x29E6 JUMP JUMPDEST PUSH2 0x22D7 PUSH1 0x1 PUSH1 0x32 PUSH2 0x22C8 PUSH2 0x1F09 JUMP JUMPDEST PUSH2 0x22D2 SWAP2 SWAP1 PUSH2 0x3515 JUMP JUMPDEST PUSH2 0x29E6 JUMP JUMPDEST PUSH2 0x22F5 PUSH1 0x2 PUSH1 0xA PUSH2 0x22E6 PUSH2 0x3BC JUMP JUMPDEST PUSH2 0x22F0 SWAP2 SWAP1 PUSH2 0x3515 JUMP JUMPDEST PUSH2 0x29E6 JUMP JUMPDEST JUMP JUMPDEST PUSH1 0x7 PUSH1 0x0 SWAP1 SLOAD SWAP1 PUSH2 0x100 EXP SWAP1 DIV PUSH1 0xFF AND ISZERO PUSH2 0x2347 JUMPI PUSH1 0x40 MLOAD PUSH32 0x8C379A000000000000000000000000000000000000000000000000000000000 DUP2 MSTORE PUSH1 0x4 ADD PUSH2 0x233E SWAP1 PUSH2 0x318A JUMP JUMPDEST PUSH1 0x40 MLOAD DUP1 SWAP2 SUB SWAP1 REVERT JUMPDEST PUSH2 0x234F PUSH2 0x180E JUMP JUMPDEST PUSH2 0x238E JUMPI PUSH1 0x40 MLOAD PUSH32 0x8C379A000000000000000000000000000000000000000000000000000000000 DUP2 MSTORE PUSH1 0x4 ADD PUSH2 0x2385 SWAP1 PUSH2 0x32AA JUMP JUMPDEST PUSH1 0x40 MLOAD DUP1 SWAP2 SUB SWAP1 REVERT JUMPDEST PUSH1 0x46 PUSH2 0x2398 PUSH2 0x1F09 JUMP JUMPDEST SLT PUSH2 0x23D8 JUMPI PUSH1 0x40 MLOAD PUSH32 0x8C379A000000000000000000000000000000000000000000000000000000000 DUP2 MSTORE PUSH1 0x4 ADD PUSH2 0x23CF SWAP1 PUSH2 0x30AA JUMP JUMPDEST PUSH1 0x40 MLOAD DUP1 SWAP2 SUB SWAP1 REVERT JUMPDEST PUSH1 0x46 PUSH2 0x23E2 PUSH2 0xB3E JUMP JUMPDEST SLT PUSH2 0x2422 JUMPI PUSH1 0x40 MLOAD PUSH32 0x8C379A000000000000000000000000000000000000000000000000000000000 DUP2 MSTORE PUSH1 0x4 ADD PUSH2 0x2419 SWAP1 PUSH2 0x310A JUMP JUMPDEST PUSH1 0x40 MLOAD DUP1 SWAP2 SUB SWAP1 REVERT JUMPDEST PUSH2 0x2440 PUSH1 0x2 PUSH1 0x19 PUSH2 0x2431 PUSH2 0x3BC JUMP JUMPDEST PUSH2 0x243B SWAP2 SWAP1 PUSH2 0x3515 JUMP JUMPDEST PUSH2 0x29E6 JUMP JUMPDEST PUSH2 0x245E PUSH1 0x3 PUSH1 0xA PUSH2 0x244F PUSH2 0x1949 JUMP JUMPDEST PUSH2 0x2459 SWAP2 SWAP1 PUSH2 0x3515 JUMP JUMPDEST PUSH2 0x29E6 JUMP JUMPDEST PUSH2 0x247C PUSH1 0x4 PUSH1 0x1E PUSH2 0x246D PUSH2 0xB3E JUMP JUMPDEST PUSH2 0x2477 SWAP2 SWAP1 PUSH2 0x3336 JUMP JUMPDEST PUSH2 0x29E6 JUMP JUMPDEST PUSH2 0x249A PUSH1 0x1 PUSH1 0x1E PUSH2 0x248B PUSH2 0x1F09 JUMP JUMPDEST PUSH2 0x2495 SWAP2 SWAP1 PUSH2 0x3336 JUMP JUMPDEST PUSH2 0x29E6 JUMP JUMPDEST JUMP JUMPDEST PUSH1 0x7 PUSH1 0x0 SWAP1 SLOAD SWAP1 PUSH2 0x100 EXP SWAP1 DIV PUSH1 0xFF AND ISZERO PUSH2 0x24EC JUMPI PUSH1 0x40 MLOAD PUSH32 0x8C379A000000000000000000000000000000000000000000000000000000000 DUP2 MSTORE PUSH1 0x4 ADD PUSH2 0x24E3 SWAP1 PUSH2 0x318A JUMP JUMPDEST PUSH1 0x40 MLOAD DUP1 SWAP2 SUB SWAP1 REVERT JUMPDEST PUSH2 0x24F4 PUSH2 0x180E JUMP JUMPDEST PUSH2 0x2533 JUMPI PUSH1 0x40 MLOAD PUSH32 0x8C379A000000000000000000000000000000000000000000000000000000000 DUP2 MSTORE PUSH1 0x4 ADD PUSH2 0x252A SWAP1 PUSH2 0x32AA JUMP JUMPDEST PUSH1 0x40 MLOAD DUP1 SWAP2 SUB SWAP1 REVERT JUMPDEST PUSH2 0x253B PUSH2 0x2A7E JUMP JUMPDEST PUSH20 0xFFFFFFFFFFFFFFFFFFFFFFFFFFFFFFFFFFFFFFFF AND PUSH2 0x2559 PUSH2 0x1EE0 JUMP JUMPDEST PUSH20 0xFFFFFFFFFFFFFFFFFFFFFFFFFFFFFFFFFFFFFFFF AND EQ PUSH2 0x25AF JUMPI PUSH1 0x40 MLOAD PUSH32 0x8C379A000000000000000000000000000000000000000000000000000000000 DUP2 MSTORE PUSH1 0x4 ADD PUSH2 0x25A6 SWAP1 PUSH2 0x322A JUMP JUMPDEST PUSH1 0x40 MLOAD DUP1 SWAP2 SUB SWAP1 REVERT JUMPDEST PUSH1 0x1E PUSH2 0x25B9 PUSH2 0x1AFE JUMP JUMPDEST SLT ISZERO PUSH2 0x25FA JUMPI PUSH1 0x40 MLOAD PUSH32 0x8C379A000000000000000000000000000000000000000000000000000000000 DUP2 MSTORE PUSH1 0x4 ADD PUSH2 0x25F1 SWAP1 PUSH2 0x31AA JUMP JUMPDEST PUSH1 0x40 MLOAD DUP1 SWAP2 SUB SWAP1 REVERT JUMPDEST PUSH1 0x50 PUSH2 0x2604 PUSH2 0xAA8 JUMP JUMPDEST SLT PUSH2 0x2644 JUMPI PUSH1 0x40 MLOAD PUSH32 0x8C379A000000000000000000000000000000000000000000000000000000000 DUP2 MSTORE PUSH1 0x4 ADD PUSH2 0x263B SWAP1 PUSH2 0x314A JUMP JUMPDEST PUSH1 0x40 MLOAD DUP1 SWAP2 SUB SWAP1 REVERT JUMPDEST PUSH1 0x50 PUSH2 0x264E PUSH2 0xB3E JUMP JUMPDEST SLT PUSH2 0x268E JUMPI PUSH1 0x40 MLOAD PUSH32 0x8C379A000000000000000000000000000000000000000000000000000000000 DUP2 MSTORE PUSH1 0x4 ADD PUSH2 0x2685 SWAP1 PUSH2 0x326A JUMP JUMPDEST PUSH1 0x40 MLOAD DUP1 SWAP2 SUB SWAP1 REVERT JUMPDEST PUSH2 0x26AC PUSH1 0x0 PUSH1 0x14 PUSH2 0x269D PUSH2 0x1AFE JUMP JUMPDEST PUSH2 0x26A7 SWAP2 SWAP1 PUSH2 0x3515 JUMP JUMPDEST PUSH2 0x29E6 JUMP JUMPDEST PUSH2 0x26CA PUSH1 0x5 PUSH1 0xA PUSH2 0x26BB PUSH2 0xAA8 JUMP JUMPDEST PUSH2 0x26C5 SWAP2 SWAP1 PUSH2 0x3336 JUMP JUMPDEST PUSH2 0x29E6 JUMP JUMPDEST PUSH2 0x26E8 PUSH1 0x2 PUSH1 0xF PUSH2 0x26D9 PUSH2 0x3BC JUMP JUMPDEST PUSH2 0x26E3 SWAP2 SWAP1 PUSH2 0x3515 JUMP JUMPDEST PUSH2 0x29E6 JUMP JUMPDEST PUSH2 0x2706 PUSH1 0x3 PUSH1 0xA PUSH2 0x26F7 PUSH2 0x1949 JUMP JUMPDEST PUSH2 0x2701 SWAP2 SWAP1 PUSH2 0x3336 JUMP JUMPDEST PUSH2 0x29E6 JUMP JUMPDEST JUMP JUMPDEST PUSH2 0x2710 PUSH2 0x2A7E JUMP JUMPDEST PUSH20 0xFFFFFFFFFFFFFFFFFFFFFFFFFFFFFFFFFFFFFFFF AND PUSH2 0x272E PUSH2 0x1EE0 JUMP JUMPDEST PUSH20 0xFFFFFFFFFFFFFFFFFFFFFFFFFFFFFFFFFFFFFFFF AND EQ PUSH2 0x2784 JUMPI PUSH1 0x40 MLOAD PUSH32 0x8C379A000000000000000000000000000000000000000000000000000000000 DUP2 MSTORE PUSH1 0x4 ADD PUSH2 0x277B SWAP1 PUSH2 0x322A JUMP JUMPDEST PUSH1 0x40 MLOAD DUP1 SWAP2 SUB SWAP1 REVERT JUMPDEST PUSH1 0x0 PUSH20 0xFFFFFFFFFFFFFFFFFFFFFFFFFFFFFFFFFFFFFFFF AND DUP2 PUSH20 0xFFFFFFFFFFFFFFFFFFFFFFFFFFFFFFFFFFFFFFFF AND EQ ISZERO PUSH2 0x27F4 JUMPI PUSH1 0x40 MLOAD PUSH32 0x8C379A000000000000000000000000000000000000000000000000000000000 DUP2 MSTORE PUSH1 0x4 ADD PUSH2 0x27EB SWAP1 PUSH2 0x30EA JUMP JUMPDEST PUSH1 0x40 MLOAD DUP1 SWAP2 SUB SWAP1 REVERT JUMPDEST PUSH2 0x27FD DUP2 PUSH2 0x2B8E JUMP JUMPDEST POP JUMP JUMPDEST PUSH1 0x7 PUSH1 0x0 SWAP1 SLOAD SWAP1 PUSH2 0x100 EXP SWAP1 DIV PUSH1 0xFF AND ISZERO PUSH2 0x2850 JUMPI PUSH1 0x40 MLOAD PUSH32 0x8C379A000000000000000000000000000000000000000000000000000000000 DUP2 MSTORE PUSH1 0x4 ADD PUSH2 0x2847 SWAP1 PUSH2 0x318A JUMP JUMPDEST PUSH1 0x40 MLOAD DUP1 SWAP2 SUB SWAP1 REVERT JUMPDEST PUSH2 0x2858 PUSH2 0x180E JUMP JUMPDEST PUSH2 0x2897 JUMPI PUSH1 0x40 MLOAD PUSH32 0x8C379A000000000000000000000000000000000000000000000000000000000 DUP2 MSTORE PUSH1 0x4 ADD PUSH2 0x288E SWAP1 PUSH2 0x32AA JUMP JUMPDEST PUSH1 0x40 MLOAD DUP1 SWAP2 SUB SWAP1 REVERT JUMPDEST PUSH2 0x28B5 PUSH1 0x5 PUSH1 0x32 PUSH2 0x28A6 PUSH2 0xAA8 JUMP JUMPDEST PUSH2 0x28B0 SWAP2 SWAP1 PUSH2 0x3515 JUMP JUMPDEST PUSH2 0x29E6 JUMP JUMPDEST PUSH2 0x28D3 PUSH1 0x3 PUSH1 0x14 PUSH2 0x28C4 PUSH2 0x1949 JUMP JUMPDEST PUSH2 0x28CE SWAP2 SWAP1 PUSH2 0x3336 JUMP JUMPDEST PUSH2 0x29E6 JUMP JUMPDEST PUSH2 0x28F1 PUSH1 0x4 PUSH1 0xA PUSH2 0x28E2 PUSH2 0xB3E JUMP JUMPDEST PUSH2 0x28EC SWAP2 SWAP1 PUSH2 0x3336 JUMP JUMPDEST PUSH2 0x29E6 JUMP JUMPDEST JUMP JUMPDEST PUSH1 0x7 PUSH1 0x0 SWAP1 SLOAD SWAP1 PUSH2 0x100 EXP SWAP1 DIV PUSH1 0xFF AND ISZERO PUSH2 0x2943 JUMPI PUSH1 0x40 MLOAD PUSH32 0x8C379A000000000000000000000000000000000000000000000000000000000 DUP2 MSTORE PUSH1 0x4 ADD PUSH2 0x293A SWAP1 PUSH2 0x318A JUMP JUMPDEST PUSH1 0x40 MLOAD DUP1 SWAP2 SUB SWAP1 REVERT JUMPDEST PUSH2 0x294B PUSH2 0x180E JUMP JUMPDEST PUSH2 0x298A JUMPI PUSH1 0x40 MLOAD PUSH32 0x8C379A000000000000000000000000000000000000000000000000000000000 DUP2 MSTORE PUSH1 0x4 ADD PUSH2 0x2981 SWAP1 PUSH2 0x32AA JUMP JUMPDEST PUSH1 0x40 MLOAD DUP1 SWAP2 SUB SWAP1 REVERT JUMPDEST PUSH2 0x29A8 PUSH1 0x2 PUSH1 0xF PUSH2 0x2999 PUSH2 0x3BC JUMP JUMPDEST PUSH2 0x29A3 SWAP2 SWAP1 PUSH2 0x3515 JUMP JUMPDEST PUSH2 0x29E6 JUMP JUMPDEST PUSH2 0x29C6 PUSH1 0x3 PUSH1 0xA PUSH2 0x29B7 PUSH2 0x1949 JUMP JUMPDEST PUSH2 0x29C1 SWAP2 SWAP1 PUSH2 0x3515 JUMP JUMPDEST PUSH2 0x29E6 JUMP JUMPDEST PUSH2 0x29E4 PUSH1 0x4 PUSH1 0x14 PUSH2 0x29D5 PUSH2 0xB3E JUMP JUMPDEST PUSH2 0x29DF SWAP2 SWAP1 PUSH2 0x3336 JUMP JUMPDEST PUSH2 0x29E6 JUMP JUMPDEST JUMP JUMPDEST PUSH1 0x0 DUP2 SLT ISZERO PUSH2 0x29F4 JUMPI PUSH1 0x0 SWAP1 POP JUMPDEST PUSH1 0x64 DUP2 SGT ISZERO PUSH2 0x2A02 JUMPI PUSH1 0x64 SWAP1 POP JUMPDEST DUP1 PUSH1 0x3 PUSH1 0x0 DUP5 PUSH1 0xB DUP2 GT ISZERO PUSH2 0x2A1A JUMPI PUSH2 0x2A19 PUSH2 0x36EF JUMP JUMPDEST JUMPDEST PUSH1 0xB DUP2 GT ISZERO PUSH2 0x2A2C JUMPI PUSH2 0x2A2B PUSH2 0x36EF JUMP JUMPDEST JUMPDEST DUP2 MSTORE PUSH1 0x20 ADD SWAP1 DUP2 MSTORE PUSH1 0x20 ADD PUSH1 0x0 KECCAK256 DUP2 SWAP1 SSTORE POP TIMESTAMP PUSH1 0x4 PUSH1 0x0 DUP5 PUSH1 0xB DUP2 GT ISZERO PUSH2 0x2A56 JUMPI PUSH2 0x2A55 PUSH2 0x36EF JUMP JUMPDEST JUMPDEST PUSH1 0xB DUP2 GT ISZERO PUSH2 0x2A68 JUMPI PUSH2 0x2A67 PUSH2 0x36EF JUMP JUMPDEST JUMPDEST DUP2 MSTORE PUSH1 0x20 ADD SWAP1 DUP2 MSTORE PUSH1 0x20 ADD PUSH1 0x0 KECCAK256 DUP2 SWAP1 SSTORE POP POP POP JUMP JUMPDEST PUSH1 0x0 CALLER SWAP1 POP SWAP1 JUMP JUMPDEST PUSH1 0x0 PUSH8 0xDE0B6B3A7640000 DUP4 DUP4 PUSH2 0x2A9D SWAP2 SWAP1 PUSH2 0x35A9 JUMP JUMPDEST DIFFICULTY PUSH2 0x2AA8 SWAP2 SWAP1 PUSH2 0x3660 JUMP JUMPDEST TIMESTAMP XOR DUP5 PUSH2 0x2AB5 SWAP2 SWAP1 PUSH2 0x33CA JUMP JUMPDEST PUSH2 0x2ABF SWAP2 SWAP1 PUSH2 0x34BB JUMP JUMPDEST SWAP1 POP PUSH1 0x1 PUSH1 0x0 SWAP1 SLOAD SWAP1 PUSH2 0x100 EXP SWAP1 DIV PUSH20 0xFFFFFFFFFFFFFFFFFFFFFFFFFFFFFFFFFFFFFFFF AND PUSH20 0xFFFFFFFFFFFFFFFFFFFFFFFFFFFFFFFFFFFFFFFF AND PUSH4 0x40C10F19 CALLER DUP4 PUSH1 0x40 MLOAD DUP4 PUSH4 0xFFFFFFFF AND PUSH1 0xE0 SHL DUP2 MSTORE PUSH1 0x4 ADD PUSH2 0x2B1E SWAP3 SWAP2 SWAP1 PUSH2 0x302B JUMP JUMPDEST PUSH1 0x0 PUSH1 0x40 MLOAD DUP1 DUP4 SUB DUP2 PUSH1 0x0 DUP8 DUP1 EXTCODESIZE ISZERO DUP1 ISZERO PUSH2 0x2B38 JUMPI PUSH1 0x0 DUP1 REVERT JUMPDEST POP GAS CALL ISZERO DUP1 ISZERO PUSH2 0x2B4C JUMPI RETURNDATASIZE PUSH1 0x0 DUP1 RETURNDATACOPY RETURNDATASIZE PUSH1 0x0 REVERT JUMPDEST POP POP POP POP PUSH32 0x9A064D674DDC42AC41B38566457161F1DED37E65A59162DA003DD25BCB057B60 CALLER DUP3 PUSH1 0x40 MLOAD PUSH2 0x2B81 SWAP3 SWAP2 SWAP1 PUSH2 0x302B JUMP JUMPDEST PUSH1 0x40 MLOAD DUP1 SWAP2 SUB SWAP1 LOG1 POP POP POP JUMP JUMPDEST PUSH1 0x0 DUP1 PUSH1 0x0 SWAP1 SLOAD SWAP1 PUSH2 0x100 EXP SWAP1 DIV PUSH20 0xFFFFFFFFFFFFFFFFFFFFFFFFFFFFFFFFFFFFFFFF AND SWAP1 POP DUP2 PUSH1 0x0 DUP1 PUSH2 0x100 EXP DUP2 SLOAD DUP2 PUSH20 0xFFFFFFFFFFFFFFFFFFFFFFFFFFFFFFFFFFFFFFFF MUL NOT AND SWAP1 DUP4 PUSH20 0xFFFFFFFFFFFFFFFFFFFFFFFFFFFFFFFFFFFFFFFF AND MUL OR SWAP1 SSTORE POP DUP2 PUSH20 0xFFFFFFFFFFFFFFFFFFFFFFFFFFFFFFFFFFFFFFFF AND DUP2 PUSH20 0xFFFFFFFFFFFFFFFFFFFFFFFFFFFFFFFFFFFFFFFF AND PUSH32 0x8BE0079C531659141344CD1FD0A4F28419497F9722A3DAAFE3B4186F6B6457E0 PUSH1 0x40 MLOAD PUSH1 0x40 MLOAD DUP1 SWAP2 SUB SWAP1 LOG3 POP POP JUMP JUMPDEST PUSH1 0x0 DUP2 CALLDATALOAD SWAP1 POP PUSH2 0x2C61 DUP2 PUSH2 0x3A7D JUMP JUMPDEST SWAP3 SWAP2 POP POP JUMP JUMPDEST PUSH1 0x0 DUP2 MLOAD SWAP1 POP PUSH2 0x2C76 DUP2 PUSH2 0x3A94 JUMP JUMPDEST SWAP3 SWAP2 POP POP JUMP JUMPDEST PUSH1 0x0 DUP2 MLOAD SWAP1 POP PUSH2 0x2C8B DUP2 PUSH2 0x3AAB JUMP JUMPDEST SWAP3 SWAP2 POP POP JUMP JUMPDEST PUSH1 0x0 PUSH1 0x20 DUP3 DUP5 SUB SLT ISZERO PUSH2 0x2CA7 JUMPI PUSH2 0x2CA6 PUSH2 0x371E JUMP JUMPDEST JUMPDEST PUSH1 0x0 PUSH2 0x2CB5 DUP5 DUP3 DUP6 ADD PUSH2 0x2C52 JUMP JUMPDEST SWAP2 POP POP SWAP3 SWAP2 POP POP JUMP JUMPDEST PUSH1 0x0 PUSH1 0x20 DUP3 DUP5 SUB SLT ISZERO PUSH2 0x2CD4 JUMPI PUSH2 0x2CD3 PUSH2 0x371E JUMP JUMPDEST JUMPDEST PUSH1 0x0 PUSH2 0x2CE2 DUP5 DUP3 DUP6 ADD PUSH2 0x2C67 JUMP JUMPDEST SWAP2 POP POP SWAP3 SWAP2 POP POP JUMP JUMPDEST PUSH1 0x0 PUSH1 0x20 DUP3 DUP5 SUB SLT ISZERO PUSH2 0x2D01 JUMPI PUSH2 0x2D00 PUSH2 0x371E JUMP JUMPDEST JUMPDEST PUSH1 0x0 PUSH2 0x2D0F DUP5 DUP3 DUP6 ADD PUSH2 0x2C7C JUMP JUMPDEST SWAP2 POP POP SWAP3 SWAP2 POP POP JUMP JUMPDEST PUSH2 0x2D21 DUP2 PUSH2 0x35DD JUMP JUMPDEST DUP3 MSTORE POP POP JUMP JUMPDEST PUSH2 0x2D30 DUP2 PUSH2 0x35EF JUMP JUMPDEST DUP3 MSTORE POP POP JUMP JUMPDEST PUSH2 0x2D3F DUP2 PUSH2 0x35FB JUMP JUMPDEST DUP3 MSTORE POP POP JUMP JUMPDEST PUSH1 0x0 PUSH2 0x2D52 PUSH1 0xE DUP4 PUSH2 0x3325 JUMP JUMPDEST SWAP2 POP PUSH2 0x2D5D DUP3 PUSH2 0x3723 JUMP JUMPDEST PUSH1 0x20 DUP3 ADD SWAP1 POP SWAP2 SWAP1 POP JUMP JUMPDEST PUSH1 0x0 PUSH2 0x2D75 PUSH1 0x10 DUP4 PUSH2 0x3325 JUMP JUMPDEST SWAP2 POP PUSH2 0x2D80 DUP3 PUSH2 0x374C JUMP JUMPDEST PUSH1 0x20 DUP3 ADD SWAP1 POP SWAP2 SWAP1 POP JUMP JUMPDEST PUSH1 0x0 PUSH2 0x2D98 PUSH1 0x9 DUP4 PUSH2 0x3325 JUMP JUMPDEST SWAP2 POP PUSH2 0x2DA3 DUP3 PUSH2 0x3775 JUMP JUMPDEST PUSH1 0x20 DUP3 ADD SWAP1 POP SWAP2 SWAP1 POP JUMP JUMPDEST PUSH1 0x0 PUSH2 0x2DBB PUSH1 0x26 DUP4 PUSH2 0x3325 JUMP JUMPDEST SWAP2 POP PUSH2 0x2DC6 DUP3 PUSH2 0x379E JUMP JUMPDEST PUSH1 0x40 DUP3 ADD SWAP1 POP SWAP2 SWAP1 POP JUMP JUMPDEST PUSH1 0x0 PUSH2 0x2DDE PUSH1 0xD DUP4 PUSH2 0x3325 JUMP JUMPDEST SWAP2 POP PUSH2 0x2DE9 DUP3 PUSH2 0x37ED JUMP JUMPDEST PUSH1 0x20 DUP3 ADD SWAP1 POP SWAP2 SWAP1 POP JUMP JUMPDEST PUSH1 0x0 PUSH2 0x2E01 PUSH1 0xA DUP4 PUSH2 0x3325 JUMP JUMPDEST SWAP2 POP PUSH2 0x2E0C DUP3 PUSH2 0x3816 JUMP JUMPDEST PUSH1 0x20 DUP3 ADD SWAP1 POP SWAP2 SWAP1 POP JUMP JUMPDEST PUSH1 0x0 PUSH2 0x2E24 PUSH1 0x9 DUP4 PUSH2 0x3325 JUMP JUMPDEST SWAP2 POP PUSH2 0x2E2F DUP3 PUSH2 0x383F JUMP JUMPDEST PUSH1 0x20 DUP3 ADD SWAP1 POP SWAP2 SWAP1 POP JUMP JUMPDEST PUSH1 0x0 PUSH2 0x2E47 PUSH1 0xB DUP4 PUSH2 0x3325 JUMP JUMPDEST SWAP2 POP PUSH2 0x2E52 DUP3 PUSH2 0x3868 JUMP JUMPDEST PUSH1 0x20 DUP3 ADD SWAP1 POP SWAP2 SWAP1 POP JUMP JUMPDEST PUSH1 0x0 PUSH2 0x2E6A PUSH1 0xA DUP4 PUSH2 0x3325 JUMP JUMPDEST SWAP2 POP PUSH2 0x2E75 DUP3 PUSH2 0x3891 JUMP JUMPDEST PUSH1 0x20 DUP3 ADD SWAP1 POP SWAP2 SWAP1 POP JUMP JUMPDEST PUSH1 0x0 PUSH2 0x2E8D PUSH1 0xA DUP4 PUSH2 0x3325 JUMP JUMPDEST SWAP2 POP PUSH2 0x2E98 DUP3 PUSH2 0x38BA JUMP JUMPDEST PUSH1 0x20 DUP3 ADD SWAP1 POP SWAP2 SWAP1 POP JUMP JUMPDEST PUSH1 0x0 PUSH2 0x2EB0 PUSH1 0x7 DUP4 PUSH2 0x3325 JUMP JUMPDEST SWAP2 POP PUSH2 0x2EBB DUP3 PUSH2 0x38E3 JUMP JUMPDEST PUSH1 0x20 DUP3 ADD SWAP1 POP SWAP2 SWAP1 POP JUMP JUMPDEST PUSH1 0x0 PUSH2 0x2ED3 PUSH1 0x11 DUP4 PUSH2 0x3325 JUMP JUMPDEST SWAP2 POP PUSH2 0x2EDE DUP3 PUSH2 0x390C JUMP JUMPDEST PUSH1 0x20 DUP3 ADD SWAP1 POP SWAP2 SWAP1 POP JUMP JUMPDEST PUSH1 0x0 PUSH2 0x2EF6 PUSH1 0xA DUP4 PUSH2 0x3325 JUMP JUMPDEST SWAP2 POP PUSH2 0x2F01 DUP3 PUSH2 0x3935 JUMP JUMPDEST PUSH1 0x20 DUP3 ADD SWAP1 POP SWAP2 SWAP1 POP JUMP JUMPDEST PUSH1 0x0 PUSH2 0x2F19 PUSH1 0x20 DUP4 PUSH2 0x3325 JUMP JUMPDEST SWAP2 POP PUSH2 0x2F24 DUP3 PUSH2 0x395E JUMP JUMPDEST PUSH1 0x20 DUP3 ADD SWAP1 POP SWAP2 SWAP1 POP JUMP JUMPDEST PUSH1 0x0 PUSH2 0x2F3C PUSH1 0xC DUP4 PUSH2 0x3325 JUMP JUMPDEST SWAP2 POP PUSH2 0x2F47 DUP3 PUSH2 0x3987 JUMP JUMPDEST PUSH1 0x20 DUP3 ADD SWAP1 POP SWAP2 SWAP1 POP JUMP JUMPDEST PUSH1 0x0 PUSH2 0x2F5F PUSH1 0x9 DUP4 PUSH2 0x3325 JUMP JUMPDEST SWAP2 POP PUSH2 0x2F6A DUP3 PUSH2 0x39B0 JUMP JUMPDEST PUSH1 0x20 DUP3 ADD SWAP1 POP SWAP2 SWAP1 POP JUMP JUMPDEST PUSH1 0x0 PUSH2 0x2F82 PUSH1 0x9 DUP4 PUSH2 0x3325 JUMP JUMPDEST SWAP2 POP PUSH2 0x2F8D DUP3 PUSH2 0x39D9 JUMP JUMPDEST PUSH1 0x20 DUP3 ADD SWAP1 POP SWAP2 SWAP1 POP JUMP JUMPDEST PUSH1 0x0 PUSH2 0x2FA5 PUSH1 0xA DUP4 PUSH2 0x3325 JUMP JUMPDEST SWAP2 POP PUSH2 0x2FB0 DUP3 PUSH2 0x3A02 JUMP JUMPDEST PUSH1 0x20 DUP3 ADD SWAP1 POP SWAP2 SWAP1 POP JUMP JUMPDEST PUSH1 0x0 PUSH2 0x2FC8 PUSH1 0xB DUP4 PUSH2 0x3325 JUMP JUMPDEST SWAP2 POP PUSH2 0x2FD3 DUP3 PUSH2 0x3A2B JUMP JUMPDEST PUSH1 0x20 DUP3 ADD SWAP1 POP SWAP2 SWAP1 POP JUMP JUMPDEST PUSH1 0x0 PUSH2 0x2FEB PUSH1 0xB DUP4 PUSH2 0x3325 JUMP JUMPDEST SWAP2 POP PUSH2 0x2FF6 DUP3 PUSH2 0x3A54 JUMP JUMPDEST PUSH1 0x20 DUP3 ADD SWAP1 POP SWAP2 SWAP1 POP JUMP JUMPDEST PUSH2 0x300A DUP2 PUSH2 0x3625 JUMP JUMPDEST DUP3 MSTORE POP POP JUMP JUMPDEST PUSH1 0x0 PUSH1 0x20 DUP3 ADD SWAP1 POP PUSH2 0x3025 PUSH1 0x0 DUP4 ADD DUP5 PUSH2 0x2D18 JUMP JUMPDEST SWAP3 SWAP2 POP POP JUMP JUMPDEST PUSH1 0x0 PUSH1 0x40 DUP3 ADD SWAP1 POP PUSH2 0x3040 PUSH1 0x0 DUP4 ADD DUP6 PUSH2 0x2D18 JUMP JUMPDEST PUSH2 0x304D PUSH1 0x20 DUP4 ADD DUP5 PUSH2 0x3001 JUMP JUMPDEST SWAP4 SWAP3 POP POP POP JUMP JUMPDEST PUSH1 0x0 PUSH1 0x20 DUP3 ADD SWAP1 POP PUSH2 0x3069 PUSH1 0x0 DUP4 ADD DUP5 PUSH2 0x2D27 JUMP JUMPDEST SWAP3 SWAP2 POP POP JUMP JUMPDEST PUSH1 0x0 PUSH1 0x20 DUP3 ADD SWAP1 POP PUSH2 0x3084 PUSH1 0x0 DUP4 ADD DUP5 PUSH2 0x2D36 JUMP JUMPDEST SWAP3 SWAP2 POP POP JUMP JUMPDEST PUSH1 0x0 PUSH1 0x20 DUP3 ADD SWAP1 POP DUP2 DUP2 SUB PUSH1 0x0 DUP4 ADD MSTORE PUSH2 0x30A3 DUP2 PUSH2 0x2D45 JUMP JUMPDEST SWAP1 POP SWAP2 SWAP1 POP JUMP JUMPDEST PUSH1 0x0 PUSH1 0x20 DUP3 ADD SWAP1 POP DUP2 DUP2 SUB PUSH1 0x0 DUP4 ADD MSTORE PUSH2 0x30C3 DUP2 PUSH2 0x2D68 JUMP JUMPDEST SWAP1 POP SWAP2 SWAP1 POP JUMP JUMPDEST PUSH1 0x0 PUSH1 0x20 DUP3 ADD SWAP1 POP DUP2 DUP2 SUB PUSH1 0x0 DUP4 ADD MSTORE PUSH2 0x30E3 DUP2 PUSH2 0x2D8B JUMP JUMPDEST SWAP1 POP SWAP2 SWAP1 POP JUMP JUMPDEST PUSH1 0x0 PUSH1 0x20 DUP3 ADD SWAP1 POP DUP2 DUP2 SUB PUSH1 0x0 DUP4 ADD MSTORE PUSH2 0x3103 DUP2 PUSH2 0x2DAE JUMP JUMPDEST SWAP1 POP SWAP2 SWAP1 POP JUMP JUMPDEST PUSH1 0x0 PUSH1 0x20 DUP3 ADD SWAP1 POP DUP2 DUP2 SUB PUSH1 0x0 DUP4 ADD MSTORE PUSH2 0x3123 DUP2 PUSH2 0x2DD1 JUMP JUMPDEST SWAP1 POP SWAP2 SWAP1 POP JUMP JUMPDEST PUSH1 0x0 PUSH1 0x20 DUP3 ADD SWAP1 POP DUP2 DUP2 SUB PUSH1 0x0 DUP4 ADD MSTORE PUSH2 0x3143 DUP2 PUSH2 0x2DF4 JUMP JUMPDEST SWAP1 POP SWAP2 SWAP1 POP JUMP JUMPDEST PUSH1 0x0 PUSH1 0x20 DUP3 ADD SWAP1 POP DUP2 DUP2 SUB PUSH1 0x0 DUP4 ADD MSTORE PUSH2 0x3163 DUP2 PUSH2 0x2E17 JUMP JUMPDEST SWAP1 POP SWAP2 SWAP1 POP JUMP JUMPDEST PUSH1 0x0 PUSH1 0x20 DUP3 ADD SWAP1 POP DUP2 DUP2 SUB PUSH1 0x0 DUP4 ADD MSTORE PUSH2 0x3183 DUP2 PUSH2 0x2E3A JUMP JUMPDEST SWAP1 POP SWAP2 SWAP1 POP JUMP JUMPDEST PUSH1 0x0 PUSH1 0x20 DUP3 ADD SWAP1 POP DUP2 DUP2 SUB PUSH1 0x0 DUP4 ADD MSTORE PUSH2 0x31A3 DUP2 PUSH2 0x2E5D JUMP JUMPDEST SWAP1 POP SWAP2 SWAP1 POP JUMP JUMPDEST PUSH1 0x0 PUSH1 0x20 DUP3 ADD SWAP1 POP DUP2 DUP2 SUB PUSH1 0x0 DUP4 ADD MSTORE PUSH2 0x31C3 DUP2 PUSH2 0x2E80 JUMP JUMPDEST SWAP1 POP SWAP2 SWAP1 POP JUMP JUMPDEST PUSH1 0x0 PUSH1 0x20 DUP3 ADD SWAP1 POP DUP2 DUP2 SUB PUSH1 0x0 DUP4 ADD MSTORE PUSH2 0x31E3 DUP2 PUSH2 0x2EA3 JUMP JUMPDEST SWAP1 POP SWAP2 SWAP1 POP JUMP JUMPDEST PUSH1 0x0 PUSH1 0x20 DUP3 ADD SWAP1 POP DUP2 DUP2 SUB PUSH1 0x0 DUP4 ADD MSTORE PUSH2 0x3203 DUP2 PUSH2 0x2EC6 JUMP JUMPDEST SWAP1 POP SWAP2 SWAP1 POP JUMP JUMPDEST PUSH1 0x0 PUSH1 0x20 DUP3 ADD SWAP1 POP DUP2 DUP2 SUB PUSH1 0x0 DUP4 ADD MSTORE PUSH2 0x3223 DUP2 PUSH2 0x2EE9 JUMP JUMPDEST SWAP1 POP SWAP2 SWAP1 POP JUMP JUMPDEST PUSH1 0x0 PUSH1 0x20 DUP3 ADD SWAP1 POP DUP2 DUP2 SUB PUSH1 0x0 DUP4 ADD MSTORE PUSH2 0x3243 DUP2 PUSH2 0x2F0C JUMP JUMPDEST SWAP1 POP SWAP2 SWAP1 POP JUMP JUMPDEST PUSH1 0x0 PUSH1 0x20 DUP3 ADD SWAP1 POP DUP2 DUP2 SUB PUSH1 0x0 DUP4 ADD MSTORE PUSH2 0x3263 DUP2 PUSH2 0x2F2F JUMP JUMPDEST SWAP1 POP SWAP2 SWAP1 POP JUMP JUMPDEST PUSH1 0x0 PUSH1 0x20 DUP3 ADD SWAP1 POP DUP2 DUP2 SUB PUSH1 0x0 DUP4 ADD MSTORE PUSH2 0x3283 DUP2 PUSH2 0x2F52 JUMP JUMPDEST SWAP1 POP SWAP2 SWAP1 POP JUMP JUMPDEST PUSH1 0x0 PUSH1 0x20 DUP3 ADD SWAP1 POP DUP2 DUP2 SUB PUSH1 0x0 DUP4 ADD MSTORE PUSH2 0x32A3 DUP2 PUSH2 0x2F75 JUMP JUMPDEST SWAP1 POP SWAP2 SWAP1 POP JUMP JUMPDEST PUSH1 0x0 PUSH1 0x20 DUP3 ADD SWAP1 POP DUP2 DUP2 SUB PUSH1 0x0 DUP4 ADD MSTORE PUSH2 0x32C3 DUP2 PUSH2 0x2F98 JUMP JUMPDEST SWAP1 POP SWAP2 SWAP1 POP JUMP JUMPDEST PUSH1 0x0 PUSH1 0x20 DUP3 ADD SWAP1 POP DUP2 DUP2 SUB PUSH1 0x0 DUP4 ADD MSTORE PUSH2 0x32E3 DUP2 PUSH2 0x2FBB JUMP JUMPDEST SWAP1 POP SWAP2 SWAP1 POP JUMP JUMPDEST PUSH1 0x0 PUSH1 0x20 DUP3 ADD SWAP1 POP DUP2 DUP2 SUB PUSH1 0x0 DUP4 ADD MSTORE PUSH2 0x3303 DUP2 PUSH2 0x2FDE JUMP JUMPDEST SWAP1 POP SWAP2 SWAP1 POP JUMP JUMPDEST PUSH1 0x0 PUSH1 0x20 DUP3 ADD SWAP1 POP PUSH2 0x331F PUSH1 0x0 DUP4 ADD DUP5 PUSH2 0x3001 JUMP JUMPDEST SWAP3 SWAP2 POP POP JUMP JUMPDEST PUSH1 0x0 DUP3 DUP3 MSTORE PUSH1 0x20 DUP3 ADD SWAP1 POP SWAP3 SWAP2 POP POP JUMP JUMPDEST PUSH1 0x0 PUSH2 0x3341 DUP3 PUSH2 0x35FB JUMP JUMPDEST SWAP2 POP PUSH2 0x334C DUP4 PUSH2 0x35FB JUMP JUMPDEST SWAP3 POP DUP2 PUSH32 0x7FFFFFFFFFFFFFFFFFFFFFFFFFFFFFFFFFFFFFFFFFFFFFFFFFFFFFFFFFFFFFFF SUB DUP4 SGT PUSH1 0x0 DUP4 SLT ISZERO AND ISZERO PUSH2 0x3387 JUMPI PUSH2 0x3386 PUSH2 0x3691 JUMP JUMPDEST JUMPDEST DUP2 PUSH32 0x8000000000000000000000000000000000000000000000000000000000000000 SUB DUP4 SLT PUSH1 0x0 DUP4 SLT AND ISZERO PUSH2 0x33BF JUMPI PUSH2 0x33BE PUSH2 0x3691 JUMP JUMPDEST JUMPDEST DUP3 DUP3 ADD SWAP1 POP SWAP3 SWAP2 POP POP JUMP JUMPDEST PUSH1 0x0 PUSH2 0x33D5 DUP3 PUSH2 0x3625 JUMP JUMPDEST SWAP2 POP PUSH2 0x33E0 DUP4 PUSH2 0x3625 JUMP JUMPDEST SWAP3 POP DUP3 PUSH32 0xFFFFFFFFFFFFFFFFFFFFFFFFFFFFFFFFFFFFFFFFFFFFFFFFFFFFFFFFFFFFFFFF SUB DUP3 GT ISZERO PUSH2 0x3415 JUMPI PUSH2 0x3414 PUSH2 0x3691 JUMP JUMPDEST JUMPDEST DUP3 DUP3 ADD SWAP1 POP SWAP3 SWAP2 POP POP JUMP JUMPDEST PUSH1 0x0 PUSH2 0x342B DUP3 PUSH2 0x35FB JUMP JUMPDEST SWAP2 POP PUSH2 0x3436 DUP4 PUSH2 0x35FB JUMP JUMPDEST SWAP3 POP DUP3 PUSH2 0x3446 JUMPI PUSH2 0x3445 PUSH2 0x36C0 JUMP JUMPDEST JUMPDEST PUSH1 0x1 PUSH1 0x0 SUB DUP4 EQ PUSH32 0x8000000000000000000000000000000000000000000000000000000000000000 DUP4 EQ AND ISZERO PUSH2 0x347F JUMPI PUSH2 0x347E PUSH2 0x3691 JUMP JUMPDEST JUMPDEST DUP3 DUP3 SDIV SWAP1 POP SWAP3 SWAP2 POP POP JUMP JUMPDEST PUSH1 0x0 PUSH2 0x3495 DUP3 PUSH2 0x3625 JUMP JUMPDEST SWAP2 POP PUSH2 0x34A0 DUP4 PUSH2 0x3625 JUMP JUMPDEST SWAP3 POP DUP3 PUSH2 0x34B0 JUMPI PUSH2 0x34AF PUSH2 0x36C0 JUMP JUMPDEST JUMPDEST DUP3 DUP3 DIV SWAP1 POP SWAP3 SWAP2 POP POP JUMP JUMPDEST PUSH1 0x0 PUSH2 0x34C6 DUP3 PUSH2 0x3625 JUMP JUMPDEST SWAP2 POP PUSH2 0x34D1 DUP4 PUSH2 0x3625 JUMP JUMPDEST SWAP3 POP DUP2 PUSH32 0xFFFFFFFFFFFFFFFFFFFFFFFFFFFFFFFFFFFFFFFFFFFFFFFFFFFFFFFFFFFFFFFF DIV DUP4 GT DUP3 ISZERO ISZERO AND ISZERO PUSH2 0x350A JUMPI PUSH2 0x3509 PUSH2 0x3691 JUMP JUMPDEST JUMPDEST DUP3 DUP3 MUL SWAP1 POP SWAP3 SWAP2 POP POP JUMP JUMPDEST PUSH1 0x0 PUSH2 0x3520 DUP3 PUSH2 0x35FB JUMP JUMPDEST SWAP2 POP PUSH2 0x352B DUP4 PUSH2 0x35FB JUMP JUMPDEST SWAP3 POP DUP3 PUSH32 0x8000000000000000000000000000000000000000000000000000000000000000 ADD DUP3 SLT PUSH1 0x0 DUP5 SLT ISZERO AND ISZERO PUSH2 0x3566 JUMPI PUSH2 0x3565 PUSH2 0x3691 JUMP JUMPDEST JUMPDEST DUP3 PUSH32 0x7FFFFFFFFFFFFFFFFFFFFFFFFFFFFFFFFFFFFFFFFFFFFFFFFFFFFFFFFFFFFFFF ADD DUP3 SGT PUSH1 0x0 DUP5 SLT AND ISZERO PUSH2 0x359E JUMPI PUSH2 0x359D PUSH2 0x3691 JUMP JUMPDEST JUMPDEST DUP3 DUP3 SUB SWAP1 POP SWAP3 SWAP2 POP POP JUMP JUMPDEST PUSH1 0x0 PUSH2 0x35B4 DUP3 PUSH2 0x3625 JUMP JUMPDEST SWAP2 POP PUSH2 0x35BF DUP4 PUSH2 0x3625 JUMP JUMPDEST SWAP3 POP DUP3 DUP3 LT ISZERO PUSH2 0x35D2 JUMPI PUSH2 0x35D1 PUSH2 0x3691 JUMP JUMPDEST JUMPDEST DUP3 DUP3 SUB SWAP1 POP SWAP3 SWAP2 POP POP JUMP JUMPDEST PUSH1 0x0 PUSH2 0x35E8 DUP3 PUSH2 0x3605 JUMP JUMPDEST SWAP1 POP SWAP2 SWAP1 POP JUMP JUMPDEST PUSH1 0x0 DUP2 ISZERO ISZERO SWAP1 POP SWAP2 SWAP1 POP JUMP JUMPDEST PUSH1 0x0 DUP2 SWAP1 POP SWAP2 SWAP1 POP JUMP JUMPDEST PUSH1 0x0 PUSH20 0xFFFFFFFFFFFFFFFFFFFFFFFFFFFFFFFFFFFFFFFF DUP3 AND SWAP1 POP SWAP2 SWAP1 POP JUMP JUMPDEST PUSH1 0x0 DUP2 SWAP1 POP SWAP2 SWAP1 POP JUMP JUMPDEST PUSH1 0x0 PUSH2 0x363A DUP3 PUSH2 0x35FB JUMP JUMPDEST SWAP2 POP PUSH2 0x3645 DUP4 PUSH2 0x35FB JUMP JUMPDEST SWAP3 POP DUP3 PUSH2 0x3655 JUMPI PUSH2 0x3654 PUSH2 0x36C0 JUMP JUMPDEST JUMPDEST DUP3 DUP3 SMOD SWAP1 POP SWAP3 SWAP2 POP POP JUMP JUMPDEST PUSH1 0x0 PUSH2 0x366B DUP3 PUSH2 0x3625 JUMP JUMPDEST SWAP2 POP PUSH2 0x3676 DUP4 PUSH2 0x3625 JUMP JUMPDEST SWAP3 POP DUP3 PUSH2 0x3686 JUMPI PUSH2 0x3685 PUSH2 0x36C0 JUMP JUMPDEST JUMPDEST DUP3 DUP3 MOD SWAP1 POP SWAP3 SWAP2 POP POP JUMP JUMPDEST PUSH32 0x4E487B7100000000000000000000000000000000000000000000000000000000 PUSH1 0x0 MSTORE PUSH1 0x11 PUSH1 0x4 MSTORE PUSH1 0x24 PUSH1 0x0 REVERT JUMPDEST PUSH32 0x4E487B7100000000000000000000000000000000000000000000000000000000 PUSH1 0x0 MSTORE PUSH1 0x12 PUSH1 0x4 MSTORE PUSH1 0x24 PUSH1 0x0 REVERT JUMPDEST PUSH32 0x4E487B7100000000000000000000000000000000000000000000000000000000 PUSH1 0x0 MSTORE PUSH1 0x21 PUSH1 0x4 MSTORE PUSH1 0x24 PUSH1 0x0 REVERT JUMPDEST PUSH1 0x0 DUP1 REVERT JUMPDEST PUSH32 0x49276D206E6F7420736C65657079000000000000000000000000000000000000 PUSH1 0x0 DUP3 ADD MSTORE POP JUMP JUMPDEST PUSH32 0x49276D20746F6F20746869727374792100000000000000000000000000000000 PUSH1 0x0 DUP3 ADD MSTORE POP JUMP JUMPDEST PUSH32 0x49276D206177616B650000000000000000000000000000000000000000000000 PUSH1 0x0 DUP3 ADD MSTORE POP JUMP JUMPDEST PUSH32 0x4F776E61626C653A206E6577206F776E657220697320746865207A65726F2061 PUSH1 0x0 DUP3 ADD MSTORE PUSH32 0x6464726573730000000000000000000000000000000000000000000000000000 PUSH1 0x20 DUP3 ADD MSTORE POP JUMP JUMPDEST PUSH32 0x49276D20746F6F20746972656400000000000000000000000000000000000000 PUSH1 0x0 DUP3 ADD MSTORE POP JUMP JUMPDEST PUSH32 0x5A7A7A5A7A7A7A2E2E2E00000000000000000000000000000000000000000000 PUSH1 0x0 DUP3 ADD MSTORE POP JUMP JUMPDEST PUSH32 0x546F6F2064697274790000000000000000000000000000000000000000000000 PUSH1 0x0 DUP3 ADD MSTORE POP JUMP JUMPDEST PUSH32 0x546F6F2068756E67727921000000000000000000000000000000000000000000 PUSH1 0x0 DUP3 ADD MSTORE POP JUMP JUMPDEST PUSH32 0x49276D2061736C65657000000000000000000000000000000000000000000000 PUSH1 0x0 DUP3 ADD MSTORE POP JUMP JUMPDEST PUSH32 0x4E6F742068756E67727900000000000000000000000000000000000000000000 PUSH1 0x0 DUP3 ADD MSTORE POP JUMP JUMPDEST PUSH32 0x4865616C74687900000000000000000000000000000000000000000000000000 PUSH1 0x0 DUP3 ADD MSTORE POP JUMP JUMPDEST PUSH32 0x49276D20616C7265616479206177616B65000000000000000000000000000000 PUSH1 0x0 DUP3 ADD MSTORE POP JUMP JUMPDEST PUSH32 0x546F6F2068756E67727900000000000000000000000000000000000000000000 PUSH1 0x0 DUP3 ADD MSTORE POP JUMP JUMPDEST PUSH32 0x4F776E61626C653A2063616C6C6572206973206E6F7420746865206F776E6572 PUSH1 0x0 DUP3 ADD MSTORE POP JUMP JUMPDEST PUSH32 0x546F6F2074686972737479210000000000000000000000000000000000000000 PUSH1 0x0 DUP3 ADD MSTORE POP JUMP JUMPDEST PUSH32 0x546F6F2074697265640000000000000000000000000000000000000000000000 PUSH1 0x0 DUP3 ADD MSTORE POP JUMP JUMPDEST PUSH32 0x49276D20616C6976650000000000000000000000000000000000000000000000 PUSH1 0x0 DUP3 ADD MSTORE POP JUMP JUMPDEST PUSH32 0x446561642E205249502E00000000000000000000000000000000000000000000 PUSH1 0x0 DUP3 ADD MSTORE POP JUMP JUMPDEST PUSH32 0x546F6F2074686972737479000000000000000000000000000000000000000000 PUSH1 0x0 DUP3 ADD MSTORE POP JUMP JUMPDEST PUSH32 0x4E6F742074686972737479000000000000000000000000000000000000000000 PUSH1 0x0 DUP3 ADD MSTORE POP JUMP JUMPDEST PUSH2 0x3A86 DUP2 PUSH2 0x35DD JUMP JUMPDEST DUP2 EQ PUSH2 0x3A91 JUMPI PUSH1 0x0 DUP1 REVERT JUMPDEST POP JUMP JUMPDEST PUSH2 0x3A9D DUP2 PUSH2 0x35EF JUMP JUMPDEST DUP2 EQ PUSH2 0x3AA8 JUMPI PUSH1 0x0 DUP1 REVERT JUMPDEST POP JUMP JUMPDEST PUSH2 0x3AB4 DUP2 PUSH2 0x3625 JUMP JUMPDEST DUP2 EQ PUSH2 0x3ABF JUMPI PUSH1 0x0 DUP1 REVERT JUMPDEST POP JUMP INVALID LOG2 PUSH5 0x6970667358 0x22 SLT KECCAK256 CALLER 0xBA PUSH18 0x87EC2DDCF89522574ED9B5889E6CE0ABC20E PUSH28 0x5074F56E122B9488DE2764736F6C6343000807003360806040523480 ISZERO PUSH3 0x11 JUMPI PUSH1 0x0 DUP1 REVERT JUMPDEST POP PUSH1 0x40 MLOAD PUSH3 0x23B9 CODESIZE SUB DUP1 PUSH3 0x23B9 DUP4 CODECOPY DUP2 DUP2 ADD PUSH1 0x40 MSTORE DUP2 ADD SWAP1 PUSH3 0x37 SWAP2 SWAP1 PUSH3 0x291 JUMP JUMPDEST DUP2 DUP2 DUP2 PUSH1 0x3 SWAP1 DUP1 MLOAD SWAP1 PUSH1 0x20 ADD SWAP1 PUSH3 0x51 SWAP3 SWAP2 SWAP1 PUSH3 0x163 JUMP JUMPDEST POP DUP1 PUSH1 0x4 SWAP1 DUP1 MLOAD SWAP1 PUSH1 0x20 ADD SWAP1 PUSH3 0x6A SWAP3 SWAP2 SWAP1 PUSH3 0x163 JUMP JUMPDEST POP POP POP PUSH3 0x8D PUSH3 0x81 PUSH3 0x95 PUSH1 0x20 SHL PUSH1 0x20 SHR JUMP JUMPDEST PUSH3 0x9D PUSH1 0x20 SHL PUSH1 0x20 SHR JUMP JUMPDEST POP POP PUSH3 0x49A JUMP JUMPDEST PUSH1 0x0 CALLER SWAP1 POP SWAP1 JUMP JUMPDEST PUSH1 0x0 PUSH1 0x5 PUSH1 0x0 SWAP1 SLOAD SWAP1 PUSH2 0x100 EXP SWAP1 DIV PUSH20 0xFFFFFFFFFFFFFFFFFFFFFFFFFFFFFFFFFFFFFFFF AND SWAP1 POP DUP2 PUSH1 0x5 PUSH1 0x0 PUSH2 0x100 EXP DUP2 SLOAD DUP2 PUSH20 0xFFFFFFFFFFFFFFFFFFFFFFFFFFFFFFFFFFFFFFFF MUL NOT AND SWAP1 DUP4 PUSH20 0xFFFFFFFFFFFFFFFFFFFFFFFFFFFFFFFFFFFFFFFF AND MUL OR SWAP1 SSTORE POP DUP2 PUSH20 0xFFFFFFFFFFFFFFFFFFFFFFFFFFFFFFFFFFFFFFFF AND DUP2 PUSH20 0xFFFFFFFFFFFFFFFFFFFFFFFFFFFFFFFFFFFFFFFF AND PUSH32 0x8BE0079C531659141344CD1FD0A4F28419497F9722A3DAAFE3B4186F6B6457E0 PUSH1 0x40 MLOAD PUSH1 0x40 MLOAD DUP1 SWAP2 SUB SWAP1 LOG3 POP POP JUMP JUMPDEST DUP3 DUP1 SLOAD PUSH3 0x171 SWAP1 PUSH3 0x3AB JUMP JUMPDEST SWAP1 PUSH1 0x0 MSTORE PUSH1 0x20 PUSH1 0x0 KECCAK256 SWAP1 PUSH1 0x1F ADD PUSH1 0x20 SWAP1 DIV DUP2 ADD SWAP3 DUP3 PUSH3 0x195 JUMPI PUSH1 0x0 DUP6 SSTORE PUSH3 0x1E1 JUMP JUMPDEST DUP3 PUSH1 0x1F LT PUSH3 0x1B0 JUMPI DUP1 MLOAD PUSH1 0xFF NOT AND DUP4 DUP1 ADD OR DUP6 SSTORE PUSH3 0x1E1 JUMP JUMPDEST DUP3 DUP1 ADD PUSH1 0x1 ADD DUP6 SSTORE DUP3 ISZERO PUSH3 0x1E1 JUMPI SWAP2 DUP3 ADD JUMPDEST DUP3 DUP2 GT ISZERO PUSH3 0x1E0 JUMPI DUP3 MLOAD DUP3 SSTORE SWAP2 PUSH1 0x20 ADD SWAP2 SWAP1 PUSH1 0x1 ADD SWAP1 PUSH3 0x1C3 JUMP JUMPDEST JUMPDEST POP SWAP1 POP PUSH3 0x1F0 SWAP2 SWAP1 PUSH3 0x1F4 JUMP JUMPDEST POP SWAP1 JUMP JUMPDEST JUMPDEST DUP1 DUP3 GT ISZERO PUSH3 0x20F JUMPI PUSH1 0x0 DUP2 PUSH1 0x0 SWAP1 SSTORE POP PUSH1 0x1 ADD PUSH3 0x1F5 JUMP JUMPDEST POP SWAP1 JUMP JUMPDEST PUSH1 0x0 PUSH3 0x22A PUSH3 0x224 DUP5 PUSH3 0x33F JUMP JUMPDEST PUSH3 0x316 JUMP JUMPDEST SWAP1 POP DUP3 DUP2 MSTORE PUSH1 0x20 DUP2 ADD DUP5 DUP5 DUP5 ADD GT ISZERO PUSH3 0x249 JUMPI PUSH3 0x248 PUSH3 0x47A JUMP JUMPDEST JUMPDEST PUSH3 0x256 DUP5 DUP3 DUP6 PUSH3 0x375 JUMP JUMPDEST POP SWAP4 SWAP3 POP POP POP JUMP JUMPDEST PUSH1 0x0 DUP3 PUSH1 0x1F DUP4 ADD SLT PUSH3 0x276 JUMPI PUSH3 0x275 PUSH3 0x475 JUMP JUMPDEST JUMPDEST DUP2 MLOAD PUSH3 0x288 DUP5 DUP3 PUSH1 0x20 DUP7 ADD PUSH3 0x213 JUMP JUMPDEST SWAP2 POP POP SWAP3 SWAP2 POP POP JUMP JUMPDEST PUSH1 0x0 DUP1 PUSH1 0x40 DUP4 DUP6 SUB SLT ISZERO PUSH3 0x2AB JUMPI PUSH3 0x2AA PUSH3 0x484 JUMP JUMPDEST JUMPDEST PUSH1 0x0 DUP4 ADD MLOAD PUSH8 0xFFFFFFFFFFFFFFFF DUP2 GT ISZERO PUSH3 0x2CC JUMPI PUSH3 0x2CB PUSH3 0x47F JUMP JUMPDEST JUMPDEST PUSH3 0x2DA DUP6 DUP3 DUP7 ADD PUSH3 0x25E JUMP JUMPDEST SWAP3 POP POP PUSH1 0x20 DUP4 ADD MLOAD PUSH8 0xFFFFFFFFFFFFFFFF DUP2 GT ISZERO PUSH3 0x2FE JUMPI PUSH3 0x2FD PUSH3 0x47F JUMP JUMPDEST JUMPDEST PUSH3 0x30C DUP6 DUP3 DUP7 ADD PUSH3 0x25E JUMP JUMPDEST SWAP2 POP POP SWAP3 POP SWAP3 SWAP1 POP JUMP JUMPDEST PUSH1 0x0 PUSH3 0x322 PUSH3 0x335 JUMP JUMPDEST SWAP1 POP PUSH3 0x330 DUP3 DUP3 PUSH3 0x3E1 JUMP JUMPDEST SWAP2 SWAP1 POP JUMP JUMPDEST PUSH1 0x0 PUSH1 0x40 MLOAD SWAP1 POP SWAP1 JUMP JUMPDEST PUSH1 0x0 PUSH8 0xFFFFFFFFFFFFFFFF DUP3 GT ISZERO PUSH3 0x35D JUMPI PUSH3 0x35C PUSH3 0x446 JUMP JUMPDEST JUMPDEST PUSH3 0x368 DUP3 PUSH3 0x489 JUMP JUMPDEST SWAP1 POP PUSH1 0x20 DUP2 ADD SWAP1 POP SWAP2 SWAP1 POP JUMP JUMPDEST PUSH1 0x0 JUMPDEST DUP4 DUP2 LT ISZERO PUSH3 0x395 JUMPI DUP1 DUP3 ADD MLOAD DUP2 DUP5 ADD MSTORE PUSH1 0x20 DUP2 ADD SWAP1 POP PUSH3 0x378 JUMP JUMPDEST DUP4 DUP2 GT ISZERO PUSH3 0x3A5 JUMPI PUSH1 0x0 DUP5 DUP5 ADD MSTORE JUMPDEST POP POP POP POP JUMP JUMPDEST PUSH1 0x0 PUSH1 0x2 DUP3 DIV SWAP1 POP PUSH1 0x1 DUP3 AND DUP1 PUSH3 0x3C4 JUMPI PUSH1 0x7F DUP3 AND SWAP2 POP JUMPDEST PUSH1 0x20 DUP3 LT DUP2 EQ ISZERO PUSH3 0x3DB JUMPI PUSH3 0x3DA PUSH3 0x417 JUMP JUMPDEST JUMPDEST POP SWAP2 SWAP1 POP JUMP JUMPDEST PUSH3 0x3EC DUP3 PUSH3 0x489 JUMP JUMPDEST DUP2 ADD DUP2 DUP2 LT PUSH8 0xFFFFFFFFFFFFFFFF DUP3 GT OR ISZERO PUSH3 0x40E JUMPI PUSH3 0x40D PUSH3 0x446 JUMP JUMPDEST JUMPDEST DUP1 PUSH1 0x40 MSTORE POP POP POP JUMP JUMPDEST PUSH32 0x4E487B7100000000000000000000000000000000000000000000000000000000 PUSH1 0x0 MSTORE PUSH1 0x22 PUSH1 0x4 MSTORE PUSH1 0x24 PUSH1 0x0 REVERT JUMPDEST PUSH32 0x4E487B7100000000000000000000000000000000000000000000000000000000 PUSH1 0x0 MSTORE PUSH1 0x41 PUSH1 0x4 MSTORE PUSH1 0x24 PUSH1 0x0 REVERT JUMPDEST PUSH1 0x0 DUP1 REVERT JUMPDEST PUSH1 0x0 DUP1 REVERT JUMPDEST PUSH1 0x0 DUP1 REVERT JUMPDEST PUSH1 0x0 DUP1 REVERT JUMPDEST PUSH1 0x0 PUSH1 0x1F NOT PUSH1 0x1F DUP4 ADD AND SWAP1 POP SWAP2 SWAP1 POP JUMP JUMPDEST PUSH2 0x1F0F DUP1 PUSH3 0x4AA PUSH1 0x0 CODECOPY PUSH1 0x0 RETURN INVALID PUSH1 0x80 PUSH1 0x40 MSTORE CALLVALUE DUP1 ISZERO PUSH2 0x10 JUMPI PUSH1 0x0 DUP1 REVERT JUMPDEST POP PUSH1 0x4 CALLDATASIZE LT PUSH2 0x10B JUMPI PUSH1 0x0 CALLDATALOAD PUSH1 0xE0 SHR DUP1 PUSH4 0x70A08231 GT PUSH2 0xA2 JUMPI DUP1 PUSH4 0x95D89B41 GT PUSH2 0x71 JUMPI DUP1 PUSH4 0x95D89B41 EQ PUSH2 0x2A6 JUMPI DUP1 PUSH4 0xA457C2D7 EQ PUSH2 0x2C4 JUMPI DUP1 PUSH4 0xA9059CBB EQ PUSH2 0x2F4 JUMPI DUP1 PUSH4 0xDD62ED3E EQ PUSH2 0x324 JUMPI DUP1 PUSH4 0xF2FDE38B EQ PUSH2 0x354 JUMPI PUSH2 0x10B JUMP JUMPDEST DUP1 PUSH4 0x70A08231 EQ PUSH2 0x232 JUMPI DUP1 PUSH4 0x715018A6 EQ PUSH2 0x262 JUMPI DUP1 PUSH4 0x79CC6790 EQ PUSH2 0x26C JUMPI DUP1 PUSH4 0x8DA5CB5B EQ PUSH2 0x288 JUMPI PUSH2 0x10B JUMP JUMPDEST DUP1 PUSH4 0x313CE567 GT PUSH2 0xDE JUMPI DUP1 PUSH4 0x313CE567 EQ PUSH2 0x1AC JUMPI DUP1 PUSH4 0x39509351 EQ PUSH2 0x1CA JUMPI DUP1 PUSH4 0x40C10F19 EQ PUSH2 0x1FA JUMPI DUP1 PUSH4 0x42966C68 EQ PUSH2 0x216 JUMPI PUSH2 0x10B JUMP JUMPDEST DUP1 PUSH4 0x6FDDE03 EQ PUSH2 0x110 JUMPI DUP1 PUSH4 0x95EA7B3 EQ PUSH2 0x12E JUMPI DUP1 PUSH4 0x18160DDD EQ PUSH2 0x15E JUMPI DUP1 PUSH4 0x23B872DD EQ PUSH2 0x17C JUMPI JUMPDEST PUSH1 0x0 DUP1 REVERT JUMPDEST PUSH2 0x118 PUSH2 0x370 JUMP JUMPDEST PUSH1 0x40 MLOAD PUSH2 0x125 SWAP2 SWAP1 PUSH2 0x1728 JUMP JUMPDEST PUSH1 0x40 MLOAD DUP1 SWAP2 SUB SWAP1 RETURN JUMPDEST PUSH2 0x148 PUSH1 0x4 DUP1 CALLDATASIZE SUB DUP2 ADD SWAP1 PUSH2 0x143 SWAP2 SWAP1 PUSH2 0x1449 JUMP JUMPDEST PUSH2 0x402 JUMP JUMPDEST PUSH1 0x40 MLOAD PUSH2 0x155 SWAP2 SWAP1 PUSH2 0x170D JUMP JUMPDEST PUSH1 0x40 MLOAD DUP1 SWAP2 SUB SWAP1 RETURN JUMPDEST PUSH2 0x166 PUSH2 0x420 JUMP JUMPDEST PUSH1 0x40 MLOAD PUSH2 0x173 SWAP2 SWAP1 PUSH2 0x18EA JUMP JUMPDEST PUSH1 0x40 MLOAD DUP1 SWAP2 SUB SWAP1 RETURN JUMPDEST PUSH2 0x196 PUSH1 0x4 DUP1 CALLDATASIZE SUB DUP2 ADD SWAP1 PUSH2 0x191 SWAP2 SWAP1 PUSH2 0x13F6 JUMP JUMPDEST PUSH2 0x42A JUMP JUMPDEST PUSH1 0x40 MLOAD PUSH2 0x1A3 SWAP2 SWAP1 PUSH2 0x170D JUMP JUMPDEST PUSH1 0x40 MLOAD DUP1 SWAP2 SUB SWAP1 RETURN JUMPDEST PUSH2 0x1B4 PUSH2 0x522 JUMP JUMPDEST PUSH1 0x40 MLOAD PUSH2 0x1C1 SWAP2 SWAP1 PUSH2 0x1905 JUMP JUMPDEST PUSH1 0x40 MLOAD DUP1 SWAP2 SUB SWAP1 RETURN JUMPDEST PUSH2 0x1E4 PUSH1 0x4 DUP1 CALLDATASIZE SUB DUP2 ADD SWAP1 PUSH2 0x1DF SWAP2 SWAP1 PUSH2 0x1449 JUMP JUMPDEST PUSH2 0x52B JUMP JUMPDEST PUSH1 0x40 MLOAD PUSH2 0x1F1 SWAP2 SWAP1 PUSH2 0x170D JUMP JUMPDEST PUSH1 0x40 MLOAD DUP1 SWAP2 SUB SWAP1 RETURN JUMPDEST PUSH2 0x214 PUSH1 0x4 DUP1 CALLDATASIZE SUB DUP2 ADD SWAP1 PUSH2 0x20F SWAP2 SWAP1 PUSH2 0x1449 JUMP JUMPDEST PUSH2 0x5D7 JUMP JUMPDEST STOP JUMPDEST PUSH2 0x230 PUSH1 0x4 DUP1 CALLDATASIZE SUB DUP2 ADD SWAP1 PUSH2 0x22B SWAP2 SWAP1 PUSH2 0x1489 JUMP JUMPDEST PUSH2 0x661 JUMP JUMPDEST STOP JUMPDEST PUSH2 0x24C PUSH1 0x4 DUP1 CALLDATASIZE SUB DUP2 ADD SWAP1 PUSH2 0x247 SWAP2 SWAP1 PUSH2 0x1389 JUMP JUMPDEST PUSH2 0x675 JUMP JUMPDEST PUSH1 0x40 MLOAD PUSH2 0x259 SWAP2 SWAP1 PUSH2 0x18EA JUMP JUMPDEST PUSH1 0x40 MLOAD DUP1 SWAP2 SUB SWAP1 RETURN JUMPDEST PUSH2 0x26A PUSH2 0x6BD JUMP JUMPDEST STOP JUMPDEST PUSH2 0x286 PUSH1 0x4 DUP1 CALLDATASIZE SUB DUP2 ADD SWAP1 PUSH2 0x281 SWAP2 SWAP1 PUSH2 0x1449 JUMP JUMPDEST PUSH2 0x745 JUMP JUMPDEST STOP JUMPDEST PUSH2 0x290 PUSH2 0x7C0 JUMP JUMPDEST PUSH1 0x40 MLOAD PUSH2 0x29D SWAP2 SWAP1 PUSH2 0x16F2 JUMP JUMPDEST PUSH1 0x40 MLOAD DUP1 SWAP2 SUB SWAP1 RETURN JUMPDEST PUSH2 0x2AE PUSH2 0x7EA JUMP JUMPDEST PUSH1 0x40 MLOAD PUSH2 0x2BB SWAP2 SWAP1 PUSH2 0x1728 JUMP JUMPDEST PUSH1 0x40 MLOAD DUP1 SWAP2 SUB SWAP1 RETURN JUMPDEST PUSH2 0x2DE PUSH1 0x4 DUP1 CALLDATASIZE SUB DUP2 ADD SWAP1 PUSH2 0x2D9 SWAP2 SWAP1 PUSH2 0x1449 JUMP JUMPDEST PUSH2 0x87C JUMP JUMPDEST PUSH1 0x40 MLOAD PUSH2 0x2EB SWAP2 SWAP1 PUSH2 0x170D JUMP JUMPDEST PUSH1 0x40 MLOAD DUP1 SWAP2 SUB SWAP1 RETURN JUMPDEST PUSH2 0x30E PUSH1 0x4 DUP1 CALLDATASIZE SUB DUP2 ADD SWAP1 PUSH2 0x309 SWAP2 SWAP1 PUSH2 0x1449 JUMP JUMPDEST PUSH2 0x967 JUMP JUMPDEST PUSH1 0x40 MLOAD PUSH2 0x31B SWAP2 SWAP1 PUSH2 0x170D JUMP JUMPDEST PUSH1 0x40 MLOAD DUP1 SWAP2 SUB SWAP1 RETURN JUMPDEST PUSH2 0x33E PUSH1 0x4 DUP1 CALLDATASIZE SUB DUP2 ADD SWAP1 PUSH2 0x339 SWAP2 SWAP1 PUSH2 0x13B6 JUMP JUMPDEST PUSH2 0x985 JUMP JUMPDEST PUSH1 0x40 MLOAD PUSH2 0x34B SWAP2 SWAP1 PUSH2 0x18EA JUMP JUMPDEST PUSH1 0x40 MLOAD DUP1 SWAP2 SUB SWAP1 RETURN JUMPDEST PUSH2 0x36E PUSH1 0x4 DUP1 CALLDATASIZE SUB DUP2 ADD SWAP1 PUSH2 0x369 SWAP2 SWAP1 PUSH2 0x1389 JUMP JUMPDEST PUSH2 0xA0C JUMP JUMPDEST STOP JUMPDEST PUSH1 0x60 PUSH1 0x3 DUP1 SLOAD PUSH2 0x37F SWAP1 PUSH2 0x1A4E JUMP JUMPDEST DUP1 PUSH1 0x1F ADD PUSH1 0x20 DUP1 SWAP2 DIV MUL PUSH1 0x20 ADD PUSH1 0x40 MLOAD SWAP1 DUP2 ADD PUSH1 0x40 MSTORE DUP1 SWAP3 SWAP2 SWAP1 DUP2 DUP2 MSTORE PUSH1 0x20 ADD DUP3 DUP1 SLOAD PUSH2 0x3AB SWAP1 PUSH2 0x1A4E JUMP JUMPDEST DUP1 ISZERO PUSH2 0x3F8 JUMPI DUP1 PUSH1 0x1F LT PUSH2 0x3CD JUMPI PUSH2 0x100 DUP1 DUP4 SLOAD DIV MUL DUP4 MSTORE SWAP2 PUSH1 0x20 ADD SWAP2 PUSH2 0x3F8 JUMP JUMPDEST DUP3 ADD SWAP2 SWAP1 PUSH1 0x0 MSTORE PUSH1 0x20 PUSH1 0x0 KECCAK256 SWAP1 JUMPDEST DUP2 SLOAD DUP2 MSTORE SWAP1 PUSH1 0x1 ADD SWAP1 PUSH1 0x20 ADD DUP1 DUP4 GT PUSH2 0x3DB JUMPI DUP3 SWAP1 SUB PUSH1 0x1F AND DUP3 ADD SWAP2 JUMPDEST POP POP POP POP POP SWAP1 POP SWAP1 JUMP JUMPDEST PUSH1 0x0 PUSH2 0x416 PUSH2 0x40F PUSH2 0xB04 JUMP JUMPDEST DUP5 DUP5 PUSH2 0xB0C JUMP JUMPDEST PUSH1 0x1 SWAP1 POP SWAP3 SWAP2 POP POP JUMP JUMPDEST PUSH1 0x0 PUSH1 0x2 SLOAD SWAP1 POP SWAP1 JUMP JUMPDEST PUSH1 0x0 PUSH2 0x437 DUP5 DUP5 DUP5 PUSH2 0xCD7 JUMP JUMPDEST PUSH1 0x0 PUSH1 0x1 PUSH1 0x0 DUP7 PUSH20 0xFFFFFFFFFFFFFFFFFFFFFFFFFFFFFFFFFFFFFFFF AND PUSH20 0xFFFFFFFFFFFFFFFFFFFFFFFFFFFFFFFFFFFFFFFF AND DUP2 MSTORE PUSH1 0x20 ADD SWAP1 DUP2 MSTORE PUSH1 0x20 ADD PUSH1 0x0 KECCAK256 PUSH1 0x0 PUSH2 0x482 PUSH2 0xB04 JUMP JUMPDEST PUSH20 0xFFFFFFFFFFFFFFFFFFFFFFFFFFFFFFFFFFFFFFFF AND PUSH20 0xFFFFFFFFFFFFFFFFFFFFFFFFFFFFFFFFFFFFFFFF AND DUP2 MSTORE PUSH1 0x20 ADD SWAP1 DUP2 MSTORE PUSH1 0x20 ADD PUSH1 0x0 KECCAK256 SLOAD SWAP1 POP DUP3 DUP2 LT ISZERO PUSH2 0x502 JUMPI PUSH1 0x40 MLOAD PUSH32 0x8C379A000000000000000000000000000000000000000000000000000000000 DUP2 MSTORE PUSH1 0x4 ADD PUSH2 0x4F9 SWAP1 PUSH2 0x17EA JUMP JUMPDEST PUSH1 0x40 MLOAD DUP1 SWAP2 SUB SWAP1 REVERT JUMPDEST PUSH2 0x516 DUP6 PUSH2 0x50E PUSH2 0xB04 JUMP JUMPDEST DUP6 DUP5 SUB PUSH2 0xB0C JUMP JUMPDEST PUSH1 0x1 SWAP2 POP POP SWAP4 SWAP3 POP POP POP JUMP JUMPDEST PUSH1 0x0 PUSH1 0x12 SWAP1 POP SWAP1 JUMP JUMPDEST PUSH1 0x0 PUSH2 0x5CD PUSH2 0x538 PUSH2 0xB04 JUMP JUMPDEST DUP5 DUP5 PUSH1 0x1 PUSH1 0x0 PUSH2 0x546 PUSH2 0xB04 JUMP JUMPDEST PUSH20 0xFFFFFFFFFFFFFFFFFFFFFFFFFFFFFFFFFFFFFFFF AND PUSH20 0xFFFFFFFFFFFFFFFFFFFFFFFFFFFFFFFFFFFFFFFF AND DUP2 MSTORE PUSH1 0x20 ADD SWAP1 DUP2 MSTORE PUSH1 0x20 ADD PUSH1 0x0 KECCAK256 PUSH1 0x0 DUP9 PUSH20 0xFFFFFFFFFFFFFFFFFFFFFFFFFFFFFFFFFFFFFFFF AND PUSH20 0xFFFFFFFFFFFFFFFFFFFFFFFFFFFFFFFFFFFFFFFF AND DUP2 MSTORE PUSH1 0x20 ADD SWAP1 DUP2 MSTORE PUSH1 0x20 ADD PUSH1 0x0 KECCAK256 SLOAD PUSH2 0x5C8 SWAP2 SWAP1 PUSH2 0x193C JUMP JUMPDEST PUSH2 0xB0C JUMP JUMPDEST PUSH1 0x1 SWAP1 POP SWAP3 SWAP2 POP POP JUMP JUMPDEST PUSH2 0x5DF PUSH2 0xB04 JUMP JUMPDEST PUSH20 0xFFFFFFFFFFFFFFFFFFFFFFFFFFFFFFFFFFFFFFFF AND PUSH2 0x5FD PUSH2 0x7C0 JUMP JUMPDEST PUSH20 0xFFFFFFFFFFFFFFFFFFFFFFFFFFFFFFFFFFFFFFFF AND EQ PUSH2 0x653 JUMPI PUSH1 0x40 MLOAD PUSH32 0x8C379A000000000000000000000000000000000000000000000000000000000 DUP2 MSTORE PUSH1 0x4 ADD PUSH2 0x64A SWAP1 PUSH2 0x180A JUMP JUMPDEST PUSH1 0x40 MLOAD DUP1 SWAP2 SUB SWAP1 REVERT JUMPDEST PUSH2 0x65D DUP3 DUP3 PUSH2 0xF58 JUMP JUMPDEST POP POP JUMP JUMPDEST PUSH2 0x672 PUSH2 0x66C PUSH2 0xB04 JUMP JUMPDEST DUP3 PUSH2 0x10B8 JUMP JUMPDEST POP JUMP JUMPDEST PUSH1 0x0 DUP1 PUSH1 0x0 DUP4 PUSH20 0xFFFFFFFFFFFFFFFFFFFFFFFFFFFFFFFFFFFFFFFF AND PUSH20 0xFFFFFFFFFFFFFFFFFFFFFFFFFFFFFFFFFFFFFFFF AND DUP2 MSTORE PUSH1 0x20 ADD SWAP1 DUP2 MSTORE PUSH1 0x20 ADD PUSH1 0x0 KECCAK256 SLOAD SWAP1 POP SWAP2 SWAP1 POP JUMP JUMPDEST PUSH2 0x6C5 PUSH2 0xB04 JUMP JUMPDEST PUSH20 0xFFFFFFFFFFFFFFFFFFFFFFFFFFFFFFFFFFFFFFFF AND PUSH2 0x6E3 PUSH2 0x7C0 JUMP JUMPDEST PUSH20 0xFFFFFFFFFFFFFFFFFFFFFFFFFFFFFFFFFFFFFFFF AND EQ PUSH2 0x739 JUMPI PUSH1 0x40 MLOAD PUSH32 0x8C379A000000000000000000000000000000000000000000000000000000000 DUP2 MSTORE PUSH1 0x4 ADD PUSH2 0x730 SWAP1 PUSH2 0x180A JUMP JUMPDEST PUSH1 0x40 MLOAD DUP1 SWAP2 SUB SWAP1 REVERT JUMPDEST PUSH2 0x743 PUSH1 0x0 PUSH2 0x128F JUMP JUMPDEST JUMP JUMPDEST PUSH1 0x0 PUSH2 0x758 DUP4 PUSH2 0x753 PUSH2 0xB04 JUMP JUMPDEST PUSH2 0x985 JUMP JUMPDEST SWAP1 POP DUP2 DUP2 LT ISZERO PUSH2 0x79D JUMPI PUSH1 0x40 MLOAD PUSH32 0x8C379A000000000000000000000000000000000000000000000000000000000 DUP2 MSTORE PUSH1 0x4 ADD PUSH2 0x794 SWAP1 PUSH2 0x182A JUMP JUMPDEST PUSH1 0x40 MLOAD DUP1 SWAP2 SUB SWAP1 REVERT JUMPDEST PUSH2 0x7B1 DUP4 PUSH2 0x7A9 PUSH2 0xB04 JUMP JUMPDEST DUP5 DUP5 SUB PUSH2 0xB0C JUMP JUMPDEST PUSH2 0x7BB DUP4 DUP4 PUSH2 0x10B8 JUMP JUMPDEST POP POP POP JUMP JUMPDEST PUSH1 0x0 PUSH1 0x5 PUSH1 0x0 SWAP1 SLOAD SWAP1 PUSH2 0x100 EXP SWAP1 DIV PUSH20 0xFFFFFFFFFFFFFFFFFFFFFFFFFFFFFFFFFFFFFFFF AND SWAP1 POP SWAP1 JUMP JUMPDEST PUSH1 0x60 PUSH1 0x4 DUP1 SLOAD PUSH2 0x7F9 SWAP1 PUSH2 0x1A4E JUMP JUMPDEST DUP1 PUSH1 0x1F ADD PUSH1 0x20 DUP1 SWAP2 DIV MUL PUSH1 0x20 ADD PUSH1 0x40 MLOAD SWAP1 DUP2 ADD PUSH1 0x40 MSTORE DUP1 SWAP3 SWAP2 SWAP1 DUP2 DUP2 MSTORE PUSH1 0x20 ADD DUP3 DUP1 SLOAD PUSH2 0x825 SWAP1 PUSH2 0x1A4E JUMP JUMPDEST DUP1 ISZERO PUSH2 0x872 JUMPI DUP1 PUSH1 0x1F LT PUSH2 0x847 JUMPI PUSH2 0x100 DUP1 DUP4 SLOAD DIV MUL DUP4 MSTORE SWAP2 PUSH1 0x20 ADD SWAP2 PUSH2 0x872 JUMP JUMPDEST DUP3 ADD SWAP2 SWAP1 PUSH1 0x0 MSTORE PUSH1 0x20 PUSH1 0x0 KECCAK256 SWAP1 JUMPDEST DUP2 SLOAD DUP2 MSTORE SWAP1 PUSH1 0x1 ADD SWAP1 PUSH1 0x20 ADD DUP1 DUP4 GT PUSH2 0x855 JUMPI DUP3 SWAP1 SUB PUSH1 0x1F AND DUP3 ADD SWAP2 JUMPDEST POP POP POP POP POP SWAP1 POP SWAP1 JUMP JUMPDEST PUSH1 0x0 DUP1 PUSH1 0x1 PUSH1 0x0 PUSH2 0x88B PUSH2 0xB04 JUMP JUMPDEST PUSH20 0xFFFFFFFFFFFFFFFFFFFFFFFFFFFFFFFFFFFFFFFF AND PUSH20 0xFFFFFFFFFFFFFFFFFFFFFFFFFFFFFFFFFFFFFFFF AND DUP2 MSTORE PUSH1 0x20 ADD SWAP1 DUP2 MSTORE PUSH1 0x20 ADD PUSH1 0x0 KECCAK256 PUSH1 0x0 DUP6 PUSH20 0xFFFFFFFFFFFFFFFFFFFFFFFFFFFFFFFFFFFFFFFF AND PUSH20 0xFFFFFFFFFFFFFFFFFFFFFFFFFFFFFFFFFFFFFFFF AND DUP2 MSTORE PUSH1 0x20 ADD SWAP1 DUP2 MSTORE PUSH1 0x20 ADD PUSH1 0x0 KECCAK256 SLOAD SWAP1 POP DUP3 DUP2 LT ISZERO PUSH2 0x948 JUMPI PUSH1 0x40 MLOAD PUSH32 0x8C379A000000000000000000000000000000000000000000000000000000000 DUP2 MSTORE PUSH1 0x4 ADD PUSH2 0x93F SWAP1 PUSH2 0x18AA JUMP JUMPDEST PUSH1 0x40 MLOAD DUP1 SWAP2 SUB SWAP1 REVERT JUMPDEST PUSH2 0x95C PUSH2 0x953 PUSH2 0xB04 JUMP JUMPDEST DUP6 DUP6 DUP5 SUB PUSH2 0xB0C JUMP JUMPDEST PUSH1 0x1 SWAP2 POP POP SWAP3 SWAP2 POP POP JUMP JUMPDEST PUSH1 0x0 PUSH2 0x97B PUSH2 0x974 PUSH2 0xB04 JUMP JUMPDEST DUP5 DUP5 PUSH2 0xCD7 JUMP JUMPDEST PUSH1 0x1 SWAP1 POP SWAP3 SWAP2 POP POP JUMP JUMPDEST PUSH1 0x0 PUSH1 0x1 PUSH1 0x0 DUP5 PUSH20 0xFFFFFFFFFFFFFFFFFFFFFFFFFFFFFFFFFFFFFFFF AND PUSH20 0xFFFFFFFFFFFFFFFFFFFFFFFFFFFFFFFFFFFFFFFF AND DUP2 MSTORE PUSH1 0x20 ADD SWAP1 DUP2 MSTORE PUSH1 0x20 ADD PUSH1 0x0 KECCAK256 PUSH1 0x0 DUP4 PUSH20 0xFFFFFFFFFFFFFFFFFFFFFFFFFFFFFFFFFFFFFFFF AND PUSH20 0xFFFFFFFFFFFFFFFFFFFFFFFFFFFFFFFFFFFFFFFF AND DUP2 MSTORE PUSH1 0x20 ADD SWAP1 DUP2 MSTORE PUSH1 0x20 ADD PUSH1 0x0 KECCAK256 SLOAD SWAP1 POP SWAP3 SWAP2 POP POP JUMP JUMPDEST PUSH2 0xA14 PUSH2 0xB04 JUMP JUMPDEST PUSH20 0xFFFFFFFFFFFFFFFFFFFFFFFFFFFFFFFFFFFFFFFF AND PUSH2 0xA32 PUSH2 0x7C0 JUMP JUMPDEST PUSH20 0xFFFFFFFFFFFFFFFFFFFFFFFFFFFFFFFFFFFFFFFF AND EQ PUSH2 0xA88 JUMPI PUSH1 0x40 MLOAD PUSH32 0x8C379A000000000000000000000000000000000000000000000000000000000 DUP2 MSTORE PUSH1 0x4 ADD PUSH2 0xA7F SWAP1 PUSH2 0x180A JUMP JUMPDEST PUSH1 0x40 MLOAD DUP1 SWAP2 SUB SWAP1 REVERT JUMPDEST PUSH1 0x0 PUSH20 0xFFFFFFFFFFFFFFFFFFFFFFFFFFFFFFFFFFFFFFFF AND DUP2 PUSH20 0xFFFFFFFFFFFFFFFFFFFFFFFFFFFFFFFFFFFFFFFF AND EQ ISZERO PUSH2 0xAF8 JUMPI PUSH1 0x40 MLOAD PUSH32 0x8C379A000000000000000000000000000000000000000000000000000000000 DUP2 MSTORE PUSH1 0x4 ADD PUSH2 0xAEF SWAP1 PUSH2 0x178A JUMP JUMPDEST PUSH1 0x40 MLOAD DUP1 SWAP2 SUB SWAP1 REVERT JUMPDEST PUSH2 0xB01 DUP2 PUSH2 0x128F JUMP JUMPDEST POP JUMP JUMPDEST PUSH1 0x0 CALLER SWAP1 POP SWAP1 JUMP JUMPDEST PUSH1 0x0 PUSH20 0xFFFFFFFFFFFFFFFFFFFFFFFFFFFFFFFFFFFFFFFF AND DUP4 PUSH20 0xFFFFFFFFFFFFFFFFFFFFFFFFFFFFFFFFFFFFFFFF AND EQ ISZERO PUSH2 0xB7C JUMPI PUSH1 0x40 MLOAD PUSH32 0x8C379A000000000000000000000000000000000000000000000000000000000 DUP2 MSTORE PUSH1 0x4 ADD PUSH2 0xB73 SWAP1 PUSH2 0x188A JUMP JUMPDEST PUSH1 0x40 MLOAD DUP1 SWAP2 SUB SWAP1 REVERT JUMPDEST PUSH1 0x0 PUSH20 0xFFFFFFFFFFFFFFFFFFFFFFFFFFFFFFFFFFFFFFFF AND DUP3 PUSH20 0xFFFFFFFFFFFFFFFFFFFFFFFFFFFFFFFFFFFFFFFF AND EQ ISZERO PUSH2 0xBEC JUMPI PUSH1 0x40 MLOAD PUSH32 0x8C379A000000000000000000000000000000000000000000000000000000000 DUP2 MSTORE PUSH1 0x4 ADD PUSH2 0xBE3 SWAP1 PUSH2 0x17AA JUMP JUMPDEST PUSH1 0x40 MLOAD DUP1 SWAP2 SUB SWAP1 REVERT JUMPDEST DUP1 PUSH1 0x1 PUSH1 0x0 DUP6 PUSH20 0xFFFFFFFFFFFFFFFFFFFFFFFFFFFFFFFFFFFFFFFF AND PUSH20 0xFFFFFFFFFFFFFFFFFFFFFFFFFFFFFFFFFFFFFFFF AND DUP2 MSTORE PUSH1 0x20 ADD SWAP1 DUP2 MSTORE PUSH1 0x20 ADD PUSH1 0x0 KECCAK256 PUSH1 0x0 DUP5 PUSH20 0xFFFFFFFFFFFFFFFFFFFFFFFFFFFFFFFFFFFFFFFF AND PUSH20 0xFFFFFFFFFFFFFFFFFFFFFFFFFFFFFFFFFFFFFFFF AND DUP2 MSTORE PUSH1 0x20 ADD SWAP1 DUP2 MSTORE PUSH1 0x20 ADD PUSH1 0x0 KECCAK256 DUP2 SWAP1 SSTORE POP DUP2 PUSH20 0xFFFFFFFFFFFFFFFFFFFFFFFFFFFFFFFFFFFFFFFF AND DUP4 PUSH20 0xFFFFFFFFFFFFFFFFFFFFFFFFFFFFFFFFFFFFFFFF AND PUSH32 0x8C5BE1E5EBEC7D5BD14F71427D1E84F3DD0314C0F7B2291E5B200AC8C7C3B925 DUP4 PUSH1 0x40 MLOAD PUSH2 0xCCA SWAP2 SWAP1 PUSH2 0x18EA JUMP JUMPDEST PUSH1 0x40 MLOAD DUP1 SWAP2 SUB SWAP1 LOG3 POP POP POP JUMP JUMPDEST PUSH1 0x0 PUSH20 0xFFFFFFFFFFFFFFFFFFFFFFFFFFFFFFFFFFFFFFFF AND DUP4 PUSH20 0xFFFFFFFFFFFFFFFFFFFFFFFFFFFFFFFFFFFFFFFF AND EQ ISZERO PUSH2 0xD47 JUMPI PUSH1 0x40 MLOAD PUSH32 0x8C379A000000000000000000000000000000000000000000000000000000000 DUP2 MSTORE PUSH1 0x4 ADD PUSH2 0xD3E SWAP1 PUSH2 0x186A JUMP JUMPDEST PUSH1 0x40 MLOAD DUP1 SWAP2 SUB SWAP1 REVERT JUMPDEST PUSH1 0x0 PUSH20 0xFFFFFFFFFFFFFFFFFFFFFFFFFFFFFFFFFFFFFFFF AND DUP3 PUSH20 0xFFFFFFFFFFFFFFFFFFFFFFFFFFFFFFFFFFFFFFFF AND EQ ISZERO PUSH2 0xDB7 JUMPI PUSH1 0x40 MLOAD PUSH32 0x8C379A000000000000000000000000000000000000000000000000000000000 DUP2 MSTORE PUSH1 0x4 ADD PUSH2 0xDAE SWAP1 PUSH2 0x174A JUMP JUMPDEST PUSH1 0x40 MLOAD DUP1 SWAP2 SUB SWAP1 REVERT JUMPDEST PUSH2 0xDC2 DUP4 DUP4 DUP4 PUSH2 0x1355 JUMP JUMPDEST PUSH1 0x0 DUP1 PUSH1 0x0 DUP6 PUSH20 0xFFFFFFFFFFFFFFFFFFFFFFFFFFFFFFFFFFFFFFFF AND PUSH20 0xFFFFFFFFFFFFFFFFFFFFFFFFFFFFFFFFFFFFFFFF AND DUP2 MSTORE PUSH1 0x20 ADD SWAP1 DUP2 MSTORE PUSH1 0x20 ADD PUSH1 0x0 KECCAK256 SLOAD SWAP1 POP DUP2 DUP2 LT ISZERO PUSH2 0xE48 JUMPI PUSH1 0x40 MLOAD PUSH32 0x8C379A000000000000000000000000000000000000000000000000000000000 DUP2 MSTORE PUSH1 0x4 ADD PUSH2 0xE3F SWAP1 PUSH2 0x17CA JUMP JUMPDEST PUSH1 0x40 MLOAD DUP1 SWAP2 SUB SWAP1 REVERT JUMPDEST DUP2 DUP2 SUB PUSH1 0x0 DUP1 DUP7 PUSH20 0xFFFFFFFFFFFFFFFFFFFFFFFFFFFFFFFFFFFFFFFF AND PUSH20 0xFFFFFFFFFFFFFFFFFFFFFFFFFFFFFFFFFFFFFFFF AND DUP2 MSTORE PUSH1 0x20 ADD SWAP1 DUP2 MSTORE PUSH1 0x20 ADD PUSH1 0x0 KECCAK256 DUP2 SWAP1 SSTORE POP DUP2 PUSH1 0x0 DUP1 DUP6 PUSH20 0xFFFFFFFFFFFFFFFFFFFFFFFFFFFFFFFFFFFFFFFF AND PUSH20 0xFFFFFFFFFFFFFFFFFFFFFFFFFFFFFFFFFFFFFFFF AND DUP2 MSTORE PUSH1 0x20 ADD SWAP1 DUP2 MSTORE PUSH1 0x20 ADD PUSH1 0x0 KECCAK256 PUSH1 0x0 DUP3 DUP3 SLOAD PUSH2 0xEDB SWAP2 SWAP1 PUSH2 0x193C JUMP JUMPDEST SWAP3 POP POP DUP2 SWAP1 SSTORE POP DUP3 PUSH20 0xFFFFFFFFFFFFFFFFFFFFFFFFFFFFFFFFFFFFFFFF AND DUP5 PUSH20 0xFFFFFFFFFFFFFFFFFFFFFFFFFFFFFFFFFFFFFFFF AND PUSH32 0xDDF252AD1BE2C89B69C2B068FC378DAA952BA7F163C4A11628F55A4DF523B3EF DUP5 PUSH1 0x40 MLOAD PUSH2 0xF3F SWAP2 SWAP1 PUSH2 0x18EA JUMP JUMPDEST PUSH1 0x40 MLOAD DUP1 SWAP2 SUB SWAP1 LOG3 PUSH2 0xF52 DUP5 DUP5 DUP5 PUSH2 0x135A JUMP JUMPDEST POP POP POP POP JUMP JUMPDEST PUSH1 0x0 PUSH20 0xFFFFFFFFFFFFFFFFFFFFFFFFFFFFFFFFFFFFFFFF AND DUP3 PUSH20 0xFFFFFFFFFFFFFFFFFFFFFFFFFFFFFFFFFFFFFFFF AND EQ ISZERO PUSH2 0xFC8 JUMPI PUSH1 0x40 MLOAD PUSH32 0x8C379A000000000000000000000000000000000000000000000000000000000 DUP2 MSTORE PUSH1 0x4 ADD PUSH2 0xFBF SWAP1 PUSH2 0x18CA JUMP JUMPDEST PUSH1 0x40 MLOAD DUP1 SWAP2 SUB SWAP1 REVERT JUMPDEST PUSH2 0xFD4 PUSH1 0x0 DUP4 DUP4 PUSH2 0x1355 JUMP JUMPDEST DUP1 PUSH1 0x2 PUSH1 0x0 DUP3 DUP3 SLOAD PUSH2 0xFE6 SWAP2 SWAP1 PUSH2 0x193C JUMP JUMPDEST SWAP3 POP POP DUP2 SWAP1 SSTORE POP DUP1 PUSH1 0x0 DUP1 DUP5 PUSH20 0xFFFFFFFFFFFFFFFFFFFFFFFFFFFFFFFFFFFFFFFF AND PUSH20 0xFFFFFFFFFFFFFFFFFFFFFFFFFFFFFFFFFFFFFFFF AND DUP2 MSTORE PUSH1 0x20 ADD SWAP1 DUP2 MSTORE PUSH1 0x20 ADD PUSH1 0x0 KECCAK256 PUSH1 0x0 DUP3 DUP3 SLOAD PUSH2 0x103B SWAP2 SWAP1 PUSH2 0x193C JUMP JUMPDEST SWAP3 POP POP DUP2 SWAP1 SSTORE POP DUP2 PUSH20 0xFFFFFFFFFFFFFFFFFFFFFFFFFFFFFFFFFFFFFFFF AND PUSH1 0x0 PUSH20 0xFFFFFFFFFFFFFFFFFFFFFFFFFFFFFFFFFFFFFFFF AND PUSH32 0xDDF252AD1BE2C89B69C2B068FC378DAA952BA7F163C4A11628F55A4DF523B3EF DUP4 PUSH1 0x40 MLOAD PUSH2 0x10A0 SWAP2 SWAP1 PUSH2 0x18EA JUMP JUMPDEST PUSH1 0x40 MLOAD DUP1 SWAP2 SUB SWAP1 LOG3 PUSH2 0x10B4 PUSH1 0x0 DUP4 DUP4 PUSH2 0x135A JUMP JUMPDEST POP POP JUMP JUMPDEST PUSH1 0x0 PUSH20 0xFFFFFFFFFFFFFFFFFFFFFFFFFFFFFFFFFFFFFFFF AND DUP3 PUSH20 0xFFFFFFFFFFFFFFFFFFFFFFFFFFFFFFFFFFFFFFFF AND EQ ISZERO PUSH2 0x1128 JUMPI PUSH1 0x40 MLOAD PUSH32 0x8C379A000000000000000000000000000000000000000000000000000000000 DUP2 MSTORE PUSH1 0x4 ADD PUSH2 0x111F SWAP1 PUSH2 0x184A JUMP JUMPDEST PUSH1 0x40 MLOAD DUP1 SWAP2 SUB SWAP1 REVERT JUMPDEST PUSH2 0x1134 DUP3 PUSH1 0x0 DUP4 PUSH2 0x1355 JUMP JUMPDEST PUSH1 0x0 DUP1 PUSH1 0x0 DUP5 PUSH20 0xFFFFFFFFFFFFFFFFFFFFFFFFFFFFFFFFFFFFFFFF AND PUSH20 0xFFFFFFFFFFFFFFFFFFFFFFFFFFFFFFFFFFFFFFFF AND DUP2 MSTORE PUSH1 0x20 ADD SWAP1 DUP2 MSTORE PUSH1 0x20 ADD PUSH1 0x0 KECCAK256 SLOAD SWAP1 POP DUP2 DUP2 LT ISZERO PUSH2 0x11BA JUMPI PUSH1 0x40 MLOAD PUSH32 0x8C379A000000000000000000000000000000000000000000000000000000000 DUP2 MSTORE PUSH1 0x4 ADD PUSH2 0x11B1 SWAP1 PUSH2 0x176A JUMP JUMPDEST PUSH1 0x40 MLOAD DUP1 SWAP2 SUB SWAP1 REVERT JUMPDEST DUP2 DUP2 SUB PUSH1 0x0 DUP1 DUP6 PUSH20 0xFFFFFFFFFFFFFFFFFFFFFFFFFFFFFFFFFFFFFFFF AND PUSH20 0xFFFFFFFFFFFFFFFFFFFFFFFFFFFFFFFFFFFFFFFF AND DUP2 MSTORE PUSH1 0x20 ADD SWAP1 DUP2 MSTORE PUSH1 0x20 ADD PUSH1 0x0 KECCAK256 DUP2 SWAP1 SSTORE POP DUP2 PUSH1 0x2 PUSH1 0x0 DUP3 DUP3 SLOAD PUSH2 0x1211 SWAP2 SWAP1 PUSH2 0x1992 JUMP JUMPDEST SWAP3 POP POP DUP2 SWAP1 SSTORE POP PUSH1 0x0 PUSH20 0xFFFFFFFFFFFFFFFFFFFFFFFFFFFFFFFFFFFFFFFF AND DUP4 PUSH20 0xFFFFFFFFFFFFFFFFFFFFFFFFFFFFFFFFFFFFFFFF AND PUSH32 0xDDF252AD1BE2C89B69C2B068FC378DAA952BA7F163C4A11628F55A4DF523B3EF DUP5 PUSH1 0x40 MLOAD PUSH2 0x1276 SWAP2 SWAP1 PUSH2 0x18EA JUMP JUMPDEST PUSH1 0x40 MLOAD DUP1 SWAP2 SUB SWAP1 LOG3 PUSH2 0x128A DUP4 PUSH1 0x0 DUP5 PUSH2 0x135A JUMP JUMPDEST POP POP POP JUMP JUMPDEST PUSH1 0x0 PUSH1 0x5 PUSH1 0x0 SWAP1 SLOAD SWAP1 PUSH2 0x100 EXP SWAP1 DIV PUSH20 0xFFFFFFFFFFFFFFFFFFFFFFFFFFFFFFFFFFFFFFFF AND SWAP1 POP DUP2 PUSH1 0x5 PUSH1 0x0 PUSH2 0x100 EXP DUP2 SLOAD DUP2 PUSH20 0xFFFFFFFFFFFFFFFFFFFFFFFFFFFFFFFFFFFFFFFF MUL NOT AND SWAP1 DUP4 PUSH20 0xFFFFFFFFFFFFFFFFFFFFFFFFFFFFFFFFFFFFFFFF AND MUL OR SWAP1 SSTORE POP DUP2 PUSH20 0xFFFFFFFFFFFFFFFFFFFFFFFFFFFFFFFFFFFFFFFF AND DUP2 PUSH20 0xFFFFFFFFFFFFFFFFFFFFFFFFFFFFFFFFFFFFFFFF AND PUSH32 0x8BE0079C531659141344CD1FD0A4F28419497F9722A3DAAFE3B4186F6B6457E0 PUSH1 0x40 MLOAD PUSH1 0x40 MLOAD DUP1 SWAP2 SUB SWAP1 LOG3 POP POP JUMP JUMPDEST POP POP POP JUMP JUMPDEST POP POP POP JUMP JUMPDEST PUSH1 0x0 DUP2 CALLDATALOAD SWAP1 POP PUSH2 0x136E DUP2 PUSH2 0x1EAB JUMP JUMPDEST SWAP3 SWAP2 POP POP JUMP JUMPDEST PUSH1 0x0 DUP2 CALLDATALOAD SWAP1 POP PUSH2 0x1383 DUP2 PUSH2 0x1EC2 JUMP JUMPDEST SWAP3 SWAP2 POP POP JUMP JUMPDEST PUSH1 0x0 PUSH1 0x20 DUP3 DUP5 SUB SLT ISZERO PUSH2 0x139F JUMPI PUSH2 0x139E PUSH2 0x1ADE JUMP JUMPDEST JUMPDEST PUSH1 0x0 PUSH2 0x13AD DUP5 DUP3 DUP6 ADD PUSH2 0x135F JUMP JUMPDEST SWAP2 POP POP SWAP3 SWAP2 POP POP JUMP JUMPDEST PUSH1 0x0 DUP1 PUSH1 0x40 DUP4 DUP6 SUB SLT ISZERO PUSH2 0x13CD JUMPI PUSH2 0x13CC PUSH2 0x1ADE JUMP JUMPDEST JUMPDEST PUSH1 0x0 PUSH2 0x13DB DUP6 DUP3 DUP7 ADD PUSH2 0x135F JUMP JUMPDEST SWAP3 POP POP PUSH1 0x20 PUSH2 0x13EC DUP6 DUP3 DUP7 ADD PUSH2 0x135F JUMP JUMPDEST SWAP2 POP POP SWAP3 POP SWAP3 SWAP1 POP JUMP JUMPDEST PUSH1 0x0 DUP1 PUSH1 0x0 PUSH1 0x60 DUP5 DUP7 SUB SLT ISZERO PUSH2 0x140F JUMPI PUSH2 0x140E PUSH2 0x1ADE JUMP JUMPDEST JUMPDEST PUSH1 0x0 PUSH2 0x141D DUP7 DUP3 DUP8 ADD PUSH2 0x135F JUMP JUMPDEST SWAP4 POP POP PUSH1 0x20 PUSH2 0x142E DUP7 DUP3 DUP8 ADD PUSH2 0x135F JUMP JUMPDEST SWAP3 POP POP PUSH1 0x40 PUSH2 0x143F DUP7 DUP3 DUP8 ADD PUSH2 0x1374 JUMP JUMPDEST SWAP2 POP POP SWAP3 POP SWAP3 POP SWAP3 JUMP JUMPDEST PUSH1 0x0 DUP1 PUSH1 0x40 DUP4 DUP6 SUB SLT ISZERO PUSH2 0x1460 JUMPI PUSH2 0x145F PUSH2 0x1ADE JUMP JUMPDEST JUMPDEST PUSH1 0x0 PUSH2 0x146E DUP6 DUP3 DUP7 ADD PUSH2 0x135F JUMP JUMPDEST SWAP3 POP POP PUSH1 0x20 PUSH2 0x147F DUP6 DUP3 DUP7 ADD PUSH2 0x1374 JUMP JUMPDEST SWAP2 POP POP SWAP3 POP SWAP3 SWAP1 POP JUMP JUMPDEST PUSH1 0x0 PUSH1 0x20 DUP3 DUP5 SUB SLT ISZERO PUSH2 0x149F JUMPI PUSH2 0x149E PUSH2 0x1ADE JUMP JUMPDEST JUMPDEST PUSH1 0x0 PUSH2 0x14AD DUP5 DUP3 DUP6 ADD PUSH2 0x1374 JUMP JUMPDEST SWAP2 POP POP SWAP3 SWAP2 POP POP JUMP JUMPDEST PUSH2 0x14BF DUP2 PUSH2 0x19C6 JUMP JUMPDEST DUP3 MSTORE POP POP JUMP JUMPDEST PUSH2 0x14CE DUP2 PUSH2 0x19D8 JUMP JUMPDEST DUP3 MSTORE POP POP JUMP JUMPDEST PUSH1 0x0 PUSH2 0x14DF DUP3 PUSH2 0x1920 JUMP JUMPDEST PUSH2 0x14E9 DUP2 DUP6 PUSH2 0x192B JUMP JUMPDEST SWAP4 POP PUSH2 0x14F9 DUP2 DUP6 PUSH1 0x20 DUP7 ADD PUSH2 0x1A1B JUMP JUMPDEST PUSH2 0x1502 DUP2 PUSH2 0x1AE3 JUMP JUMPDEST DUP5 ADD SWAP2 POP POP SWAP3 SWAP2 POP POP JUMP JUMPDEST PUSH1 0x0 PUSH2 0x151A PUSH1 0x23 DUP4 PUSH2 0x192B JUMP JUMPDEST SWAP2 POP PUSH2 0x1525 DUP3 PUSH2 0x1AF4 JUMP JUMPDEST PUSH1 0x40 DUP3 ADD SWAP1 POP SWAP2 SWAP1 POP JUMP JUMPDEST PUSH1 0x0 PUSH2 0x153D PUSH1 0x22 DUP4 PUSH2 0x192B JUMP JUMPDEST SWAP2 POP PUSH2 0x1548 DUP3 PUSH2 0x1B43 JUMP JUMPDEST PUSH1 0x40 DUP3 ADD SWAP1 POP SWAP2 SWAP1 POP JUMP JUMPDEST PUSH1 0x0 PUSH2 0x1560 PUSH1 0x26 DUP4 PUSH2 0x192B JUMP JUMPDEST SWAP2 POP PUSH2 0x156B DUP3 PUSH2 0x1B92 JUMP JUMPDEST PUSH1 0x40 DUP3 ADD SWAP1 POP SWAP2 SWAP1 POP JUMP JUMPDEST PUSH1 0x0 PUSH2 0x1583 PUSH1 0x22 DUP4 PUSH2 0x192B JUMP JUMPDEST SWAP2 POP PUSH2 0x158E DUP3 PUSH2 0x1BE1 JUMP JUMPDEST PUSH1 0x40 DUP3 ADD SWAP1 POP SWAP2 SWAP1 POP JUMP JUMPDEST PUSH1 0x0 PUSH2 0x15A6 PUSH1 0x26 DUP4 PUSH2 0x192B JUMP JUMPDEST SWAP2 POP PUSH2 0x15B1 DUP3 PUSH2 0x1C30 JUMP JUMPDEST PUSH1 0x40 DUP3 ADD SWAP1 POP SWAP2 SWAP1 POP JUMP JUMPDEST PUSH1 0x0 PUSH2 0x15C9 PUSH1 0x28 DUP4 PUSH2 0x192B JUMP JUMPDEST SWAP2 POP PUSH2 0x15D4 DUP3 PUSH2 0x1C7F JUMP JUMPDEST PUSH1 0x40 DUP3 ADD SWAP1 POP SWAP2 SWAP1 POP JUMP JUMPDEST PUSH1 0x0 PUSH2 0x15EC PUSH1 0x20 DUP4 PUSH2 0x192B JUMP JUMPDEST SWAP2 POP PUSH2 0x15F7 DUP3 PUSH2 0x1CCE JUMP JUMPDEST PUSH1 0x20 DUP3 ADD SWAP1 POP SWAP2 SWAP1 POP JUMP JUMPDEST PUSH1 0x0 PUSH2 0x160F PUSH1 0x24 DUP4 PUSH2 0x192B JUMP JUMPDEST SWAP2 POP PUSH2 0x161A DUP3 PUSH2 0x1CF7 JUMP JUMPDEST PUSH1 0x40 DUP3 ADD SWAP1 POP SWAP2 SWAP1 POP JUMP JUMPDEST PUSH1 0x0 PUSH2 0x1632 PUSH1 0x21 DUP4 PUSH2 0x192B JUMP JUMPDEST SWAP2 POP PUSH2 0x163D DUP3 PUSH2 0x1D46 JUMP JUMPDEST PUSH1 0x40 DUP3 ADD SWAP1 POP SWAP2 SWAP1 POP JUMP JUMPDEST PUSH1 0x0 PUSH2 0x1655 PUSH1 0x25 DUP4 PUSH2 0x192B JUMP JUMPDEST SWAP2 POP PUSH2 0x1660 DUP3 PUSH2 0x1D95 JUMP JUMPDEST PUSH1 0x40 DUP3 ADD SWAP1 POP SWAP2 SWAP1 POP JUMP JUMPDEST PUSH1 0x0 PUSH2 0x1678 PUSH1 0x24 DUP4 PUSH2 0x192B JUMP JUMPDEST SWAP2 POP PUSH2 0x1683 DUP3 PUSH2 0x1DE4 JUMP JUMPDEST PUSH1 0x40 DUP3 ADD SWAP1 POP SWAP2 SWAP1 POP JUMP JUMPDEST PUSH1 0x0 PUSH2 0x169B PUSH1 0x25 DUP4 PUSH2 0x192B JUMP JUMPDEST SWAP2 POP PUSH2 0x16A6 DUP3 PUSH2 0x1E33 JUMP JUMPDEST PUSH1 0x40 DUP3 ADD SWAP1 POP SWAP2 SWAP1 POP JUMP JUMPDEST PUSH1 0x0 PUSH2 0x16BE PUSH1 0x1F DUP4 PUSH2 0x192B JUMP JUMPDEST SWAP2 POP PUSH2 0x16C9 DUP3 PUSH2 0x1E82 JUMP JUMPDEST PUSH1 0x20 DUP3 ADD SWAP1 POP SWAP2 SWAP1 POP JUMP JUMPDEST PUSH2 0x16DD DUP2 PUSH2 0x1A04 JUMP JUMPDEST DUP3 MSTORE POP POP JUMP JUMPDEST PUSH2 0x16EC DUP2 PUSH2 0x1A0E JUMP JUMPDEST DUP3 MSTORE POP POP JUMP JUMPDEST PUSH1 0x0 PUSH1 0x20 DUP3 ADD SWAP1 POP PUSH2 0x1707 PUSH1 0x0 DUP4 ADD DUP5 PUSH2 0x14B6 JUMP JUMPDEST SWAP3 SWAP2 POP POP JUMP JUMPDEST PUSH1 0x0 PUSH1 0x20 DUP3 ADD SWAP1 POP PUSH2 0x1722 PUSH1 0x0 DUP4 ADD DUP5 PUSH2 0x14C5 JUMP JUMPDEST SWAP3 SWAP2 POP POP JUMP JUMPDEST PUSH1 0x0 PUSH1 0x20 DUP3 ADD SWAP1 POP DUP2 DUP2 SUB PUSH1 0x0 DUP4 ADD MSTORE PUSH2 0x1742 DUP2 DUP5 PUSH2 0x14D4 JUMP JUMPDEST SWAP1 POP SWAP3 SWAP2 POP POP JUMP JUMPDEST PUSH1 0x0 PUSH1 0x20 DUP3 ADD SWAP1 POP DUP2 DUP2 SUB PUSH1 0x0 DUP4 ADD MSTORE PUSH2 0x1763 DUP2 PUSH2 0x150D JUMP JUMPDEST SWAP1 POP SWAP2 SWAP1 POP JUMP JUMPDEST PUSH1 0x0 PUSH1 0x20 DUP3 ADD SWAP1 POP DUP2 DUP2 SUB PUSH1 0x0 DUP4 ADD MSTORE PUSH2 0x1783 DUP2 PUSH2 0x1530 JUMP JUMPDEST SWAP1 POP SWAP2 SWAP1 POP JUMP JUMPDEST PUSH1 0x0 PUSH1 0x20 DUP3 ADD SWAP1 POP DUP2 DUP2 SUB PUSH1 0x0 DUP4 ADD MSTORE PUSH2 0x17A3 DUP2 PUSH2 0x1553 JUMP JUMPDEST SWAP1 POP SWAP2 SWAP1 POP JUMP JUMPDEST PUSH1 0x0 PUSH1 0x20 DUP3 ADD SWAP1 POP DUP2 DUP2 SUB PUSH1 0x0 DUP4 ADD MSTORE PUSH2 0x17C3 DUP2 PUSH2 0x1576 JUMP JUMPDEST SWAP1 POP SWAP2 SWAP1 POP JUMP JUMPDEST PUSH1 0x0 PUSH1 0x20 DUP3 ADD SWAP1 POP DUP2 DUP2 SUB PUSH1 0x0 DUP4 ADD MSTORE PUSH2 0x17E3 DUP2 PUSH2 0x1599 JUMP JUMPDEST SWAP1 POP SWAP2 SWAP1 POP JUMP JUMPDEST PUSH1 0x0 PUSH1 0x20 DUP3 ADD SWAP1 POP DUP2 DUP2 SUB PUSH1 0x0 DUP4 ADD MSTORE PUSH2 0x1803 DUP2 PUSH2 0x15BC JUMP JUMPDEST SWAP1 POP SWAP2 SWAP1 POP JUMP JUMPDEST PUSH1 0x0 PUSH1 0x20 DUP3 ADD SWAP1 POP DUP2 DUP2 SUB PUSH1 0x0 DUP4 ADD MSTORE PUSH2 0x1823 DUP2 PUSH2 0x15DF JUMP JUMPDEST SWAP1 POP SWAP2 SWAP1 POP JUMP JUMPDEST PUSH1 0x0 PUSH1 0x20 DUP3 ADD SWAP1 POP DUP2 DUP2 SUB PUSH1 0x0 DUP4 ADD MSTORE PUSH2 0x1843 DUP2 PUSH2 0x1602 JUMP JUMPDEST SWAP1 POP SWAP2 SWAP1 POP JUMP JUMPDEST PUSH1 0x0 PUSH1 0x20 DUP3 ADD SWAP1 POP DUP2 DUP2 SUB PUSH1 0x0 DUP4 ADD MSTORE PUSH2 0x1863 DUP2 PUSH2 0x1625 JUMP JUMPDEST SWAP1 POP SWAP2 SWAP1 POP JUMP JUMPDEST PUSH1 0x0 PUSH1 0x20 DUP3 ADD SWAP1 POP DUP2 DUP2 SUB PUSH1 0x0 DUP4 ADD MSTORE PUSH2 0x1883 DUP2 PUSH2 0x1648 JUMP JUMPDEST SWAP1 POP SWAP2 SWAP1 POP JUMP JUMPDEST PUSH1 0x0 PUSH1 0x20 DUP3 ADD SWAP1 POP DUP2 DUP2 SUB PUSH1 0x0 DUP4 ADD MSTORE PUSH2 0x18A3 DUP2 PUSH2 0x166B JUMP JUMPDEST SWAP1 POP SWAP2 SWAP1 POP JUMP JUMPDEST PUSH1 0x0 PUSH1 0x20 DUP3 ADD SWAP1 POP DUP2 DUP2 SUB PUSH1 0x0 DUP4 ADD MSTORE PUSH2 0x18C3 DUP2 PUSH2 0x168E JUMP JUMPDEST SWAP1 POP SWAP2 SWAP1 POP JUMP JUMPDEST PUSH1 0x0 PUSH1 0x20 DUP3 ADD SWAP1 POP DUP2 DUP2 SUB PUSH1 0x0 DUP4 ADD MSTORE PUSH2 0x18E3 DUP2 PUSH2 0x16B1 JUMP JUMPDEST SWAP1 POP SWAP2 SWAP1 POP JUMP JUMPDEST PUSH1 0x0 PUSH1 0x20 DUP3 ADD SWAP1 POP PUSH2 0x18FF PUSH1 0x0 DUP4 ADD DUP5 PUSH2 0x16D4 JUMP JUMPDEST SWAP3 SWAP2 POP POP JUMP JUMPDEST PUSH1 0x0 PUSH1 0x20 DUP3 ADD SWAP1 POP PUSH2 0x191A PUSH1 0x0 DUP4 ADD DUP5 PUSH2 0x16E3 JUMP JUMPDEST SWAP3 SWAP2 POP POP JUMP JUMPDEST PUSH1 0x0 DUP2 MLOAD SWAP1 POP SWAP2 SWAP1 POP JUMP JUMPDEST PUSH1 0x0 DUP3 DUP3 MSTORE PUSH1 0x20 DUP3 ADD SWAP1 POP SWAP3 SWAP2 POP POP JUMP JUMPDEST PUSH1 0x0 PUSH2 0x1947 DUP3 PUSH2 0x1A04 JUMP JUMPDEST SWAP2 POP PUSH2 0x1952 DUP4 PUSH2 0x1A04 JUMP JUMPDEST SWAP3 POP DUP3 PUSH32 0xFFFFFFFFFFFFFFFFFFFFFFFFFFFFFFFFFFFFFFFFFFFFFFFFFFFFFFFFFFFFFFFF SUB DUP3 GT ISZERO PUSH2 0x1987 JUMPI PUSH2 0x1986 PUSH2 0x1A80 JUMP JUMPDEST JUMPDEST DUP3 DUP3 ADD SWAP1 POP SWAP3 SWAP2 POP POP JUMP JUMPDEST PUSH1 0x0 PUSH2 0x199D DUP3 PUSH2 0x1A04 JUMP JUMPDEST SWAP2 POP PUSH2 0x19A8 DUP4 PUSH2 0x1A04 JUMP JUMPDEST SWAP3 POP DUP3 DUP3 LT ISZERO PUSH2 0x19BB JUMPI PUSH2 0x19BA PUSH2 0x1A80 JUMP JUMPDEST JUMPDEST DUP3 DUP3 SUB SWAP1 POP SWAP3 SWAP2 POP POP JUMP JUMPDEST PUSH1 0x0 PUSH2 0x19D1 DUP3 PUSH2 0x19E4 JUMP JUMPDEST SWAP1 POP SWAP2 SWAP1 POP JUMP JUMPDEST PUSH1 0x0 DUP2 ISZERO ISZERO SWAP1 POP SWAP2 SWAP1 POP JUMP JUMPDEST PUSH1 0x0 PUSH20 0xFFFFFFFFFFFFFFFFFFFFFFFFFFFFFFFFFFFFFFFF DUP3 AND SWAP1 POP SWAP2 SWAP1 POP JUMP JUMPDEST PUSH1 0x0 DUP2 SWAP1 POP SWAP2 SWAP1 POP JUMP JUMPDEST PUSH1 0x0 PUSH1 0xFF DUP3 AND SWAP1 POP SWAP2 SWAP1 POP JUMP JUMPDEST PUSH1 0x0 JUMPDEST DUP4 DUP2 LT ISZERO PUSH2 0x1A39 JUMPI DUP1 DUP3 ADD MLOAD DUP2 DUP5 ADD MSTORE PUSH1 0x20 DUP2 ADD SWAP1 POP PUSH2 0x1A1E JUMP JUMPDEST DUP4 DUP2 GT ISZERO PUSH2 0x1A48 JUMPI PUSH1 0x0 DUP5 DUP5 ADD MSTORE JUMPDEST POP POP POP POP JUMP JUMPDEST PUSH1 0x0 PUSH1 0x2 DUP3 DIV SWAP1 POP PUSH1 0x1 DUP3 AND DUP1 PUSH2 0x1A66 JUMPI PUSH1 0x7F DUP3 AND SWAP2 POP JUMPDEST PUSH1 0x20 DUP3 LT DUP2 EQ ISZERO PUSH2 0x1A7A JUMPI PUSH2 0x1A79 PUSH2 0x1AAF JUMP JUMPDEST JUMPDEST POP SWAP2 SWAP1 POP JUMP JUMPDEST PUSH32 0x4E487B7100000000000000000000000000000000000000000000000000000000 PUSH1 0x0 MSTORE PUSH1 0x11 PUSH1 0x4 MSTORE PUSH1 0x24 PUSH1 0x0 REVERT JUMPDEST PUSH32 0x4E487B7100000000000000000000000000000000000000000000000000000000 PUSH1 0x0 MSTORE PUSH1 0x22 PUSH1 0x4 MSTORE PUSH1 0x24 PUSH1 0x0 REVERT JUMPDEST PUSH1 0x0 DUP1 REVERT JUMPDEST PUSH1 0x0 PUSH1 0x1F NOT PUSH1 0x1F DUP4 ADD AND SWAP1 POP SWAP2 SWAP1 POP JUMP JUMPDEST PUSH32 0x45524332303A207472616E7366657220746F20746865207A65726F2061646472 PUSH1 0x0 DUP3 ADD MSTORE PUSH32 0x6573730000000000000000000000000000000000000000000000000000000000 PUSH1 0x20 DUP3 ADD MSTORE POP JUMP JUMPDEST PUSH32 0x45524332303A206275726E20616D6F756E7420657863656564732062616C616E PUSH1 0x0 DUP3 ADD MSTORE PUSH32 0x6365000000000000000000000000000000000000000000000000000000000000 PUSH1 0x20 DUP3 ADD MSTORE POP JUMP JUMPDEST PUSH32 0x4F776E61626C653A206E6577206F776E657220697320746865207A65726F2061 PUSH1 0x0 DUP3 ADD MSTORE PUSH32 0x6464726573730000000000000000000000000000000000000000000000000000 PUSH1 0x20 DUP3 ADD MSTORE POP JUMP JUMPDEST PUSH32 0x45524332303A20617070726F766520746F20746865207A65726F206164647265 PUSH1 0x0 DUP3 ADD MSTORE PUSH32 0x7373000000000000000000000000000000000000000000000000000000000000 PUSH1 0x20 DUP3 ADD MSTORE POP JUMP JUMPDEST PUSH32 0x45524332303A207472616E7366657220616D6F756E7420657863656564732062 PUSH1 0x0 DUP3 ADD MSTORE PUSH32 0x616C616E63650000000000000000000000000000000000000000000000000000 PUSH1 0x20 DUP3 ADD MSTORE POP JUMP JUMPDEST PUSH32 0x45524332303A207472616E7366657220616D6F756E7420657863656564732061 PUSH1 0x0 DUP3 ADD MSTORE PUSH32 0x6C6C6F77616E6365000000000000000000000000000000000000000000000000 PUSH1 0x20 DUP3 ADD MSTORE POP JUMP JUMPDEST PUSH32 0x4F776E61626C653A2063616C6C6572206973206E6F7420746865206F776E6572 PUSH1 0x0 DUP3 ADD MSTORE POP JUMP JUMPDEST PUSH32 0x45524332303A206275726E20616D6F756E74206578636565647320616C6C6F77 PUSH1 0x0 DUP3 ADD MSTORE PUSH32 0x616E636500000000000000000000000000000000000000000000000000000000 PUSH1 0x20 DUP3 ADD MSTORE POP JUMP JUMPDEST PUSH32 0x45524332303A206275726E2066726F6D20746865207A65726F20616464726573 PUSH1 0x0 DUP3 ADD MSTORE PUSH32 0x7300000000000000000000000000000000000000000000000000000000000000 PUSH1 0x20 DUP3 ADD MSTORE POP JUMP JUMPDEST PUSH32 0x45524332303A207472616E736665722066726F6D20746865207A65726F206164 PUSH1 0x0 DUP3 ADD MSTORE PUSH32 0x6472657373000000000000000000000000000000000000000000000000000000 PUSH1 0x20 DUP3 ADD MSTORE POP JUMP JUMPDEST PUSH32 0x45524332303A20617070726F76652066726F6D20746865207A65726F20616464 PUSH1 0x0 DUP3 ADD MSTORE PUSH32 0x7265737300000000000000000000000000000000000000000000000000000000 PUSH1 0x20 DUP3 ADD MSTORE POP JUMP JUMPDEST PUSH32 0x45524332303A2064656372656173656420616C6C6F77616E63652062656C6F77 PUSH1 0x0 DUP3 ADD MSTORE PUSH32 0x207A65726F000000000000000000000000000000000000000000000000000000 PUSH1 0x20 DUP3 ADD MSTORE POP JUMP JUMPDEST PUSH32 0x45524332303A206D696E7420746F20746865207A65726F206164647265737300 PUSH1 0x0 DUP3 ADD MSTORE POP JUMP JUMPDEST PUSH2 0x1EB4 DUP2 PUSH2 0x19C6 JUMP JUMPDEST DUP2 EQ PUSH2 0x1EBF JUMPI PUSH1 0x0 DUP1 REVERT JUMPDEST POP JUMP JUMPDEST PUSH2 0x1ECB DUP2 PUSH2 0x1A04 JUMP JUMPDEST DUP2 EQ PUSH2 0x1ED6 JUMPI PUSH1 0x0 DUP1 REVERT JUMPDEST POP JUMP INVALID LOG2 PUSH5 0x6970667358 0x22 SLT KECCAK256 0xD9 LOG2 SWAP12 0xC0 PUSH11 0x2153D048668064A094045E 0x28 0x5E PUSH6 0x9761413F25DA 0xDC 0xD9 EXTCODEHASH ISZERO PUSH24 0x2C3F64736F6C634300080700330000000000000000000000 "
		},
		"gasEstimates": {
			"creation": {
				"codeDepositCost": "3019200",
				"executionCost": "infinite",
				"totalCost": "infinite"
			},
			"external": {
				"brush()": "infinite",
				"buyApple()": "infinite",
				"buyCake()": "infinite",
				"buyFruitJuice()": "infinite",
				"buyMeal()": "infinite",
				"buyMedicine()": "infinite",
				"buySoda()": "infinite",
				"buyToy()": "infinite",
				"buyVegetables()": "infinite",
				"buyWater()": "infinite",
				"exercise()": "infinite",
				"getDirtiness()": "4824",
				"getHunger()": "4824",
				"getMinutesAsleep()": "infinite",
				"getThirst()": "4845",
				"getTiredness()": "2679",
				"getUnHappiness()": "4780",
				"getUnHealthiness()": "infinite",
				"isAlive()": "infinite",
				"kill()": "infinite",
				"owner()": "2611",
				"renounceOwnership()": "30441",
				"revive()": "infinite",
				"sleep()": "infinite",
				"transferOwnership(address)": "30789",
				"wakeUp()": "infinite",
				"walk()": "infinite",
				"wash()": "infinite",
				"withDraw()": "infinite"
			},
			"internal": {
				"setAttr(enum TitanPet.attr,int256)": "44566",
				"thanks(uint256,uint256)": "infinite"
			}
		},
		"methodIdentifiers": {
			"brush()": "4ac2a647",
			"buyApple()": "284131c7",
			"buyCake()": "6aca8cd5",
			"buyFruitJuice()": "37e4386f",
			"buyMeal()": "3ec1a39a",
			"buyMedicine()": "094ebde6",
			"buySoda()": "3db8cbcc",
			"buyToy()": "0aaf3e8f",
			"buyVegetables()": "eae35bc1",
			"buyWater()": "ca8595a9",
			"exercise()": "d32cb0fe",
			"getDirtiness()": "18d4f7c3",
			"getHunger()": "4fccdfcd",
			"getMinutesAsleep()": "97221d2c",
			"getThirst()": "90dcfe5b",
			"getTiredness()": "1b498872",
			"getUnHappiness()": "44d59c27",
			"getUnHealthiness()": "0908d461",
			"isAlive()": "4136aa35",
			"kill()": "41c0e1b5",
			"owner()": "8da5cb5b",
			"renounceOwnership()": "715018a6",
			"revive()": "95851a65",
			"sleep()": "133a473e",
			"transferOwnership(address)": "f2fde38b",
			"wakeUp()": "25e8ab58",
			"walk()": "fc98512e",
			"wash()": "fa84d416",
			"withDraw()": "0fdb1c10"
		}
	},
	"abi": [
		{
			"inputs": [
				{
					"internalType": "string",
					"name": "p_name",
					"type": "string"
				},
				{
					"internalType": "uint256",
					"name": "p_id",
					"type": "uint256"
				}
			],
			"stateMutability": "nonpayable",
			"type": "constructor"
		},
		{
			"anonymous": false,
			"inputs": [
				{
					"indexed": false,
					"internalType": "uint256",
					"name": "timeStamp",
					"type": "uint256"
				}
			],
			"name": "Born",
			"type": "event"
		},
		{
			"anonymous": false,
			"inputs": [
				{
					"indexed": true,
					"internalType": "address",
					"name": "previousOwner",
					"type": "address"
				},
				{
					"indexed": true,
					"internalType": "address",
					"name": "newOwner",
					"type": "address"
				}
			],
			"name": "OwnershipTransferred",
			"type": "event"
		},
		{
			"anonymous": false,
			"inputs": [
				{
					"indexed": false,
					"internalType": "address",
					"name": "who",
					"type": "address"
				},
				{
					"indexed": false,
					"internalType": "uint256",
					"name": "amount",
					"type": "uint256"
				}
			],
			"name": "ThankYou",
			"type": "event"
		},
		{
			"inputs": [],
			"name": "brush",
			"outputs": [],
			"stateMutability": "nonpayable",
			"type": "function"
		},
		{
			"inputs": [],
			"name": "buyApple",
			"outputs": [],
			"stateMutability": "nonpayable",
			"type": "function"
		},
		{
			"inputs": [],
			"name": "buyCake",
			"outputs": [],
			"stateMutability": "nonpayable",
			"type": "function"
		},
		{
			"inputs": [],
			"name": "buyFruitJuice",
			"outputs": [],
			"stateMutability": "nonpayable",
			"type": "function"
		},
		{
			"inputs": [],
			"name": "buyMeal",
			"outputs": [],
			"stateMutability": "nonpayable",
			"type": "function"
		},
		{
			"inputs": [],
			"name": "buyMedicine",
			"outputs": [],
			"stateMutability": "nonpayable",
			"type": "function"
		},
		{
			"inputs": [],
			"name": "buySoda",
			"outputs": [],
			"stateMutability": "nonpayable",
			"type": "function"
		},
		{
			"inputs": [],
			"name": "buyToy",
			"outputs": [],
			"stateMutability": "nonpayable",
			"type": "function"
		},
		{
			"inputs": [],
			"name": "buyVegetables",
			"outputs": [],
			"stateMutability": "nonpayable",
			"type": "function"
		},
		{
			"inputs": [],
			"name": "buyWater",
			"outputs": [],
			"stateMutability": "nonpayable",
			"type": "function"
		},
		{
			"inputs": [],
			"name": "exercise",
			"outputs": [],
			"stateMutability": "nonpayable",
			"type": "function"
		},
		{
			"inputs": [],
			"name": "getDirtiness",
			"outputs": [
				{
					"internalType": "int256",
					"name": "",
					"type": "int256"
				}
			],
			"stateMutability": "view",
			"type": "function"
		},
		{
			"inputs": [],
			"name": "getHunger",
			"outputs": [
				{
					"internalType": "int256",
					"name": "",
					"type": "int256"
				}
			],
			"stateMutability": "view",
			"type": "function"
		},
		{
			"inputs": [],
			"name": "getMinutesAsleep",
			"outputs": [
				{
					"internalType": "uint256",
					"name": "",
					"type": "uint256"
				}
			],
			"stateMutability": "view",
			"type": "function"
		},
		{
			"inputs": [],
			"name": "getThirst",
			"outputs": [
				{
					"internalType": "int256",
					"name": "",
					"type": "int256"
				}
			],
			"stateMutability": "view",
			"type": "function"
		},
		{
			"inputs": [],
			"name": "getTiredness",
			"outputs": [
				{
					"internalType": "int256",
					"name": "",
					"type": "int256"
				}
			],
			"stateMutability": "view",
			"type": "function"
		},
		{
			"inputs": [],
			"name": "getUnHappiness",
			"outputs": [
				{
					"internalType": "int256",
					"name": "",
					"type": "int256"
				}
			],
			"stateMutability": "view",
			"type": "function"
		},
		{
			"inputs": [],
			"name": "getUnHealthiness",
			"outputs": [
				{
					"internalType": "int256",
					"name": "",
					"type": "int256"
				}
			],
			"stateMutability": "view",
			"type": "function"
		},
		{
			"inputs": [],
			"name": "isAlive",
			"outputs": [
				{
					"internalType": "bool",
					"name": "",
					"type": "bool"
				}
			],
			"stateMutability": "view",
			"type": "function"
		},
		{
			"inputs": [],
			"name": "kill",
			"outputs": [],
			"stateMutability": "nonpayable",
			"type": "function"
		},
		{
			"inputs": [],
			"name": "owner",
			"outputs": [
				{
					"internalType": "address",
					"name": "",
					"type": "address"
				}
			],
			"stateMutability": "view",
			"type": "function"
		},
		{
			"inputs": [],
			"name": "renounceOwnership",
			"outputs": [],
			"stateMutability": "nonpayable",
			"type": "function"
		},
		{
			"inputs": [],
			"name": "revive",
			"outputs": [],
			"stateMutability": "nonpayable",
			"type": "function"
		},
		{
			"inputs": [],
			"name": "sleep",
			"outputs": [],
			"stateMutability": "nonpayable",
			"type": "function"
		},
		{
			"inputs": [
				{
					"internalType": "address",
					"name": "newOwner",
					"type": "address"
				}
			],
			"name": "transferOwnership",
			"outputs": [],
			"stateMutability": "nonpayable",
			"type": "function"
		},
		{
			"inputs": [],
			"name": "wakeUp",
			"outputs": [],
			"stateMutability": "nonpayable",
			"type": "function"
		},
		{
			"inputs": [],
			"name": "walk",
			"outputs": [],
			"stateMutability": "nonpayable",
			"type": "function"
		},
		{
			"inputs": [],
			"name": "wash",
			"outputs": [],
			"stateMutability": "nonpayable",
			"type": "function"
		},
		{
			"inputs": [],
			"name": "withDraw",
			"outputs": [],
			"stateMutability": "nonpayable",
			"type": "function"
		}
	]
}